:100000000C94D6010C94F3010C94F3010C94F301BD
:100010000C94F3010C94F3010C94F3010C94F30190
:100020000C94F3010C94F3010C94F3010C94F30180
:100030000C94F3010C94F3010C94F3010C94F30170
:100040000C94F3010C94F3010C94F3010C94F30160
:100050000C94F3010C94F3010C94F3010C94370706
:100060000C94F3010C94F3010C94F3010C94F30140
:100070000C94F3010C94F3010C94F3010C94F30130
:100080000C94F3010C94F3010C94F3010C94F30120
:100090000C94F3010C94F3010C94F3010C94F30110
:1000A0000C94F3010C94F3010C94F30105A84CCDCE
:1000B000B2D44EB93836A9020C50B9918688083CA2
:1000C000A6AAAA2ABE000000803F6E616E00696E7B
:1000D000660000407A10F35A00A0724E1809001012
:1000E000A5D4E80000E87648170000E40B540200AD
:1000F00000CA9A3B000000E1F505000080969800D8
:10010000000040420F000000A08601000000102700
:1001100000000000E8030000000064000000000090
:100120000A00000000000100000000002C76D888C2
:10013000DC674F0823DFC1DFAE59E1B1B796E5E3D5
:10014000E453C63AE651997696E8E6C28426EB89EE
:100150008C9B62ED407C6FFCEFBC9C9F40F2BAA58B
:100160006FA5F490055A2AF75C936B6CF9676DC123
:100170001BFCE0E40D47FEF520E6B500D0ED902E27
:100180000300943577050080841E080000204E0A85
:10019000000000C80C333333330F986E12831141C3
:1001A000EF8D2114893BE65516CFFEE6DB18D1848E
:1001B0004B381BF77C1D901DA4BBE42420328472B5
:1001C0005E228100C9F124ECA1E53D27000000007A
:1001D0000000005F00000007000700147F147F1478
:1001E000242A7F2A122313086462364955225000BC
:1001F00005030000001C2241000041221C001408DD
:100200003E081408083E080800503000000808089E
:100210000808006060000020100804023E514945B3
:100220003E00427F400042615149462141454B31E9
:100230001814127F1027454545393C4A4949300179
:10024000710905033649494936064949291E0036D0
:100250003600000056360000081422410014141421
:10026000141400412214080201510906324979414F
:100270003E7E1111117E7F494949363E414141225E
:100280007F4141221C7F494949417F090909013EBB
:100290004149497A7F0808087F00417F410020409A
:1002A000413F017F081422417F404040407F020CC3
:1002B000027F7F0408107F3E4141413E7F090909CA
:1002C000063E4151215E7F09192946464949493177
:1002D00001017F01013F4040403F1F2040201F3F60
:1002E0004038403F631408146307087008076151E1
:1002F000494543007F41410002040810200041416C
:100300007F0004020102044040404040000102041A
:100310000020545454787F4844443838444444209E
:10032000384444487F3854545418087E0901020C5C
:100330005252523E7F0804047800447D4000204021
:10034000443D007F1028440000417F40007C041899
:1003500004787C0804047838444444387C14141429
:1003600008081414187C7C080404084854545420C9
:10037000043F4440203C4040207C1C2040201C3C4A
:100380004030403C44281028440C5050503C4464B9
:10039000544C44000836410000007F000000413604
:1003A00008001008081008784641467811241FBE3E
:1003B000CFEFDAE0DEBFCDBF11E0A0E0B1E0E6E1D3
:1003C000F2E302C005900D92A237B107D9F726E0FB
:1003D000A2E7B1E001C01D92A930B207E1F70E9487
:1003E000DF0C0C9409190C940000DF92EF92FF923D
:1003F0000F931F93CF93DF93CDB7DEB72A970FB636
:10040000F894DEBF0FBECDBF082F162FD22E1F923D
:100410004F9385E291E09F938F931F928AE08F9391
:10042000CE0101967C019F938F930E941818612F33
:1004300070E02D2DA701802F90E00E94180F0FB6BD
:10044000F894DEBF0FBECDBF2A960FB6F894DEBF7C
:100450000FBECDBFDF91CF911F910F91FF90EF9015
:10046000DF900895DF92EF92FF920F931F93CF9347
:10047000DF93CDB7DEB764970FB6F894DEBF0FBE3B
:10048000CDBFD82E162F5F934F933F932F938AE2C1
:1004900091E09F938F931F9284E18F93CE010196F9
:1004A0007C019F938F930E941818612F70E0202F7A
:1004B000A7018D2D90E00E94180F0FB6F894DEBFB3
:1004C0000FBECDBF64960FB6F894DEBF0FBECDBF92
:1004D000DF91CF911F910F91FF90EF90DF900895E2
:1004E000DF92EF92FF920F931F93CF93DF93CDB7DD
:1004F000DEB72A970FB6F894DEBF0FBECDBFE82E49
:10050000F62ED22E0130110519F40E94F5011DC0FE
:100510001F924F938DE291E09F938F931F928AE0F9
:100520008F938E010F5F1F4F1F930F930E94181818
:100530006F2D70E02D2DA8018E2D90E00E94180FD8
:100540000FB6F894DEBF0FBECDBF2A960FB6F89453
:10055000DEBF0FBECDBFDF91CF911F910F91FF90F6
:10056000EF90DF9008954F925F926F927F928F92FB
:100570009F92AF92BF92CF92DF92EF92FF920F9332
:100580001F93CF93DF9300D000D0CDB7DEB7C090DC
:100590000001D0900101E0900201F090030120E001
:1005A00030E040E251E4C701B6010E9436152B014C
:1005B0003C0120E030E040EA50E4C701B6010E946F
:1005C000361569837A838B839C8320E030E0A90110
:1005D000C701B6010E943615AB01BC01E1E9F3E0A9
:1005E00080E090E0A0E9B1E480839183A283B383AB
:1005F00080E090E0A0E7B1E484839583A683B7838D
:1006000080E090E0A0E5B1E480879187A287B3877E
:10061000812C912C88ECA82E81E4B82E84869586B6
:10062000A686B786408A518A628A738A89819A81AE
:10063000AB81BC81848B958BA68BB78B80E090E0DF
:10064000A0EAB0E4808F918FA28FB38F80E090E01A
:10065000A0E2B1E4848F958FA68FB78F80A291A27C
:10066000A2A2B3A200E010E02CE032E404A315A3A0
:1006700026A337A380A691A6A2A6B3A600E010E009
:1006800024E332E404A715A726A737A740AA51AA56
:1006900062AA73AA44AB55AB66AB77AB10AE11AE92
:1006A00012AE13AE84AF95AFA6AFB7AF0093D10330
:1006B0001093D2032093D3033093D4038093D503B4
:1006C0009093D603A093D703B093D80300E010E033
:1006D00020E732E40093D9031093DA032093DB037D
:1006E0003093DC038093DD039093DE03A093DF035C
:1006F000B093E0034093E1035093E2036093E3037C
:100700007093E40320E030E040E751E4C701B60114
:100710000E943615DC01CB01B0588093E50390931D
:10072000E603A093E703B093E80380E090E0A0E73E
:10073000B1E48093E9039093EA03A093EB03B093B1
:10074000EC031092ED031092EE031092EF0310925F
:10075000F00380E090E0A8E6B2E48093F103909388
:10076000F203A093F303B093F4038092F503909205
:10077000F603A092F703B092F80380E090E0A0E9BE
:10078000B2E48093F9039093FA03A093FB03B09330
:10079000FC0380E090E0A0EFB1E48093FD03909330
:1007A000FE03A093FF03B093000489809A80AB807E
:1007B000BC80B7FAB094B7F8B094809201049092DC
:1007C0000204A0920304B092040420E030E040E66A
:1007D00051E4C701B6010E94361560930504709379
:1007E0000604809307049093080480E090E0A0E65C
:1007F000B1E48093090490930A04A0930B04B0938E
:100800000C0480E090E0A0EAB0E480930D049093A3
:100810000E04A0930F04B09310040F900F900F904C
:100820000F90DF91CF911F910F91FF90EF90DF908C
:10083000CF90BF90AF909F908F907F906F905F9080
:100840004F9008954F925F926F927F928F929F92F6
:10085000AF92BF92CF92DF92EF92FF920F93CF931E
:10086000DF93CDB7DEB72E970FB6F894DEBF0FBE7D
:10087000CDBF81E993E09E878D87AD85BE8550967B
:100880004D905D906D907C9053972D913D914D9141
:100890005C91C301B2010E9422134B015C01ED8502
:1008A000FE856083718382839383208531854285B1
:1008B0005385C301B2010E9422136B017C01AD85F7
:1008C000BE8518966D937D938D939C931B9754963C
:1008D0008D919D910D90BC91A02D89879A87AB87B2
:1008E000BC87ED85FE852481358146815781BC0119
:1008F000CD010E94221369837A838B839C83AD850B
:10090000BE8514966D937D938D939C9317971C963B
:100910002D913D914D915C911F9769857A858B85CD
:100920009C850E9422136D837E838F839887ED853B
:10093000FE85648775878687978720E030E0A90168
:10094000C301B2010E94311518160CF043C020E01B
:1009500030E048EA52E4C501B4010E94311587FD38
:100960007FC020E030E048EA52E4C701B6010E94AF
:10097000311587FD75C0AD85BE8558964D905D904B
:100980006D907C905B9720E030E048EA52E4C5012E
:10099000B4010E942113A30192010E942213ED854C
:1009A000FE85608371838283938320E030E048EA90
:1009B00052E4C701B6010E942113A30192010E94D3
:1009C0002213AD85BE8518966D937D938D939C9370
:1009D0001B9746C020E030E0A901C301B2010E948C
:1009E0008E1387FF3DC020E030E0A901C501B401AE
:1009F0000E948E131816A4F120E030E0A901C7016F
:100A0000B6010E948E1318165CF1ED85FE85408CB0
:100A1000518C628C738C20E030E048EA52E4C501CE
:100A2000B4010E942213A30192010E942213AD85FA
:100A3000BE856D937D938D939C93139720E030E05A
:100A400048EA52E4C701B6010E942213A3019201B1
:100A50000E942213ED85FE856087718782879387C8
:100A600020E030E0A90169857A858B859C850E940C
:100A70008E1387FF4DC020E030E040E051E46981F3
:100A80007A818B819C810E948E1318160CF490C081
:100A900020E030E040E051E46D817E818F819885D7
:100AA0000E948E1318160CF483C0AD85BE855C962B
:100AB000CD90DD90ED90FC905F9720E030E040E23B
:100AC00052E469817A818B819C810E942213A70163
:100AD00096010E942213ED85FE85648375838683CB
:100AE000978320E030E040E252E46D817E818F8187
:100AF00098850E942213A70196010E942213AD85BA
:100B0000BE851C966D937D938D939C931F9750C0CB
:100B100020E030E0A90169857A858B859C850E945B
:100B2000311518160CF044C020E030E040E452E4E7
:100B300069817A818B819C810E94311587FD38C043
:100B400020E030E040E452E46D817E818F81988521
:100B50000E94311587FD2CC020E030E044E252E4D1
:100B6000ED85FE85648D758D868D978D0E9422138F
:100B70006B017C019B01AC0169817A818B819C8135
:100B80000E942113AD85BE8514966D937D938D9340
:100B90009C931797A70196016D817E818F8198851F
:100BA0000E942113ED85FE85648775878687978768
:100BB000AD85BE851C966D917D918D919C911F9701
:100BC0000E940A142B013C01ED85FE85608571852C
:100BD000828593850E940A144B015C01AD85BE8518
:100BE00014966D917D918D919C9117970E940A1496
:100BF0006B017C01ED85FE8560817181828193812D
:100C00000E940A14DC01CB0101E09201A401B601AB
:100C10000E94500D8D859E8580969E878D8781517F
:100C2000944009F02ACE2E960FB6F894DEBF0FBE80
:100C3000CDBFDF91CF910F91FF90EF90DF90CF90DC
:100C4000BF90AF909F908F907F906F905F904F90EC
:100C500008954F925F926F927F928F929F92AF9280
:100C6000BF92CF92DF92EF92FF920F93CF93DF93D9
:100C7000C1E9D3E06C857D858E859F850E940A142D
:100C80002B013C01688579858A859B850E940A1421
:100C90004B015C016C817D818E819F810E940A14D1
:100CA0006B017C01688179818A819B810E940A1491
:100CB000DC01CB0101E09201A401B6010E94500DBC
:100CC000A09684E0C131D807A9F6DF91CF910F91AA
:100CD000FF90EF90DF90CF90BF90AF909F908F905C
:100CE0007F906F905F904F90089585988698229A94
:100CF000239A569A519827982198509820980895A9
:100D0000789414BC85E085BD81E080936E000895E1
:100D1000109285011092860110928701109288012D
:100D2000109283011092820108958F929F92AF9248
:100D3000BF92CF92DF92EF92FF920E94DE16BC012B
:100D4000990F880B990B0E9442142BED3FE049E468
:100D500050E40E9436159B01AC010E94221320E052
:100D60003EEF4FEF56E40E9498134B015C010E9446
:100D70009313C0900B01D0900C01E0900D01F09006
:100D80000E01A70196010E94361560938D037093A2
:100D90008E0380938F0390939003C501B4010E944A
:100DA000C7159B01AC01C701B6010E9436156093BF
:100DB0009101709392018093930190939401FF901D
:100DC000EF90DF90CF90BF90AF909F908F9008955D
:100DD00080E090E0ACE9B2E48093130190931401B9
:100DE000A0931501B093160180E090E0ACE1B2E46D
:100DF00080930F0190931001A0931101B093120101
:100E00001092900110928F0188E090E090930A0177
:100E1000809309010C9495060E9488060C94E806BC
:100E20009B0177FF02C0295F3F4F43E0359527952F
:100E30004A95E1F7E4E5E29FA001E39F500D1124FC
:100E40009A012B563E4FF901E80FF91F208130E03F
:100E5000CB0168E070E00E943316A90102C05595ED
:100E600047958A95E2F7CA018170992708951F92E4
:100E70000F920FB60F9211248F939F93809182014E
:100E800090918301019690938301809382018091D8
:100E90008101880F8093810180917D01880F80936B
:100EA0007D0180917B01880F80937B018091790186
:100EB000880F8093790180917701880F8093770163
:100EC00080917501880F8093750180917301880F5F
:100ED000809373018091810187708093810180915B
:100EE0007D01877080937D0180917B018370809369
:100EF0007B018091790183708093790180917701E2
:100F00008370809377018091750183708093750160
:100F1000809173018770809373018FB190918101EB
:100F200085FB882780F9892B809381018FB190916F
:100F30007D0186FB882780F9892B80937D0189B10B
:100F400090917B0186958170892B80937B0183B181
:100F500090917901881F8827881F892B80937901B8
:100F600083B19091770186958170892B8093770169
:100F700089B1909175018170892B8093750183B13E
:100F8000909173018170892B80937301809181010D
:100F9000873021F481E08093800106C08091810137
:100FA000811102C01092800180917D01873021F46F
:100FB00081E080937C0106C080917D01811102C097
:100FC00010927C0180917B01833021F481E0809339
:100FD0007A0106C080917B01811102C010927A01D2
:100FE00080917901833021F481E08093780106C0FB
:100FF00080917901811102C010927801809177016E
:10100000833021F481E08093760106C080917701DE
:10101000811102C01092760180917501833021F414
:1010200081E08093740106C080917501811102C036
:101030001092740180917301833021F481E08093D8
:10104000720106C080917301811102C01092720179
:101050009F918F910F900FBE0F901F90189521E0D8
:1010600040E351E064E070E08CE090E00E94180FF3
:1010700021E04DE351E064E170E082E090E00E9405
:10108000180F21E04EE451E060E270E08FE090E064
:101090000E94180F21E04AE551E069E270E086E124
:1010A00090E00C94180FAF92BF92CF92DF92EF9224
:1010B000FF920F931F93CF93DF9300D000D01F9226
:1010C000CDB7DEB785E0EBE1F1E0DE0111960190EE
:1010D0000D928A95E1F78E010F5F1F4FC12CD12C25
:1010E00085E0A82EB12CE12CF12CF801808190E054
:1010F00095012E193F0902C0959587952A95E2F72B
:1011000080FF0FC06091090170910A016C0D7D1D77
:1011100080918F019091900141E08E0D9F1D0E9462
:10112000170DFFEFEF1AFF0A86E0E816F104E9F663
:10113000EFEFCE1ADE0A0F5F1F4FF5E0CF16D10496
:1011400091F60F900F900F900F900F90DF91CF912D
:101150001F910F91FF90EF90DF90CF90BF90AF90D5
:1011600008952F923F924F925F926F927F928F924B
:101170009F92AF92BF92CF92DF92EF92FF920F9326
:101180001F93CF93DF9300D000D01F92CDB7DEB76F
:1011900085E0E0E2F1E0DE01119601900D928A9582
:1011A000E1F78E010F5F1F4FC12CD12C85E0282E57
:1011B000312CE12CF12C46010D2C000CAA08BB08A7
:1011C000F801808190E091012E193F0902C09595A8
:1011D00087952A95E2F780FF2BC0C501B4010E94D4
:1011E000421420910F013091100140911101509152
:1011F00012010E9422130E940A142B013C01B70124
:101200000F2C000C880B990B0E94421420911301A3
:101210003091140140911501509116010E94221342
:101220000E940A14DC01CB0141E0B2010E94170DBB
:10123000FFEFEF1AFF0A86E0E816F10409F6EFEF78
:10124000CE1ADE0A0F5F1F4FF5E0CF16D10409F06A
:10125000B0CF0F900F900F900F900F90DF91CF9124
:101260001F910F91FF90EF90DF90CF90BF90AF90C4
:101270009F908F907F906F905F904F903F902F90B6
:1012800008950C949506CF92DF92EF92FF920F9300
:101290001F93CF93DF938C017B014C34B1F058F452
:1012A000443409F064C0C12CD12CC0E0D0E085E00A
:1012B000E80EF11C51C04235F1F0453509F057C038
:1012C000C12CD12CC0E0D0E035C0C12CD12CC0E065
:1012D000D0E0B6016E0D7F1DC8010E941007892B5A
:1012E00011F0C1E0D0E08FEFC81AD80A85E0C81627
:1012F000D10479F73EC0C12CD12CC0E0D0E00B5F07
:101300001F4FB6016E0D7F1DC8010E941007892B6B
:1013100011F0C1E0D0E08FEFC81AD80A85E0C816F6
:10132000D10479F726C08FEFC81AD80A85E0C8160D
:10133000D104F9F0B701C8018C0D9D1D0E94100762
:10134000892B89F3C1E0D0E0EECF8FEFC81AD80A1D
:1013500085E0C816D10469F0B701C8018C0D9D1D48
:101360000E941007892B89F3C1E0D0E0EECFC0E0E6
:10137000D0E0CE01DF91CF911F910F91FF90EF90C0
:10138000DF90CF900895AF92BF92CF92DF92EF920D
:10139000FF920F931F93CF93DF9300910901109158
:1013A0000A01E0908F01F0909001570184E0A80EAF
:1013B000B11C60910F017091100180911101909109
:1013C00012010E940A146B01EB0124966091130133
:1013D0007091140180911501909116010E940A14D8
:1013E0009B016C5F7F4F0C171D0729F0C801049605
:1013F0008C159D0539F46E157F05ACF0A216B30669
:1014000094F00CC0E616F70619F0A216B30651F4D4
:10141000C017D10744F08C159D052CF05E9A81E031
:1014200090E003C05E9880E090E0DF91CF911F9143
:101430000F91FF90EF90DF90CF90BF90AF90089505
:101440004F925F926F927F928F929F92AF92BF92D4
:10145000CF92DF92EF92FF920E94C309892B59F03D
:101460000E94E806809105019091060101979093F2
:1014700006018093050120918D0330918E034091E8
:101480008F0350919003609113017091140180912A
:101490001501909116010E9422134B015C010E94DC
:1014A000A3152B013C0120919101309192014091B3
:1014B00093015091940160910F01709110018091FE
:1014C0001101909112010E9422136B017C010E9474
:1014D000A3150E940A14695071096332710538F42A
:1014E000C301B2010E940A146F34710570F0FF90BD
:1014F000EF90DF90CF90BF90AF909F908F907F90B4
:101500006F905F904F900C9495068092130190928B
:101510001401A0921501B0921601C0920F01D09251
:101520001001E0921101F0921201FF90EF90DF9014
:10153000CF90BF90AF909F908F907F906F905F9073
:101540004F900895CF93DF930E94C309892B61F0D8
:101550000E94E80680910501909106010197909301
:1015600006018093050157C080917A01813051F4C2
:10157000C0910901D0910A01C930D1051CF0219711
:1015800045E50DC0809178018130B9F4C091090121
:10159000D0910A01CB32D10584F4219644E4BE01F6
:1015A00080918F01909190010E944309892B91F5C0
:1015B000D0930A01C09309012BC08091760181303C
:1015C00069F4C0918F01D0919001D7FD07C0219798
:1015D0006091090170910A014CE411C0809174017D
:1015E0008130C9F4C0918F01D0919001CE34D105E2
:1015F00094F421966091090170910A0142E5CE01AF
:101600000E944309892B31F4D0939001C0938F013C
:101610005E9801C05E9ADF91CF9108950F931F935A
:1016200021E043E651E060E070E080E090E00E945D
:10163000180F21E04AE360E070E08AE090E00E9449
:10164000B20E00E010E021E04091070160E08EE082
:101650000E94700221E046E651E060E070E085E122
:1016600090E00E94180F21E04AE360E070E08FE113
:1016700090E00E94B20E21E04091050160E083E21B
:101680000E94700221E049E651E060E070E08AE2E9
:1016900090E00E94180F21E04AE360E070E080E3F0
:1016A00090E00E94B20E21E040918D0160E084E361
:1016B0000E94700220E030E040E752E46091850132
:1016C0007091860180918701909188010E94311567
:1016D00087FD0DC0809184018F5F809384011092FB
:1016E000850110928601109287011092880121E0F5
:1016F0004091840160E08CE30E94F50121E04AE31F
:1017000060E070E086E490E00E94B20E6091850196
:101710007091860180918701909188010E940A143E
:10172000462F21E060E08AE40E94F50101E027E015
:1017300030E044E550E067E070E080E090E00E9437
:10174000500D1F910F910895FB019C0128503E4FB1
:10175000DC014D91CD014193A217B307C9F708955C
:1017600080918001811107C080917E0190917F015D
:101770008130910549F08091800190E090937F0144
:1017800080937E0180E090E00895CF92DF92EF9207
:10179000FF920F931F93CF93DF930E9429060E941D
:1017A0000E0B6091820170918301C6B5072E000C6B
:1017B000880B990B0E94421420E030E040E853E48B
:1017C0000E9436156B017C016C2F70E080E090E088
:1017D0000E9442149B01AC01C701B6010E94221372
:1017E00020E030E040E854E40E94361520E034E286
:1017F00044EF5AE40E949813C0918401D0E000E0C5
:1018000010E00C171D074CF420E030E040E752E4F4
:101810000E9421130F5F1F4FF4CF2091850130915B
:10182000860140918701509188010E9421136093A5
:10183000890170938A0180938B0190938C0121E040
:101840004BE651E064E170E08BE190E0DF91CF91F5
:101850001F910F91FF90EF90DF90CF900C94180F95
:10186000CF92DF92EF92FF920F931F93CF93DF936C
:101870000E94220465E971E081E194E00E94A40BDA
:101880000E940E0B6091820170918301C6B5072EF4
:10189000000C880B990B0E94421420E030E040E8D5
:1018A00053E40E9436156B017C016C2F70E080E0E0
:1018B00090E00E9442149B01AC01C701B6010E9456
:1018C000221320E030E040E854E40E94361520E086
:1018D00034E244EF5AE40E94981320918901309138
:1018E0008A0140918B0150918C010E942113C0917B
:1018F0008401D0E000E010E00C171D074CF420E05C
:1019000030E040E752E40E9421130F5F1F4FF4CFF5
:10191000609385017093860180938701909388017D
:10192000DF91CF911F910F91FF90EF90DF90CF90BB
:101930000C94200A80918001811110C080917E0159
:1019400090917F01019751F480910401811104C0AD
:1019500081E08093040102C0109204018091800113
:1019600090E090937F0180937E018091040181112A
:101970000C94C50B0C94300CE1E6F0E080E8808319
:1019800081E080838FE30E945B0F0E948B0F0E9497
:101990000F0D0E9480060E9475060E94B3020E94ED
:1019A0002F080C94FC0C0E940F0D0E949A0C0E94B0
:1019B000A20A0E9453080E94B1080C94FC0C0E94D9
:1019C000BC0C0E94B00B892BE1F3809182019091B5
:1019D00083010E94E3160E9495060E940C078FE186
:1019E0009EE40197F1F700C000000E94D30C8FEC39
:1019F00097E00197F1F7F7CFCF93DF9360E080E0B6
:101A00000E94980FC1E1D4E0699181E00E943D0FEE
:101A100086E0C930D807C1F7DF91CF910895E1E1A1
:101A2000F4E0119286E0E930F807D9F7089584359B
:101A30009105A8F56033710590F59B0173E035952C
:101A400027957A95E1F76770452BA1F044E5429F11
:101A5000F001439FF00D11248E0F9F1FFC01EF5EDC
:101A6000FB4F81E090E001C0880F6A95EAF7908112
:101A7000892B14C044E5429FF001439FF00D1124CF
:101A80008E0F9F1FFC01EF5EFB4F81E090E001C0D5
:101A9000880F6A95EAF7809590818923808308955D
:101AA0002F923F924F925F926F927F928F929F926E
:101AB000AF92BF92CF92DF92EF92FF920F931F935C
:101AC000CF93DF93CDB7DEB72E970FB6F894DEBF76
:101AD0000FBECDBF1C013B012A013A832983841725
:101AE000950771F57C836B8329813A8162167306B1
:101AF0009CF48B819C81281739070CF41AC1A8012A
:101B00006B817C81C1010E94170D2B813C812F5F6D
:101B10003F4F3C832B83E8CFAB81BC8129813A8145
:101B2000A217B3070CF405C1A8016B817C81C10128
:101B30000E94170D8B819C8101979C838B83D4CF4E
:101B400089819A816817790751F53A82298224148C
:101B500035049CF4A981BA814A165B060CF4E9C0ED
:101B6000A801B30189819A810E94170D29813A81C8
:101B70002F5F3F4F3A832983EACF29813A81241589
:101B800035050CF4D6C0A801B30189819A810E9461
:101B9000170DA981BA811197BA83A983D8CF4215AD
:101BA000530554F4872D69807A8069838A83922D46
:101BB000832D1A01492E582EB20162197309072E7E
:101BC000000C880B990B0E9442146F8378878987D9
:101BD0009A8769817A8166197709072E000C880B2C
:101BE000990B0E9442144B015C012F813885498575
:101BF0005A850E9498136B837C838D839E8320E09B
:101C000030E0A9010E94311587FF09C08B819C81BA
:101C1000AD81BE81B0588B839C83AD83BE83C12CC4
:101C2000D12C760120E030E0A9016F81788589858B
:101C30009A850E94311518160CF077C0421453048F
:101C40000CF477C0A801B301C1010E94170D2B81CC
:101C50003C814D815E81C701B6010E9422136B0158
:101C60007C0120E030E040E05FE30E94311587FF17
:101C700010C020E030E0A9016F81788589859A85C0
:101C80000E94311518160CF04CC09FEF291A390A22
:101C9000C9CF20E030E0A901C501B4010E9431158F
:101CA0001816CCF529813A812615370514F3A801B9
:101CB000B301C1010E94170DA1E0B0E0BC87AB8762
:101CC00020E030E0A901C501B4010E9431151816C9
:101CD00014F01C861B8621E030E03E872D8720E033
:101CE00030E0A901C501B4010E948E1387FD02C036
:101CF0001E861D868B859C85AD85BE858A1B9B0BAC
:101D0000680E791E20E030E040E85FE3C701B601CD
:101D10000E942113A4CF89819A81681679063CF626
:101D2000A8CFA1E02A1A31087DCF241435040CF085
:101D300089CF2E960FB6F894DEBF0FBECDBFDF91D0
:101D4000CF911F910F91FF90EF90DF90CF90BF90B8
:101D5000AF909F908F907F906F905F904F903F904B
:101D60002F9008952F923F924F925F926F927F92A1
:101D70008F929F92AF92BF92CF92DF92EF92FF929B
:101D80000F931F93CF93DF936C014B01190185E0F3
:101D9000489F20011124E12CF12C80EA481A5108B7
:101DA00066246394712CF201EE0DFF1DE453FE4F87
:101DB000E4912114310409F4E09500E010E0CE2F05
:101DC000D0E05601AE0CBF1CA301002E02C0440F90
:101DD000551F0A94E2F74C235D23002E02C055954F
:101DE00047950A94E2F7B401600F711FC5010E9484
:101DF000170D0F5F1F4F0830110531F78FEFE81AED
:101E0000F80A85E0E816F10471F6DF91CF911F9191
:101E10000F91FF90EF90DF90CF90BF90AF909F9089
:101E20008F907F906F905F904F903F902F9008958C
:101E3000CF92DF92EF92FF920F931F93CF93DF9396
:101E40007B018A016901D82FC0E0F801EC0FF11D78
:101E50004081442349F09601B7018D2F90E00E9404
:101E6000B20EDB5FCF5FF1CFDF91CF911F910F916A
:101E7000FF90EF90DF90CF90089525B12F7D30E255
:101E8000839FC0011124822B85B95F9887E090E081
:101E900070E08F989B01082E02C0359527950A9413
:101EA000E2F720FF02C02E9A01C02E988F9A019768
:101EB00080F75F9A0895CF93C82F579A249A259A4E
:101EC000269A879A2C985F9A2C9A61E280E00E9469
:101ED0003D0F6C2F606880E00E943D0F64E080E061
:101EE0000E943D0F63E180E00E943D0F6CE080E0C6
:101EF0000E943D0F60E280E00E943D0F6CE080E0B8
:101F00000E943D0F60E480E00E943D0F60E880E0A9
:101F1000CF910C943D0FCF93DF93C8EFD1E060E0F9
:101F200081E00E943D0F2197D1F7DF91CF91089575
:101F3000CF93C82F606480E00E943D0F6C2F6068D3
:101F400080E0CF910C943D0FA0E1B0E0EAEAFFE021
:101F50000C9447167C011B016A01FC011782168252
:101F6000838181FF44C39E012F5F3F4F3901F701F9
:101F70009381F10193FD859193FF81911F01882346
:101F800009F431C3853239F493FD859193FF819132
:101F90001F01853239F4B70190E00E94DC17560129
:101FA0006501E5CF10E0512C912CFFE1F915D8F037
:101FB0008B3279F038F4803279F08332A1F4F92D44
:101FC000F0612EC08D3261F0803369F4292D2160DB
:101FD0002DC0392D3260932E892D8460982E2AC011
:101FE000E92DE86015C097FC2DC020ED280F2A30A0
:101FF00088F496FE06C03AE0139F200D1124122F9C
:1020000019C08AE0589E200D1124522EE92DE0625D
:102010009E2E10C08E3231F496FCE5C2F92DF0648C
:102020009F2E08C08C3621F4292D2068922E02C0E4
:10203000883641F4F10193FD859193FF81911F0151
:102040008111B3CF9BEB980F933020F4992D9061C1
:10205000805E07C09BE9980F933008F066C1992D08
:102060009F7E96FF16E09F73992E853619F4906433
:10207000992E08C0863621F4392F3068932E02C07D
:102080001111115097FE07C01C3350F4442443949F
:10209000410E27E00BC0183038F027E017E005C0EC
:1020A00027E09CE3492E02C0212F412C560184E0F9
:1020B000A80EB11CF6016081718182819381042D8B
:1020C000A3010E94EE166C01F981FC87F0FF02C0AB
:1020D000F3FF06C091FC06C092FE06C000E205C0F8
:1020E0000DE203C00BE201C000E08C858C7019F09A
:1020F00001115AC29BC297FE10C04C0CFC85F4FF24
:1021000004C08A81813309F44A94141474F528E0D8
:10211000241578F588E0482E2CC096FC2AC0812F23
:1021200090E08C159D059CF03CEFC3163FEFD30665
:1021300074F0892D8068982E0AC0E2E0F0E0EC0F80
:10214000FD1FE10FF11D8081803319F41150111131
:10215000F4CF97FE0EC044244394410E812F90E0AB
:10216000C816D9062CF41C1904C04424439401C099
:1021700010E097FE06C01C141D0434F4C60101963D
:1021800005C085E090E002C081E090E00111019679
:10219000112331F0212F30E02F5F3F4F820F931F2B
:1021A000252D30E08217930714F4581A01C0512CE2
:1021B000892D897049F4552039F0B70180E290E00B
:1021C0000E94DC175A94F7CF002329F0B701802F23
:1021D00090E00E94DC1793FC09C0552039F0B7014C
:1021E00080E390E00E94DC175A94F7CF97FE4CC032
:1021F0004601D7FE02C0812C912CC601881999098D
:10220000F301E80FF91FFE87ED87960124193109C4
:10221000388B2F87012F10E01195019511093FEFA1
:102220008316930629F4B7018EE290E00E94DC1732
:10223000C814D9044CF08F8598898815990524F421
:10224000ED85FE85818101C080E3F1E08F1A910860
:102250002D853E852F5F3F4F3E872D878016910647
:102260002CF0B70190E00E94DC17D9CFC814D90434
:1022700041F49A81963320F4953319F43C8534FF68
:1022800081E3B70190E04EC08A81813319F09C85CB
:102290009F7E9C87B70190E00E94DC17111105C05A
:1022A00094FC18C085E690E017C0B7018EE290E07C
:1022B0000E94DC171E5F82E001E0080FF301E80FC7
:1022C000F11D8081B70190E00E94DC17802F01137F
:1022D000F3CFE6CF85E490E0B7010E94DC17D7FC8E
:1022E00006C0C114D10441F4EC85E4FF05C0D194CB
:1022F000C194D1088DE201C08BE2B70190E00E9449
:10230000DC1780E32AE0C216D1042CF08F5FFAE0DC
:10231000CF1AD108F7CFB70190E00E94DC17B701C0
:10232000C601C0960E94DC1754C1833631F0833752
:1023300079F0833509F056C020C0560132E0A30E73
:10234000B11CF6018081898301E010E0630112C0B5
:102350005601F2E0AF0EB11CF601C080D18096FEAE
:1023600003C0612F70E002C06FEF7FEFC6010E94D3
:10237000D1178C01F92DFF7714C0560122E0A20E6F
:10238000B11CF601C080D18096FE03C0612F70E0C1
:1023900002C06FEF7FEFC6010E94C6178C01F92DB6
:1023A000F0689F2EF3FD1AC0852D90E008171907DD
:1023B000A8F4B70180E290E00E94DC175A94F4CFB1
:1023C000F60197FC859197FE81916F01B70190E02E
:1023D0000E94DC1751105A94015011090115110582
:1023E00079F7F7C0843611F0893661F5560197FE0A
:1023F00009C024E0A20EB11CF601608171818281C6
:1024000093810AC0F2E0AF0EB11CF60160817181C8
:10241000072E000C880B990BF92DFF769F2E97FF46
:1024200009C090958095709561957F4F8F4F9F4F14
:10243000F0689F2E2AE030E0A3010E944818C82EC1
:10244000C6183FC0092D853721F40F7E2AE030E001
:102450001DC0097F8F3691F018F4883559F0C3C03C
:10246000803719F0883711F0BEC0006104FF09C041
:10247000046007C094FE08C0066006C028E030E093
:1024800005C020E130E002C020E132E0560107FF44
:1024900009C084E0A80EB11CF601608171818281BF
:1024A000938108C0F2E0AF0EB11CF601608171812A
:1024B00080E090E0A3010E944818C82EC6180F774C
:1024C000902E96FE0BC0092D0E7FC11650F494FE7F
:1024D0000AC092FC08C0092D0E7E05C0DC2C092D17
:1024E00003C0DC2C01C0D12E04FF0DC0FE01EC0D99
:1024F000F11D8081803311F4097E09C002FF06C0FE
:10250000D394D39404C0802F867809F0D39403FD2C
:1025100011C000FF06C01C2DD51480F4150D1D1927
:102520000DC0D51458F4B70180E290E00E94DC178A
:10253000D394F7CFD51410F45D1801C0512C04FFCB
:1025400010C0B70180E390E00E94DC1702FF17C0C3
:1025500001FD03C088E790E002C088E590E0B70184
:102560000CC0802F867859F001FF02C08BE201C0B9
:1025700080E207FD8DE2B70190E00E94DC17C116F2
:1025800038F4B70180E390E00E94DC171150F7CFD8
:10259000CA94F301EC0DF11D8081B70190E00E9417
:1025A000DC17C110F5CF15C0F4E0F51560F584E037
:1025B000581A93FE1FC0011127C02C8523FF2AC083
:1025C0000AEC10E0392D3071932EF80184918111BD
:1025D00024C0552009F4E4CCB70180E290E00E94C9
:1025E000DC175A94F6CFF7018681978126C08FEFCA
:1025F0009FEF23C0B70180E290E00E94DC175A945D
:102600005110F8CFD8CF512CB701802F90E00E9405
:10261000DC17D3CF0EEC10E0D5CF91108052B7016C
:1026200090E00E94DC170F5F1F4FCFCF23E02515EE
:1026300010F483E0BDCF512CC0CF6096E2E10C9442
:1026400063165058BB27AA270E9439130C94E31431
:102650000E94AA1438F00E94B11420F039F49F3F70
:1026600019F426F40C94A7140EF4E095E7FB0C94EF
:10267000A114E92F0E94081558F3BA1762077307CF
:102680008407950720F079F4A6F50C942A150EF42A
:10269000E0950B2EBA2FA02D0B01B90190010C0172
:1026A000CA01A0011124FF27591B99F0593F50F48A
:1026B000503E68F11A16F040A22F232F342F4427E2
:1026C000585FF3CF469537952795A795F0405395DA
:1026D000C9F77EF41F16BA0B620B730B840BBAF0AA
:1026E0009150A1F0FF0FBB1F661F771F881FC2F715
:1026F0000EC0BA0F621F731F841F48F48795779529
:102700006795B795F7959E3F08F0B0CF9395880FE2
:1027100008F09927EE0F9795879508950E947D14EC
:1027200008F481E008950E94BA14E3950C94F4141F
:102730000E94AC130C94E3140E94B11458F00E9450
:10274000AA1440F029F45F3F29F00C94A114511110
:102750000C942B150C94A7140E94081568F3992368
:10276000B1F3552391F3951B550BBB27AA2762178D
:102770007307840738F09F5F5F4F220F331F441F9A
:10278000AA1FA9F335D00E2E3AF0E0E832D09150CE
:102790005040E695001CCAF72BD0FE2F29D0660FBB
:1027A000771F881FBB1F261737074807AB07B0E8FE
:1027B00009F0BB0B802DBF01FF2793585F4F3AF004
:1027C0009E3F510578F00C94A1140C942B155F3F9B
:1027D000E4F3983ED4F3869577956795B795F7958A
:1027E0009F5FC9F7880F911D9695879597F9089572
:1027F000E1E0660F771F881FBB1F6217730784070E
:10280000BA0720F0621B730B840BBA0BEE1F88F71C
:10281000E09508950E9411146894B1110C942B1541
:1028200008950E94101588F09F5798F0B92F9927A6
:10283000B751B0F0E1F0660F771F881F991F1AF0AB
:10284000BA95C9F714C0B13091F00E942A15B1E0D1
:1028500008950C942A15672F782F8827B85F39F0D0
:10286000B93FCCF3869577956795B395D9F73EF444
:1028700090958095709561957F4F8F4F9F4F0895EC
:10288000E89409C097FB3EF490958095709561950A
:102890007F4F8F4F9F4F9923A9F0F92F96E9BB27C0
:1028A0009395F695879577956795B795F111F8CF3C
:1028B000FAF4BB0F11F460FF1BC06F5F7F4F8F4FA7
:1028C0009F4F16C0882311F096E911C0772321F09D
:1028D0009EE8872F762F05C0662371F096E8862F35
:1028E00070E060E02AF09A95660F771F881FDAF78C
:1028F000880F9695879597F90895990F0008550FB9
:10290000AA0BE0E8FEEF16161706E807F907C0F075
:1029100012161306E407F50798F0621B730B840B7D
:10292000950B39F40A2661F0232B242B252B21F457
:1029300008950A2609F4A140A6958FEF811D811DF7
:10294000089597F99F6780E870E060E008959FEF31
:1029500080EC089500240A94161617061806090636
:10296000089500240A941216130614060506089505
:102970000C94A7140E941015D8F3E894E0E0BB274C
:102980009F57F0F02AED3FE049EC06C0EE0FBB0F79
:10299000661F771F881F28F0B23A62077307840703
:1029A00028F0B25A620B730B840BE3959A9572F779
:1029B000803830F49A95BB0F661F771F881FD2F7B7
:1029C00090480C94EC15092E0394000C11F4882304
:1029D00052F0BB0F40F4BF2B11F460FF04C06F5FD7
:1029E0007F4F8F4F9F4F0895EF93E0FF07C0A2EAFC
:1029F0002AED3FE049EC5FEB0E9439130E94E3149B
:102A00000F90039401FC9058ECEAF0E00C94F81558
:102A100057FD9058440F551F59F05F3F71F047958F
:102A2000880F97FB991F61F09F3F79F08795089574
:102A3000121613061406551FF2CF4695F1DF08C093
:102A4000161617061806991FF1CF869571056105B0
:102A500008940895E894BB2766277727CB0197F958
:102A600008950E947D1408F48FEF08950E9449157F
:102A70000C94E3140E94AA1438F00E94B11420F0C0
:102A8000952311F00C94A1140C94A71411240C9408
:102A90002B150E94081570F3959FC1F3950F50E018
:102AA000551F629FF001729FBB27F00DB11D639F00
:102AB000AA27F00DB11DAA1F649F6627B00DA11DA6
:102AC000661F829F2227B00DA11D621F739FB00D4C
:102AD000A11D621F839FA00D611D221F749F3327BC
:102AE000A00D611D231F849F600D211D822F762F55
:102AF0006A2F11249F5750409AF0F1F088234AF032
:102B0000EE0FFF1FBB1F661F771F881F915050409D
:102B1000A9F79E3F510580F00C94A1140C942B153D
:102B20005F3FE4F3983ED4F3869577956795B79524
:102B3000F795E7959F5FC1F7FE2B880F911D96953E
:102B4000879597F908950E941015E8F09E37E8F0F0
:102B50009639B8F49E3848F4672F782F8827985F05
:102B6000F9CF86957795679593959539D0F3B62FDC
:102B7000B1706B0F711D811D20F487957795679556
:102B800093950C94CF150C94EA150C942B159F93E8
:102B90000E94BA140F9007FCEE5F0C94F414882383
:102BA00071F4772321F09850872B762F07C0662386
:102BB00011F499270DC09051862B70E060E02AF047
:102BC0009A95660F771F881FDAF7880F9695879575
:102BD00097F908959F3F31F0915020F487957795AC
:102BE0006795B795880F911D9695879597F90895E4
:102BF0009F938F937F936F93FF93EF939B01AC0110
:102C00000E943615EF91FF910E940C162F913F9173
:102C10004F915F910C943615DF93CF931F930F93D1
:102C2000FF92EF92DF927B018C01689406C0DA2E4E
:102C3000EF010E944915FE01E894A5912591359177
:102C400045915591A6F3EF010E943913FE019701BA
:102C5000A801DA9469F7DF90EF90FF900F911F9130
:102C6000CF91DF91089597FB072E16F4009407D0BB
:102C700077FD09D00E947E1607FC05D03EF49095A2
:102C800081959F4F0895709561957F4F08952F927C
:102C90003F924F925F926F927F928F929F92AF92EC
:102CA000BF92CF92DF92EF92FF920F931F93CF9339
:102CB000DF93CDB7DEB7CA1BDB0B0FB6F894DEBFD0
:102CC0000FBECDBF09942A88398848885F846E84F6
:102CD0007D848C849B84AA84B984C884DF80EE8040
:102CE000FD800C811B81AA81B981CE0FD11D0FB649
:102CF000F894DEBF0FBECDBFED010895AA1BBB1B2C
:102D000051E107C0AA1FBB1FA617B70710F0A61BEB
:102D1000B70B881F991F5A95A9F780959095BC010C
:102D2000CD0108958F929F92AF92BF92CF92DF9282
:102D3000EF92FF92CF93DF93EC01688179818A81D2
:102D40009B81611571058105910521F464E279ED9E
:102D50008BE597E02DE133EF41E050E00E94A618AB
:102D600049015A019B01AC01A7EAB1E40E94C518D0
:102D70006B017C01ACEEB4EFA50194010E94D31865
:102D8000DC01CB018C0D9D1DAE1DBF1DB7FF03C027
:102D90000197A109B04888839983AA83BB839F7751
:102DA000DF91CF91FF90EF90DF90CF90BF90AF90E9
:102DB0009F908F9008950E949216089587E191E068
:102DC0000E9492160895A0E0B0E0809317019093BE
:102DD0001801A0931901B0931A010895283008F042
:102DE00027E03327DA01990F311D87FD91600096A6
:102DF0006105710539F432602E5F3D9330E32A9509
:102E0000E1F708959F3F30F080387105610509F0C2
:102E10003C5F3C5F3D93913008F08068911DDF93EB
:102E2000CF931F930F93FF92EF92192F987F969550
:102E3000E92F96959695E90FFF27E45DFE4F9927B8
:102E40003327EE24FF24A701E70105900894079497
:102E500028F4360FE71EF81E491F511D660F771F15
:102E6000881F991F0694A1F70590079428F4E70E90
:102E7000F81E491F561FC11D770F881F991F661F17
:102E80000694A1F70590079428F4F80E491F561FE1
:102E9000C71FD11D880F991F661F771F0694A1F7C2
:102EA0000590079420F4490F561FC71FD81F990F8C
:102EB000661F771F881F0694A9F7849110951770D5
:102EC00041F0D695C79557954795F794E7941A958D
:102ED000C1F7E2EDF0E06894159015913591659198
:102EE000959105907FE27395E118F10A430B560B1B
:102EF000C90BD009C0F7E10CF11E431F561FC91FB3
:102F0000D01D7EF4703311F48A95E6CFE894015019
:102F100030F0080F0AF40027021708F4202F239539
:102F2000022F7A3328F079E37D932A95E9F710C0D0
:102F30007D932A9589F60694979567953795179509
:102F40001794E118F10A430B560BC90BD00998F0FE
:102F500023957E9173957A3308F070E37C93201368
:102F6000B8F77E9170617D9330F0839571E37D9326
:102F700070E32A95E1F71124EF90FF900F911F91D4
:102F8000CF91DF91992787FD90950895FC010590D9
:102F9000615070400110D8F7809590958E0F9F1F5B
:102FA0000895FC016150704001900110D8F78095A0
:102FB00090958E0F9F1F08950F931F93CF93DF93CC
:102FC000FB01238121FD03C08FEF9FEF2CC022FF67
:102FD00016C046815781248135814217530744F436
:102FE000A081B1819D012F5F3F4F318320838C935E
:102FF000268137812F5F3F4F3783268314C08B0193
:10300000EC01FB010084F185E02D0995892BE1F6A7
:10301000D80116968D919C911797019617969C93BF
:103020008E931697CE01DF91CF911F910F91089546
:10303000AEE0B0E0EEE1F8E10C9455160D891E8982
:103040008F89988D26E02C831A83098397FF02C00D
:1030500080E090E801979E838D83AE01455E5F4FCF
:10306000698D7A8DCE0101960E94A40F4D815E81FB
:1030700057FD0AC02F813885421753070CF49A0177
:10308000F801E20FF31F10822E96E4E00C94711603
:10309000FA01AA27283051F1203181F1E8946F9389
:1030A0006E7F6E5F7F4F8F4F9F4FAF4FB1E03ED02F
:1030B000B4E03CD0670F781F891F9A1FA11D680FCD
:1030C000791F8A1F911DA11D6A0F711D811D911D00
:1030D000A11D20D009F468943F912AE0269F112475
:1030E0003019305D3193DEF6CF010895462F4770D9
:1030F000405D4193B3E00FD0C9F7F6CF462F4F7034
:10310000405D4A3318F0495D31FD4052419302D091
:10311000A9F7EACFB4E0A695979587957795679537
:10312000BA95C9F700976105710508959B01AC0137
:103130000A2E06945795479537952795BA95C9F75E
:10314000620F731F841F951FA01D0895052E97FB06
:103150001EF400940E94BD1857FD07D00E94D81895
:1031600007FC03D04EF40C94BD1850954095309553
:1031700021953F4F4F4F5F4F0895909580957095E3
:1031800061957F4F8F4F9F4F08950E94FA18A59F1A
:10319000900DB49F900DA49F800D911D1124089552
:1031A000B7FF0C94C5180E94C518821B930B089595
:1031B000A1E21A2EAA1BBB1BFD010DC0AA1FBB1F3B
:1031C000EE1FFF1FA217B307E407F50720F0A21BAD
:1031D000B30BE40BF50B661F771F881F991F1A941A
:1031E00069F760957095809590959B01AC01BD0144
:1031F000CF010895A29FB001B39FC001A39F700D9E
:10320000811D1124911DB29F700D811D1124911DEE
:063210000895F894FFCFC1
:103216000AD7233C01050001000800CDCCCC3E00B6
:10322600001C4200009C4201000000151F040E0A0B
:1032360013131E0E0A25303264002566002564002D
:10324600546F6D2026204A657272792100484954D0
:103256002053573320544F205354415254004A614F
:103266006D65732053636F7474004E393934333689
:103276003138004C760048500053005041555345B4
:02328600440002
:00000001FF
