:100000000C94D6010C94F3010C94F3010C94F301BD
:100010000C94F3010C94F3010C94F3010C94F30190
:100020000C94F3010C94F3010C94F3010C94F30180
:100030000C94F3010C94F3010C94F3010C94F30170
:100040000C94F3010C94F3010C94F3010C94F30160
:100050000C94F3010C94F3010C94F3010C946212D0
:100060000C94F3010C94F3010C94F3010C94F30140
:100070000C94F3010C94F3010C94F3010C94F30130
:100080000C94F3010C94F3010C94F3010C94F30120
:100090000C94F3010C94F3010C94F3010C94F30110
:1000A0000C94F3010C94F3010C94F30105A84CCDCE
:1000B000B2D44EB93836A9020C50B9918688083CA2
:1000C000A6AAAA2ABE000000803F6E616E00696E7B
:1000D000660000407A10F35A00A0724E1809001012
:1000E000A5D4E80000E87648170000E40B540200AD
:1000F00000CA9A3B000000E1F505000080969800D8
:10010000000040420F000000A08601000000102700
:1001100000000000E8030000000064000000000090
:100120000A00000000000100000000002C76D888C2
:10013000DC674F0823DFC1DFAE59E1B1B796E5E3D5
:10014000E453C63AE651997696E8E6C28426EB89EE
:100150008C9B62ED407C6FFCEFBC9C9F40F2BAA58B
:100160006FA5F490055A2AF75C936B6CF9676DC123
:100170001BFCE0E40D47FEF520E6B500D0ED902E27
:100180000300943577050080841E080000204E0A85
:10019000000000C80C333333330F986E12831141C3
:1001A000EF8D2114893BE65516CFFEE6DB18D1848E
:1001B0004B381BF77C1D901DA4BBE42420328472B5
:1001C0005E228100C9F124ECA1E53D27000000007A
:1001D0000000005F00000007000700147F147F1478
:1001E000242A7F2A122313086462364955225000BC
:1001F00005030000001C2241000041221C001408DD
:100200003E081408083E080800503000000808089E
:100210000808006060000020100804023E514945B3
:100220003E00427F400042615149462141454B31E9
:100230001814127F1027454545393C4A4949300179
:10024000710905033649494936064949291E0036D0
:100250003600000056360000081422410014141421
:10026000141400412214080201510906324979414F
:100270003E7E1111117E7F494949363E414141225E
:100280007F4141221C7F494949417F090909013EBB
:100290004149497A7F0808087F00417F410020409A
:1002A000413F017F081422417F404040407F020CC3
:1002B000027F7F0408107F3E4141413E7F090909CA
:1002C000063E4151215E7F09192946464949493177
:1002D00001017F01013F4040403F1F2040201F3F60
:1002E0004038403F631408146307087008076151E1
:1002F000494543007F41410002040810200041416C
:100300007F0004020102044040404040000102041A
:100310000020545454787F4844443838444444209E
:10032000384444487F3854545418087E0901020C5C
:100330005252523E7F0804047800447D4000204021
:10034000443D007F1028440000417F40007C041899
:1003500004787C0804047838444444387C14141429
:1003600008081414187C7C080404084854545420C9
:10037000043F4440203C4040207C1C2040201C3C4A
:100380004030403C44281028440C5050503C4464B9
:10039000544C44000836410000007F000000413604
:1003A00008001008081008784641467811241FBE3E
:1003B000CFEFDAE0DEBFCDBF11E0A0E0B1E0E2EDCB
:1003C000FEE302C005900D92AE38B107D9F726E0E2
:1003D000AEE8B1E001C01D92A53EB207E1F70E9470
:1003E00049120C94671F0C940000DF92EF92FF9269
:1003F0000F931F93CF93DF93CDB7DEB72A970FB636
:10040000F894DEBF0FBECDBF082F162FD22E1F923D
:100410004F9387E391E09F938F931F928AE08F938E
:10042000CE0101967C019F938F930E94761E612FCF
:1004300070E02D2DA701802F90E00E9476150FB659
:10044000F894DEBF0FBECDBF2A960FB6F894DEBF7C
:100450000FBECDBFDF91CF911F910F91FF90EF9015
:10046000DF9008959B0177FF02C0295F3F4FE3E0D3
:1004700035952795EA95E1F7A4E5A29FF001A39FA2
:10048000F00D11244E0F5F1FFA01E80FF91F2081B4
:1004900030E0CB0168E070E00E94911CA90102C02D
:1004A000559547958A95E2F7CA0181709927089575
:1004B0000E943C1D60E570E00E94911C97FF03C004
:1004C00091958195910908950E943C1D60E370E02B
:1004D0000E94911C0B9797FF03C0919581959109FC
:1004E000089608956F927F928F929F92AF92BF92DB
:1004F000CF92DF92EF92FF920F931F93CF93DF93F0
:100500006C017B014A015901C0E0D0E0CA15DB054E
:10051000D4F400E010E03E016E0C7F1C08151905B4
:100520006CF44DEE54E0B301C601800F911F0E94A0
:100530003202892B29F40F5F1F4FF0CF2196E6CFAF
:1005400081E090E002C080E090E0DF91CF911F91C8
:100550000F91FF90EF90DF90CF90BF90AF909F9062
:100560008F907F906F900895FB019C0128503E4F23
:10057000DC014D91CD014193A217B307C9F708954E
:10058000DF92EF92FF920F931F93CF93DF93CDB73C
:10059000DEB764970FB6F894DEBF0FBECDBFD82E7E
:1005A000162F5F934F933F932F938CE391E09F938C
:1005B0008F931F9284E18F93CE0101967C019F93CC
:1005C0008F930E94761E612F70E0202FA7018D2D42
:1005D00090E00E9476150FB6F894DEBF0FBECDBF37
:1005E00064960FB6F894DEBF0FBECDBFDF91CF91FA
:1005F0001F910F91FF90EF90DF900895DF92EF929F
:10060000FF920F931F93CF93DF93CDB7DEB72A9757
:100610000FB6F894DEBF0FBECDBFE82EF62ED22E59
:100620000130110519F40E94F5011DC01F924F936E
:100630008FE391E09F938F931F928AE08F938E01B7
:100640000F5F1F4F1F930F930E94761E6F2D70E058
:100650002D2DA8018E2D90E00E9476150FB6F894EE
:10066000DEBF0FBECDBF2A960FB6F894DEBF0FBE19
:10067000CDBFDF91CF911F910F91FF90EF90DF9051
:1006800008958091110190911201019790931201A8
:10069000809311011092B2011092B10188E090E0B4
:1006A0009093160180931501089580E090E0ACE9E5
:1006B000B2E480931B0190931C01A0931D01B093A1
:1006C0001E0180E090E0ACE1B2E4809317019093CA
:1006D0001801A0931901B0931A0108958F929F9267
:1006E000AF92BF92CF92DF92EF92FF920E943C1D99
:1006F000BC01990F880B990B0E94A01A2BED3FE0CB
:1007000049E450E40E94941B9B01AC010E948019B3
:1007100020E03EEF4FEF56E40E94F6194B015C01DA
:100720000E94F119C0900401D0900501E0900601EB
:10073000F0900701A70196010E94941B6093270483
:10074000709328048093290490932A04C501B4016E
:100750000E94251C9B01AC01C701B6010E94941B9D
:1007600060932B0270932C0280932D0290932E02A3
:10077000FF90EF90DF90CF90BF90AF909F908F90C1
:100780000895CF92DF92EF92FF920F931F93CF9332
:10079000DF937C018B014C34F1F150F4443409F0C7
:1007A0006DC0C12CD12CC0E0D0E00C5F1F4F26C023
:1007B000423509F448C0453509F060C0C12CD12C40
:1007C000C0E0D0E04FE252E0B801C7018C0D9D1DA2
:1007D0000E943202892B11F0C1E0D0E08FEFC81ADD
:1007E000D80A85E0C816D10469F74AC08FEFC81A45
:1007F000D80A85E0C816D10409F442C04FE252E09D
:10080000B801C7018C0D9D1D0E943202892B71F326
:10081000C1E0D0E0EBCFC12CD12CC0E0D0E04FE262
:1008200052E0B601600F711FC7010E943202892B8E
:1008300011F0C1E0D0E08FEFC81AD80A85E0C816E1
:10084000D10469F71DC0C12CD12CC0E0D0E084E0F8
:10085000E80EF11C4FE252E0B601600F711FC701B4
:100860000E943202892B11F0C1E0D0E08FEFC81A4C
:10087000D80A85E0C816D10469F702C0C0E0D0E00C
:10088000CE01DF91CF911F910F91FF90EF90DF90FC
:10089000CF9008954F925F926F927F928F929F9226
:1008A000AF92BF92CF92DF92EF92FF920F931F937E
:1008B000CF93DF9300D000D0CDB7DEB7C09000015A
:1008C000D0900101E0900201F090030120E030E0BF
:1008D00040E251E4C701B6010E94941B2B013C0188
:1008E00020E030E040EA50E4C701B6010E94941BCA
:1008F00069837A838B839C8320E030E0A901C70160
:10090000B6010E94941BAB01BC01EFE4F4E080E06F
:1009100090E0A0E9B1E480839183A283B38380E077
:1009200090E0A0E7B1E484839583A683B78380E059
:1009300090E0A0E5B1E480879187A287B387812CFE
:10094000912C88ECA82E81E4B82E84869586A68604
:10095000B786408A518A628A738A89819A81AB817B
:10096000BC81848B958BA68BB78B80E090E0A0EA4E
:10097000B0E4808F918FA28FB38F80E090E0A0E2EF
:10098000B1E4848F958FA68FB78F80A291A2A2A287
:10099000B3A200E010E02CE032E404A315A326A3E8
:1009A00037A380A691A6A2A6B3A600E010E024E398
:1009B00032E404A715A726A737A740AA51AA62AA1E
:1009C00073AA44AB55AB66AB77AB10AE11AE12AEAB
:1009D00013AE84AF95AFA6AFB7AF00938F0410935B
:1009E0009004209391043093920480939304909305
:1009F0009404A0939504B093960400E010E020E7DF
:100A000032E4009397041093980420939904309350
:100A10009A0480939B0490939C04A0939D04B093AC
:100A20009E0440939F045093A0046093A10470938C
:100A3000A20420E030E040E751E4C701B6010E9483
:100A4000941BDC01CB01B0588093A3049093A404C1
:100A5000A093A504B093A60480E090E0A0E7B1E4E1
:100A60008093A7049093A804A093A904B093AA0428
:100A70001092AB041092AC041092AD041092AE042C
:100A800080E090E0A8E6B2E48093AF049093B004D5
:100A9000A093B104B093B2048092B3049092B404D2
:100AA000A092B504B092B60480E090E0A0E9B2E470
:100AB0008093B7049093B804A093B904B093BA0498
:100AC00080E090E0A0EFB1E48093BB049093BC047D
:100AD000A093BD04B093BE0489809A80AB80BC8093
:100AE000B7FAB094B7F8B0948092BF049092C00463
:100AF000A092C104B092C20420E030E040E651E48C
:100B0000C701B6010E94941B6093C3047093C40490
:100B10008093C5049093C60480E090E0A0E6B1E421
:100B20008093C7049093C804A093C904B093CA04E7
:100B300080E090E0A0EAB0E48093CB049093CC04F2
:100B4000A093CD04B093CE040F900F900F900F9010
:100B5000DF91CF911F910F91FF90EF90DF90CF9099
:100B6000BF90AF909F908F907F906F905F904F90CD
:100B700008954F925F926F927F928F929F92AF9261
:100B8000BF92CF92DF92EF92FF92CF93DF9300D08C
:100B900000D000D0CDB7DEB7843509F00CC1C090CD
:100BA0001701D0901801E0901901F0901A01C701C7
:100BB000B6010E94681A4B015C0140901B015090E5
:100BC0001C0160901D0170901E01C301B2010E94C2
:100BD000681A69837A838B839C834CE4B40189818E
:100BE0009A810E94C1030197A1F420E030E040E81F
:100BF0005FE3C301B2010E94801960931B017093EF
:100C00001C0180931D0190931E011D8221E02E8303
:100C10001DC042E5B40189819A810E94C1030197F8
:100C200099F420E030E040E85FE3C301B2010E94A4
:100C30007F1960931B0170931C0180931D01909399
:100C40001E0181E08D8301C01D821E8240901B0128
:100C500050901C0160901D0170901E01C301B201F3
:100C60000E94681A69837A838B839C8345E5B4016B
:100C700089819A810E94C10320E030E040E85FE36F
:100C8000019779F4C701B6010E948019609317019A
:100C9000709318018093190190931A0180E091E0FC
:100CA00021C0C701B6010E9480190E94681A44E45D
:100CB00089819A810E94C103019791F420E030E07C
:100CC00040E85FE3C701B6010E947F1960931701F6
:100CD000709318018093190190931A0181E001C06B
:100CE00080E090E02E81211107C02D81211104C0E8
:100CF000911102C08823B1F026960FB6F894DEBF9A
:100D00000FBECDBFDF91CF91FF90EF90DF90CF90DE
:100D1000BF90AF909F908F907F906F905F904F901B
:100D20000C946E03C0901701D0901801E090190147
:100D3000F0901A0120E030E040EC50E4C701B60129
:100D40000E94EC1987FD1FC020E030E044E352E42C
:100D5000C701B6010E948F1B1816ACF020E030E0EE
:100D600040E85FEBC301B2010E94EC1987FD0BC0A4
:100D700020E030E044EA52E4C301B2010E948F1B3C
:100D800018160CF09CC00E946E0326960FB6F894BD
:100D9000DEBF0FBECDBFDF91CF91FF90EF90DF9010
:100DA000CF90BF90AF909F908F907F906F905F900B
:100DB0004F900C9455038A3409F081C0E0901501DE
:100DC000F0901601C090B101D090B2014CE4B7018F
:100DD000C6010E94C103019759F48FEFC81AD80ABF
:100DE000D092B201C092B101198221E02D8313C0CB
:100DF00042E5B701C6010E94C103019751F481E0A9
:100E0000C81AD108D092B201C092B10121E0298361
:100E100001C019821D82C090B101D090B20145E598
:100E2000B701C6010E94C103019759F48FEFE81A78
:100E3000F80AF0921601E09215012D81222391F01B
:100E40003AC044E4B701C6010E94C103019739F4D6
:100E500081E0E81AF108F0921601E09215012D8167
:100E6000211125C080911501909116010897859751
:100E7000B0F026960FB6F894DEBF0FBECDBFDF915F
:100E8000CF91FF90EF90DF90CF90BF90AF909F9069
:100E90008F907F906F905F904F900C9441032FEF55
:100EA000C21AD20A81E5C816D10418F708C0898190
:100EB0008111DFCFD7CF29812111DBCFD3CF269668
:100EC0000FB6F894DEBF0FBECDBFDF91CF91FF907C
:100ED000EF90DF90CF90BF90AF909F908F907F90DA
:100EE0006F905F904F9008954F925F926F927F92B4
:100EF0008F929F92AF92BF92CF92DF92EF92FF922A
:100F00000F93CF93DF93CFE4D4E0C888D988EA88E1
:100F1000FB88A7019601688179818A819B810E9463
:100F20008019688379838A839B83A70196016885EA
:100F300079858A859B850E948019688779878A8749
:100F40009B87CC88DD88EE88FF88A70196016C819D
:100F50007D818E819F810E9480196C837D838E8329
:100F60009F83A70196016C857D858E859F850E9454
:100F700080196C877D878E879F878AE40E94B905D8
:100F800084E50E94B905C888D988EA88FB8820E0F2
:100F900030E0A901C701B6010E948F1B1816CCF5DD
:100FA000488059806A807B8020E030E048EA52E443
:100FB000C301B2010E948F1B87FD72C0C884D9840F
:100FC000EA84FB8420E030E048EA52E4C701B6013D
:100FD0000E948F1B87FD64C020E030E048EA52E4A5
:100FE000688D798D8A8D9B8D0E9480194B015C01E3
:100FF0009B01AC01C301B2010E947F196883798310
:101000008A839B83A5019401C701B6010E947F19C1
:1010100043C020E030E0A901C701B6010E94EC19ED
:1010200087FF3EC0488059806A807B8020E030E0A6
:10103000A901C301B2010E94EC1918168CF1888431
:101040009984AA84BB8420E030E0A901C501B401E1
:101050000E94EC19181624F1C88CD98CEA8CFB8CF0
:1010600020E030E048EA52E4C301B2010E94801956
:10107000A70196010E948019688379838A839B83E4
:1010800020E030E048EA52E4C501B4010E94801932
:10109000A70196010E948019688779878A879B87B4
:1010A000CC88DD88EE88FF8820E030E0A901C70108
:1010B000B6010E94EC1987FF3FC04C805D806E80B6
:1010C0007F8020E030E040E051E4C301B2010E94A3
:1010D000EC1918160CF475C08C849D84AE84BF8402
:1010E00020E030E040E051E4C501B4010E94EC1979
:1010F00018160CF466C0CC8CDD8CEE8CFF8C20E0D6
:1011000030E040E252E4C301B2010E948019A7011D
:1011100096010E9480196C837D838E839F8320E0DB
:1011200030E040E252E4C501B4010E948019A701F9
:1011300096010E94801941C020E030E0A901C7015A
:10114000B6010E948F1B1816E4F54C805D806E80FE
:101150007F8020E030E040E452E4C301B2010E940D
:101160008F1B87FD2EC0CC84DD84EE84FF8420E0BD
:1011700030E040E452E4C701B6010E948F1B87FDB6
:1011800020C020E030E044E252E46C8D7D8D8E8DF5
:101190009F8D0E9480194B015C019B01AC01C30132
:1011A000B2010E947F196C837D838E839F83A5018A
:1011B0009401C701B6010E947F196C877D878E87D5
:1011C0009F876C857D858E859F850E94681A2B017F
:1011D0003C01688579858A859B850E94681A4B0148
:1011E0005C016C817D818E819F810E94681A6B01F8
:1011F0007C01688179818A819B810E94681ADC0167
:10120000CB0101E09201A401B6010E94AE13A096A9
:1012100084E0CF3CD80709F078CEDF91CF910F91D1
:10122000FF90EF90DF90CF90BF90AF909F908F9006
:101230007F906F905F904F9008954F925F926F9262
:101240007F928F929F92AF92BF92CF92DF92EF9256
:10125000FF920F93CF93DF93CFE4D4E06C857D852D
:101260008E859F850E94681A2B013C0168857985CF
:101270008A859B850E94681A4B015C016C817D8187
:101280008E819F810E94681A6B017C01688179813F
:101290008A819B810E94681ADC01CB0101E09201E6
:1012A000A401B6010E94AE13A09684E0CF3CD807FB
:1012B000A9F6DF91CF910F91FF90EF90DF90CF9043
:1012C000BF90AF909F908F907F906F905F904F9066
:1012D000089585988698229A239A569A5198279825
:1012E0002198509820980895789414BC85E085BD85
:1012F00081E080936E0008951092A7011092A801DA
:101300001092A9011092AA011092A1011092A001BD
:101310000895EBE2F4E08BEF9FEF9183808393835A
:10132000828315821482369624E0E934F207A9F705
:101330000895EFECF4E08BEF9FEF9183808393832C
:10134000828315821482369624E0ED3EF207A9F7D7
:10135000089580E090E0ACE9B2E480931B019093A3
:101360001C01A0931D01B0931E0180E090E0ACE150
:10137000B2E48093170190931801A0931901B093E0
:101380001A011092B2011092B10188E090E090939E
:101390001601809315010C946E03E3EBF1E086EFE8
:1013A0009FEF918380839383828315821482369684
:1013B00022E0EB32F207A9F708950E947C090E940F
:1013C000A9090E9489090E9499090C94CD096F927C
:1013D0007F928F929F92AF92BF92CF92DF92EF92C5
:1013E000FF920F931F93CF93DF936090B1017090A2
:1013F000B20180901501909016016091AF0170913B
:10140000B001ABE2B4E020E030E014968D919C9105
:101410001597019709F042C07401E20EF31E40E0F7
:1014200050E08301040F151FEBE2F4E0C080D1808F
:1014300080E090E05601CFEFAC1ABC0AC016D1068E
:10144000B9F0A016B10679F4C281D381C80FD91FB3
:10145000CE15DF0541F4C481D581219721F4158291
:1014600014826F5F7F4F01968330910539F70CC06E
:10147000C281D381C80FD91FCE15DF0511F7C481F2
:10148000D5812197F1F6EBCF369684E0E934F80761
:1014900069F64F5F5F4F4530510519F62F5F3F4F9B
:1014A00016962530310509F0B0CF7093B0016093E6
:1014B000AF01DF91CF911F910F91FF90EF90DF90DF
:1014C000CF90BF90AF909F908F907F906F90089536
:1014D0006F927F928F929F92AF92BF92CF92DF9244
:1014E000EF92FF920F931F93CF93DF936090B10120
:1014F0007090B2018090150190901601A091110199
:10150000B0911201CFECD4E080E090E02C813D81DD
:1015100021303105D1F57401E80EF91E20E030E0EC
:101520005301A20EB31EEFECF4E0C080D18040E086
:1015300050E060E070E08601060F171FA016B106AC
:1015400081F402811381040F151F0E151F0549F444
:10155000048115810130110521F41582148211973F
:1015600005C06F5F7F4F6330710529F74F5F5F4F95
:1015700043305105F1F6369644E0ED3EF407A9F606
:101580002F5F3F4F2530310559F60196269685305D
:10159000910509F0BBCFB0931201A0931101DF9127
:1015A000CF911F910F91FF90EF90DF90CF90BF9060
:1015B000AF909F908F907F906F9008956F927F92E1
:1015C0008F929F92AF92BF92CF92DF92EF92FF9253
:1015D0000F931F93CF93DF93A090B101B090B2010E
:1015E000A0914904B0914A04809015019090160191
:1015F000E0914B04F0914C04C0911301D09114017F
:1016000020E030E03401620E731E80E090E085013E
:10161000080F191F40E050E07A01EE0EFF1E60E057
:1016200070E06D01C60ED71E0C151D0519F46E1461
:101630007F0431F06F5F7F4F6330710591F706C013
:10164000C2E0D0E0E6EFFFEFA6EFBFEF4F5F5F4FE6
:101650004430510509F7019685309105C1F62F5F99
:101660003F4F2530310571F6B0934A04A0934904E9
:10167000F0934C04E0934B04D0931401C0931301F6
:10168000DF91CF911F910F91FF90EF90DF90CF905E
:10169000BF90AF909F908F907F906F90089521E0C2
:1016A00042E451E064E070E08CE090E00E94761546
:1016B00021E04FE451E064E170E082E090E00E94BC
:1016C000761521E040E651E060E270E08FE090E0C6
:1016D0000E94761521E04CE651E069E270E086E177
:1016E00090E00C947615AF92BF92CF92DF92EF927A
:1016F000FF920F931F93CF93DF9300D000D01F92E0
:10170000CDB7DEB785E0E3E2F1E0DE0111960190AE
:101710000D928A95E1F78E010F5F1F4FC12CD12CDE
:1017200084E0A82EB12CE12CF12CF801808190E00E
:1017300095012E193F0902C0959587952A95E2F7E4
:1017400080FF0FC060911501709116016C0D7D1D19
:101750008091B1019091B20141E08E0D9F1D0E94D8
:101760007513FFEFEF1AFF0A85E0E816F104E9F6BA
:10177000EFEFCE1ADE0A0F5F1F4FF5E0CF16D10450
:1017800091F60F900F900F900F900F90DF91CF91E7
:101790001F910F91FF90EF90DF90CF90BF90AF908F
:1017A00008952F923F924F925F926F927F928F9205
:1017B0009F92AF92BF92CF92DF92EF92FF920F93E0
:1017C0001F93CF93DF9300D000D01F92CDB7DEB729
:1017D00085E0E8E2F1E0DE01119601900D928A9534
:1017E000E1F78E010F5F1F4FC12CD12C84E0282E12
:1017F000312CE12CF12C46010D2C000CAA08BB0861
:10180000F801808190E091012E193F0902C0959561
:1018100087952A95E2F780FF2BC0C501B4010E948D
:10182000A01A20911701309118014091190150918F
:101830001A010E9480190E94681A2B013C01B7010D
:101840000F2C000C880B990B0E94A01A20911B01F1
:1018500030911C0140911D0150911E010E94801980
:101860000E94681ADC01CB0141E0B2010E947513AD
:10187000FFEFEF1AFF0A85E0E816F10409F6EFEF33
:10188000CE1ADE0A0F5F1F4FF5E0CF16D10409F024
:10189000B0CF0F900F900F900F900F90DF91CF91DE
:1018A0001F910F91FF90EF90DF90CF90BF90AF907E
:1018B0009F908F907F906F905F904F903F902F9070
:1018C00008950C946E03AF92BF92CF92DF92EF9285
:1018D000FF920F931F93CF93DF9300911501109107
:1018E0001601E090B101F090B201570184E0A80E1A
:1018F000B11C6091170170911801809119019091AC
:101900001A010E94681A6B01EB01249660911B0179
:1019100070911C0180911D0190911E010E94681A16
:101920009B016C5F7F4F0C171D0729F0C8010496BF
:101930008C159D0539F46E157F05ACF0A216B30623
:1019400094F00CC0E616F70619F0A216B30651F48F
:10195000C017D10744F08C159D052CF05E9A81E0EC
:1019600090E003C05E9880E090E0DF91CF911F91FE
:101970000F91FF90EF90DF90CF90BF90AF900895C0
:101980004F925F926F927F928F929F92AF92BF928F
:10199000CF92DF92EF92FF9284E50E94B9050E94F8
:1019A000630C892B59F00E94A90980911101909133
:1019B0001201019790931201809311012091270445
:1019C000309128044091290450912A0460911B0110
:1019D00070911C0180911D0190911E010E9480193F
:1019E0004B015C010E94011C2B013C0120912B0248
:1019F00030912C0240912D0250912E0260911701DE
:101A0000709118018091190190911A010E9480191A
:101A10006B017C010E94011C0E94681A69507109C7
:101A20006332710548F4C301B2010E94681A615023
:101A300071096F34710570F0FF90EF90DF90CF90D7
:101A4000BF90AF909F908F907F906F905F904F90DE
:101A50000C946E0380921B0190921C01A0921D01B8
:101A6000B0921E01C0921701D0921801E0921901A4
:101A7000F0921A01FF90EF90DF90CF90BF90AF905F
:101A80009F908F907F906F905F904F900895CF932D
:101A9000DF930E94630C892B31F00E945503DF9184
:101AA000CF910C94410380919801813051F4C09101
:101AB0001501D0911601C930D1051CF0219745E5DB
:101AC0000DC0809196018130B9F4C0911501D0917B
:101AD0001601CB32D10584F4219644E4BE018091F5
:101AE000B1019091B2010E94C103892B89F5D09375
:101AF0001601C09315012CC080919401813071F4BE
:101B0000C091B101D091B2011C161D063CF4219781
:101B100060911501709116014CE411C08091920101
:101B20008130B1F4C091B101D091B201CF34D1056F
:101B30007CF42196609115017091160142E5CE0169
:101B40000E94C103892B21F4D093B201C093B1014B
:101B50000E94E709DF91CF910C94680A0F931F93BD
:101B60008091AF019091B00121E00A970CF048C03C
:101B700045E751E060E070E080E090E00E9476157B
:101B800021E04AE360E070E08AE090E00E941015F6
:101B900000E010E021E04091130160E08EE00E943F
:101BA000FE0221E048E751E060E070E085E190E06E
:101BB0000E94761521E04AE360E070E08FE190E05A
:101BC0000E94101521E04091110160E083E20E9423
:101BD000FE0221E04BE751E060E070E08AE290E035
:101BE0000E94761521E04AE360E070E080E390E037
:101BF0000E94101521E04091AF0160E084E32FC006
:101C00004DE751E060E070E080E090E00E947615E2
:101C100000E010E021E04091130160E089E00E94C3
:101C2000FE0221E040E851E060E070E081E190E0F8
:101C30000E94761521E04091110160E08AE10E9446
:101C4000FE0221E043E851E060E070E082E290E0D3
:101C50000E94761521E04091AF0160E08CE20E9485
:101C6000FE0220E030E040E752E46091A70170916D
:101C7000A8018091A9019091AA010E948F1B87FD64
:101C80000DC08091A6018F5F8093A6011092A701DD
:101C90001092A8011092A9011092AA0121E040918E
:101CA000A60160E08CE30E94F50121E04AE360E0D8
:101CB00070E086E490E00E9410156091A701709199
:101CC000A8018091A9019091AA010E94681A462F4B
:101CD00021E060E08AE40E94F50101E027E030E0C5
:101CE00044E550E067E070E080E090E00E94AE13D1
:101CF0001F910F9108950F931F93CF93DF930E942D
:101D00005802EC010E9464028C0125E030E044E0BE
:101D100050E0BC01CE010E947202892B81F7EBE2F8
:101D2000F4E080E090E024813581232B89F426E0E3
:101D3000289FF001299FF00D1124E55DFB4F81E004
:101D400090E095838483D183C0831383028305C08D
:101D5000019636968530910531F7DF91CF911F912D
:101D60000F910895CF93DF93EFECF4E080E090E0E3
:101D700024813581232B29F526E0289FE001299F26
:101D8000D00D1124C153DB4F81E090E09D838C8303
:101D900060911B0170911C0180911D0190911E01A9
:101DA0000E94681A79836883609117017091180105
:101DB0008091190190911A010E94681A7B836A83AD
:101DC00005C0019636968530910591F6DF91CF9149
:101DD00008950F931F93CF93DF930E9458028C01B5
:101DE0000E946402EC0124E030E044E050E0BC01D9
:101DF000C8010E947202892B81F710934A04009354
:101E00004904D0934C04C0934B0481E090E090933C
:101E10004E0480934D04DF91CF911F910F9108954F
:101E20006091A7017091A8018091A9019091AA01E8
:101E30000E94681AAB014E5F5F4F20910C013091F8
:101E40000D0142175307A9F46C5F7F4F70930D018A
:101E500060930C010E947B0E80910C0190910D010A
:101E60008034910534F084E090E090930D018093EC
:101E70000C010C94E7096091A7017091A801809171
:101E8000A9019091AA010E94681AAB014D5F5F4FB2
:101E9000209108013091090142175307A9F46A5FA4
:101EA0007F4F70930901609308010E94B20E8091E8
:101EB0000801909109018334910534F086E090E0A7
:101EC00090930901809308010C94680A7F928F9285
:101ED0009F92AF92BF92CF92DF92EF92FF920F93B9
:101EE0001F93CF93DF9300D01F92CDB7DEB76C0165
:101EF00080912D0190912E01A0912F0189839A83C9
:101F0000AB83CE0101967C018B015E0194E0A90EAA
:101F1000B11C4601EFEF8E1A9E0AF701708071FE28
:101F200005C041E0B801C6010E947513FFEFEF1A2A
:101F3000FF0A70FE05C041E0B801C4010E9475139C
:101F40000F5F1F4FEA14FB0441F70F900F900F90A3
:101F5000DF91CF911F910F91FF90EF90DF90CF9085
:101F6000BF90AF909F908F907F9008954F925F9217
:101F70006F927F928F929F92AF92BF92CF92DF9299
:101F8000EF92FF920F931F93CF93DF9300D01F9296
:101F9000CDB7DEB72C018091300190913101A09135
:101FA000320189839A83AB834E0184E0880E911CB1
:101FB0008E010F5F1F4F5B01A01AB10A720182E010
:101FC000C82ED12C3501600E711EF801808190E081
:101FD0000C2C02C0959587950A94E2F780FF05C006
:101FE00041E0B301C7010E947513F1E0CF1AD10897
:101FF0008FEFE81AF80AEFEFCE16DE0631F70F5F23
:102000001F4F08151905D1F60F900F900F90DF9113
:10201000CF911F910F91FF90EF90DF90CF90BF90E5
:10202000AF909F908F907F906F905F904F900895AA
:10203000AF92BF92CF92DF92EF92FF920F931F93D6
:10204000CF93DF9300D000D0CDB7DEB780914D04A1
:1020500090914E04019709F041C080913301909115
:102060003401A0913501B091360189839A83AB8305
:10207000BC83CE0101966C01E12CF12C82E0A82EEC
:10208000B12C00E010E0F601808190E09501201B6A
:10209000310B02C0959587952A95E2F780FF0FC016
:1020A00060914B0470914C046E0D7F1D809149042A
:1020B00090914A0441E0800F911F0E9475130F5FB9
:1020C0001F4F03301105F9F6FFEFEF1AFF0A8FEFEC
:1020D000C81AD80A94E0E916F10499F60F900F9007
:1020E0000F900F90DF91CF911F910F91FF90EF9084
:1020F000DF90CF90BF90AF900895CF93DF93CBE266
:10210000D4E08C819D81019731F46A817B81888143
:1021100099810E94660F269684E0C934D80789F712
:10212000DF91CF910895CF93DF93CFECD4E08C81F2
:102130009D81019731F46A817B81888199810E9418
:10214000B60F269684E0CD3ED80789F7DF91CF9170
:1021500008950895CF93DF93C3EBD1E08C819D81E7
:10216000019739F46A817B8141E0888199810E94DD
:102170007513269682E0CB32D80781F7DF91CF9195
:1021800008950895809190018091900190E090933E
:102190008F0180938E010C94AA10CF92DF92EF9260
:1021A000FF920F931F93CF93DF936091A0017091E3
:1021B000A101C6B5072E000C880B990B0E94A01A2E
:1021C00020E030E040E853E40E94941B6B017C0166
:1021D0006C2F70E080E090E00E94A01A9B01AC019F
:1021E000C701B6010E94801920E030E040E854E4C5
:1021F0000E94941B20E034E244EF5AE40E94F61956
:102200002091AB013091AC014091AD015091AE01F4
:102210000E947F19C091A601D0E000E010E00C17E9
:102220001D074CF420E030E040E752E40E947F19A3
:102230000F5F1F4FF4CF6093A7017093A8018093A5
:10224000A9019093AA01DF91CF911F910F91FF9067
:10225000EF90DF90CF900895CF92DF92EF92FF92B0
:102260000F931F93CF93DF936091A0017091A10111
:10227000C6B5072E000C880B990B0E94A01A20E00F
:1022800030E040E853E40E94941B6B017C016C2F0A
:1022900070E080E090E00E94A01A9B01AC01C701B1
:1022A000B6010E94801920E030E040E854E40E942A
:1022B000941B20E034E244EF5AE40E94F619C091E6
:1022C000A601D0E000E010E00C171D074CF420E060
:1022D00030E040E752E40E947F190F5F1F4FF4CFB8
:1022E0002091A7013091A8014091A9015091AA0124
:1022F0000E947F196093AB017093AC018093AD0194
:102300009093AE01DF91CF911F910F91FF90EF90CD
:10231000DF90CF90089580919E01811107C0809138
:102320009C0190919D018130910549F080919E0121
:1023300090E090939D0180939C0180E090E008954F
:102340000E941D090E94AE0D0E942C1121E046E85A
:1023500051E064E170E08BE190E00E9476150E940C
:10236000D10B0E94730B0E947D100E9493108091EC
:10237000AF019091B001059744F080914D04909188
:102380004E04892B11F40E94E90E0E9418100E943D
:10239000E7090C94680A8091130190911401029747
:1023A00019F40E94740702C00E941D096FE272E0D6
:1023B0008DEE94E00E94B4020E94AE0D0E94CD10FA
:1023C0000E94C00C0E94D10B0E94730B0E947D10D2
:1023D0000E9493108091AF019091B001059744F055
:1023E00080914D0490914E04892B11F40E94E90EC6
:1023F0000E9418100E94100F0E943B0F0E94E709D4
:102400000E94680A0C94DE0A80919E01811110C01E
:1024100080919C0190919D01019751F48091100150
:10242000811104C081E08093100102C0109210015C
:1024300080919E0190E090939D0180939C018091FA
:10244000100181110C94A0110C94CB11E1E6F0E085
:1024500080E8808381E080838FE30E94B9150E9429
:10246000E9150E946D130E9474090E9469090E9477
:102470004A040E944F0B0C945A130E946D130E9441
:1024800004120E94E7090E94680A0E94470D0C94FA
:102490005A130E9426120E948B11892BE1F380911E
:1024A000A0019091A1010E94411D0E946E030E9413
:1024B000DD098FE19EE40197F1F700C000000E9462
:1024C0003D12FDCF1F920F920FB60F9211248F93E2
:1024D0009F938091A0019091A10101969093A101F9
:1024E0008093A00180919F01880F80939F0180912C
:1024F0009B01880F80939B0180919901880F8093A5
:10250000990180919701880F80939701809195019F
:10251000880F8093950180919301880F8093930198
:1025200080919101880F8093910180919F01877024
:1025300080939F0180919B01877080939B01809184
:1025400099018370809399018091970183708093A2
:1025500097018091950183708093950180919301FB
:102560008370809393018091910187708093910192
:102570008FB190919F0185FB882780F9892B8093EB
:102580009F018FB190919B0186FB882780F9892B51
:1025900080939B0189B19091990186958170892BD7
:1025A0008093990183B190919701881F8827881F94
:1025B000892B8093970183B19091950186958170C5
:1025C000892B8093950189B1909193018170892B1A
:1025D0008093930183B1909191018170892B8093B5
:1025E000910180919F01873021F481E080939E01C9
:1025F00006C080919F01811102C010929E018091BE
:102600009B01873021F481E080939A0106C080917C
:102610009B01811102C010929A018091990183302F
:1026200021F481E08093980106C080919901811185
:1026300002C01092980180919701833021F481E0CB
:102640008093960106C080919701811102C010927B
:10265000960180919501833021F481E0809394016B
:1026600006C080919501811102C010929401809161
:102670009301833021F481E08093920106C0809120
:102680009301811102C010929201809191018330D7
:1026900021F481E08093900106C080919101811125
:1026A00002C0109290019F918F910F900FBE0F90DA
:1026B0001F901895CF93DF9360E080E00E94F6159D
:1026C000CDEED4E0699181E00E949B1586E0C53E85
:1026D000D807C1F7DF91CF910895EDEEF4E01192A4
:1026E00086E0E53EF807D9F7089584359105A8F509
:1026F0006033710590F59B0173E0359527957A95C8
:10270000E1F76770452BA1F044E5429FF001439F3C
:10271000F00D11248E0F9F1FFC01E351FB4F81E050
:1027200090E001C0880F6A95EAF79081892B14C068
:1027300044E5429FF001439FF00D11248E0F9F1F2F
:10274000FC01E351FB4F81E090E001C0880F6A95E6
:10275000EAF7809590818923808308952F923F9294
:102760004F925F926F927F928F929F92AF92BF92A1
:10277000CF92DF92EF92FF920F931F93CF93DF934D
:10278000CDB7DEB72E970FB6F894DEBF0FBECDBF24
:102790001C013B012A013A8329838417950771F5AF
:1027A0007C836B8329813A81621673069CF48B814A
:1027B0009C81281739070CF41AC1A8016B817C8110
:1027C000C1010E9475132B813C812F5F3F4F3C83D9
:1027D0002B83E8CFAB81BC8129813A81A217B30753
:1027E0000CF405C1A8016B817C81C1010E947513A5
:1027F0008B819C8101979C838B83D4CF89819A8123
:102800006817790751F53A822982241435049CF41B
:10281000A981BA814A165B060CF4E9C0A801B3018C
:1028200089819A810E94751329813A812F5F3F4FD8
:102830003A832983EACF29813A81241535050CF49E
:10284000D6C0A801B30189819A810E947513A9811C
:10285000BA811197BA83A983D8CF4215530554F48E
:10286000872D69807A8069838A83922D832D1A014E
:10287000492E582EB20162197309072E000C880BDD
:10288000990B0E94A01A6F83788789879A8769813C
:102890007A8166197709072E000C880B990B0E9424
:1028A000A01A4B015C012F81388549855A850E9409
:1028B000F6196B837C838D839E8320E030E0A90131
:1028C0000E948F1B87FF09C08B819C81AD81BE81D7
:1028D000B0588B839C83AD83BE83C12CD12C7601F1
:1028E00020E030E0A9016F81788589859A850E9472
:1028F0008F1B18160CF077C0421453040CF477C0E9
:10290000A801B301C1010E9475132B813C814D8147
:102910005E81C701B6010E9480196B017C0120E035
:1029200030E040E05FE30E948F1B87FF10C020E093
:1029300030E0A9016F81788589859A850E948F1B77
:1029400018160CF04CC09FEF291A390AC9CF20E0A5
:1029500030E0A901C501B4010E948F1B1816CCF507
:1029600029813A812615370514F3A801B301C10165
:102970000E947513A1E0B0E0BC87AB8720E030E097
:10298000A901C501B4010E948F1B181614F01C8602
:102990001B8621E030E03E872D8720E030E0A90152
:1029A000C501B4010E94EC1987FD02C01E861D8678
:1029B0008B859C85AD85BE858A1B9B0B680E791E19
:1029C00020E030E040E85FE3C701B6010E947F19D4
:1029D000A4CF89819A81681679063CF6A8CFA1E038
:1029E0002A1A31087DCF241435040CF089CF2E9695
:1029F0000FB6F894DEBF0FBECDBFDF91CF911F9110
:102A00000F91FF90EF90DF90CF90BF90AF909F908D
:102A10008F907F906F905F904F903F902F90089590
:102A20002F923F924F925F926F927F928F929F92DE
:102A3000AF92BF92CF92DF92EF92FF920F931F93CC
:102A4000CF93DF936C014B01190185E0489F200172
:102A50001124E12CF12C80EA481A51086624639471
:102A6000712CF201EE0DFF1DE453FE4FE491211491
:102A7000310409F4E09500E010E0CE2FD0E05601DB
:102A8000AE0CBF1CA301002E02C0440F551F0A94B8
:102A9000E2F74C235D23002E02C0559547950A941A
:102AA000E2F7B401600F711FC5010E9475130F5F3B
:102AB0001F4F0830110531F78FEFE81AF80A85E04B
:102AC000E816F10471F6DF91CF911F910F91FF90FD
:102AD000EF90DF90CF90BF90AF909F908F907F90BE
:102AE0006F905F904F903F902F900895CF92DF921C
:102AF000EF92FF920F931F93CF93DF937B018A0195
:102B00006901D82FC0E0F801EC0FF11D408144238A
:102B100049F09601B7018D2F90E00E941015DB5F00
:102B2000CF5FF1CFDF91CF911F910F91FF90EF9089
:102B3000DF90CF90089525B12F7D30E2839FC001B3
:102B40001124822B85B95F9887E090E070E08F9820
:102B50009B01082E02C0359527950A94E2F720FFC5
:102B600002C02E9A01C02E988F9A019780F75F9A23
:102B70000895CF93C82F579A249A259A269A879A10
:102B80002C985F9A2C9A61E280E00E949B156C2F32
:102B9000606880E00E949B1564E080E00E949B15C5
:102BA00063E180E00E949B156CE080E00E949B1531
:102BB00060E280E00E949B156CE080E00E949B1523
:102BC00060E480E00E949B1560E880E0CF910C9467
:102BD0009B15CF93DF93C8EFD1E060E081E00E94C6
:102BE0009B152197D1F7DF91CF910895CF93C82FEF
:102BF000606480E00E949B156C2F606880E0CF913C
:102C00000C949B15A0E1B0E0E8E0F6E10C94A51C63
:102C10007C011B016A01FC0117821682838181FFFE
:102C200044C39E012F5F3F4F3901F7019381F101AA
:102C300093FD859193FF81911F01882309F431C38E
:102C4000853239F493FD859193FF81911F0185327F
:102C500039F4B70190E00E943A1E56016501E5CFB4
:102C600010E0512C912CFFE1F915D8F08B3279F05E
:102C700038F4803279F08332A1F4F92DF0612EC05E
:102C80008D3261F0803369F4292D21602DC0392DFA
:102C90003260932E892D8460982E2AC0E92DE86039
:102CA00015C097FC2DC020ED280F2A3088F496FE21
:102CB00006C03AE0139F200D1124122F19C08AE09C
:102CC000589E200D1124522EE92DE0629E2E10C038
:102CD0008E3231F496FCE5C2F92DF0649F2E08C0C7
:102CE0008C3621F4292D2068922E02C0883641F4BA
:102CF000F10193FD859193FF81911F018111B3CF64
:102D00009BEB980F933020F4992D9061805E07C063
:102D10009BE9980F933008F066C1992D9F7E96FF2E
:102D200016E09F73992E853619F49064992E08C089
:102D3000863621F4392F3068932E02C011111150BC
:102D400097FE07C01C3350F444244394410E27E0FF
:102D50000BC0183038F027E017E005C027E09CE3EF
:102D6000492E02C0212F412C560184E0A80EB11C2F
:102D7000F6016081718182819381042DA3010E94FB
:102D80004C1D6C01F981FC87F0FF02C0F3FF06C007
:102D900091FC06C092FE06C000E205C00DE203C031
:102DA0000BE201C000E08C858C7019F001115AC251
:102DB0009BC297FE10C04C0CFC85F4FF04C08A81B6
:102DC000813309F44A94141474F528E0241578F535
:102DD00088E0482E2CC096FC2AC0812F90E08C15EC
:102DE0009D059CF03CEFC3163FEFD30674F0892D90
:102DF0008068982E0AC0E2E0F0E0EC0FFD1FE10FC2
:102E0000F11D8081803319F411501111F4CF97FE18
:102E10000EC044244394410E812F90E0C816D90679
:102E20002CF41C1904C04424439401C010E097FE04
:102E300006C01C141D0434F4C601019605C085E0CB
:102E400090E002C081E090E001110196112331F081
:102E5000212F30E02F5F3F4F820F931F252D30E051
:102E60008217930714F4581A01C0512C892D8970C8
:102E700049F4552039F0B70180E290E00E943A1EF3
:102E80005A94F7CF002329F0B701802F90E00E94D9
:102E90003A1E93FC09C0552039F0B70180E390E059
:102EA0000E943A1E5A94F7CF97FE4CC04601D7FEB7
:102EB00002C0812C912CC60188199909F301E80FF1
:102EC000F91FFE87ED87960124193109388B2F876A
:102ED000012F10E01195019511093FEF831693061C
:102EE00029F4B7018EE290E00E943A1EC814D9047A
:102EF0004CF08F8598898815990524F4ED85FE8519
:102F0000818101C080E3F1E08F1A91082D853E8513
:102F10002F5F3F4F3E872D87801691062CF0B7011B
:102F200090E00E943A1ED9CFC814D90441F49A8186
:102F3000963320F4953319F43C8534FF81E3B701CF
:102F400090E04EC08A81813319F09C859F7E9C87DA
:102F5000B70190E00E943A1E111105C094FC18C000
:102F600085E690E017C0B7018EE290E00E943A1E1D
:102F70001E5F82E001E0080FF301E80FF11D808180
:102F8000B70190E00E943A1E802F0113F3CFE6CFE5
:102F900085E490E0B7010E943A1ED7FC06C0C11438
:102FA000D10441F4EC85E4FF05C0D194C194D1086B
:102FB0008DE201C08BE2B70190E00E943A1E80E3EF
:102FC0002AE0C216D1042CF08F5FFAE0CF1AD108A4
:102FD000F7CFB70190E00E943A1EB701C601C09634
:102FE0000E943A1E54C1833631F0833779F083351D
:102FF00009F056C020C0560132E0A30EB11CF60104
:103000008081898301E010E0630112C05601F2E083
:10301000AF0EB11CF601C080D18096FE03C0612FB7
:1030200070E002C06FEF7FEFC6010E942F1E8C017F
:10303000F92DFF7714C0560122E0A20EB11CF60153
:10304000C080D18096FE03C0612F70E002C06FEF98
:103050007FEFC6010E94241E8C01F92DF0689F2E7F
:10306000F3FD1AC0852D90E008171907A8F4B701E1
:1030700080E290E00E943A1E5A94F4CFF60197FC49
:10308000859197FE81916F01B70190E00E943A1EF1
:1030900051105A94015011090115110579F7F7C023
:1030A000843611F0893661F5560197FE09C024E097
:1030B000A20EB11CF60160817181828193810AC0E8
:1030C000F2E0AF0EB11CF60160817181072E000C99
:1030D000880B990BF92DFF769F2E97FF09C09095CD
:1030E0008095709561957F4F8F4F9F4FF0689F2E11
:1030F0002AE030E0A3010E94A61EC82EC6183FC0D9
:10310000092D853721F40F7E2AE030E01DC0097FAC
:103110008F3691F018F4883559F0C3C0803719F014
:10312000883711F0BEC0006104FF09C0046007C009
:1031300094FE08C0066006C028E030E005C020E12B
:1031400030E002C020E132E0560107FF09C084E010
:10315000A80EB11CF601608171818281938108C043
:10316000F2E0AF0EB11CF6016081718180E090E069
:10317000A3010E94A61EC82EC6180F77902E96FE99
:103180000BC0092D0E7FC11650F494FE0AC092FCAC
:1031900008C0092D0E7E05C0DC2C092D03C0DC2CD7
:1031A00001C0D12E04FF0DC0FE01EC0DF11D808188
:1031B000803311F4097E09C002FF06C0D394D39472
:1031C00004C0802F867809F0D39403FD11C000FF5E
:1031D00006C01C2DD51480F4150D1D190DC0D51475
:1031E00058F4B70180E290E00E943A1ED394F7CFE2
:1031F000D51410F45D1801C0512C04FF10C0B701A4
:1032000080E390E00E943A1E02FF17C001FD03C058
:1032100088E790E002C088E590E0B7010CC0802FFD
:10322000867859F001FF02C08BE201C080E207FD01
:103230008DE2B70190E00E943A1EC11638F4B70142
:1032400080E390E00E943A1E1150F7CFCA94F30138
:10325000EC0DF11D8081B70190E00E943A1EC11073
:10326000F5CF15C0F4E0F51560F584E0581A93FE2B
:103270001FC0011127C02C8523FF2AC00AEC10E0D3
:10328000392D3071932EF8018491811124C055207D
:1032900009F4E4CCB70180E290E00E943A1E5A940F
:1032A000F6CFF7018681978126C08FEF9FEF23C06D
:1032B000B70180E290E00E943A1E5A945110F8CF74
:1032C000D8CF512CB701802F90E00E943A1ED3CF67
:1032D0000EEC10E0D5CF91108052B70190E00E9423
:1032E0003A1E0F5F1F4FCFCF23E0251510F483E068
:1032F000BDCF512CC0CF6096E2E10C94C11C505858
:10330000BB27AA270E9497190C94411B0E94081BF7
:1033100038F00E940F1B20F039F49F3F19F426F477
:103320000C94051B0EF4E095E7FB0C94FF1AE92FB3
:103330000E94661B58F3BA17620773078407950744
:1033400020F079F4A6F50C94881B0EF4E0950B2E72
:10335000BA2FA02D0B01B90190010C01CA01A001E7
:103360001124FF27591B99F0593F50F4503E68F142
:103370001A16F040A22F232F342F4427585FF3CF83
:10338000469537952795A795F0405395C9F77EF454
:103390001F16BA0B620B730B840BBAF09150A1F09D
:1033A000FF0FBB1F661F771F881FC2F70EC0BA0F23
:1033B000621F731F841F48F4879577956795B795AB
:1033C000F7959E3F08F0B0CF9395880F08F09927A6
:1033D000EE0F9795879508950E94DB1A08F481E017
:1033E00008950E94181BE3950C94521B0E940A1A20
:1033F0000C94411B0E940F1B58F00E94081B40F0C8
:1034000029F45F3F29F00C94FF1A51110C94891B89
:103410000C94051B0E94661B68F39923B1F3552396
:1034200091F3951B550BBB27AA27621773078407D7
:1034300038F09F5F5F4F220F331F441FAA1FA9F36D
:1034400035D00E2E3AF0E0E832D091505040E6955B
:10345000001CCAF72BD0FE2F29D0660F771F881FBC
:10346000BB1F261737074807AB07B0E809F0BB0BAF
:10347000802DBF01FF2793585F4F3AF09E3F5105C3
:1034800078F00C94FF1A0C94891B5F3FE4F3983E8C
:10349000D4F3869577956795B795F7959F5FC9F7AC
:1034A000880F911D9695879597F90895E1E0660F2D
:1034B000771F881FBB1F621773078407BA0720F0A6
:1034C000621B730B840BBA0BEE1F88F7E09508950F
:1034D0000E946F1A6894B1110C94891B08950E9480
:1034E0006E1B88F09F5798F0B92F9927B751B0F00D
:1034F000E1F0660F771F881F991F1AF0BA95C9F778
:1035000014C0B13091F00E94881BB1E008950C9472
:10351000881B672F782F8827B85F39F0B93FCCF325
:10352000869577956795B395D9F73EF490958095F4
:10353000709561957F4F8F4F9F4F0895E89409C014
:1035400097FB3EF490958095709561957F4F8F4FD6
:103550009F4F9923A9F0F92F96E9BB279395F695EC
:10356000879577956795B795F111F8CFFAF4BB0F6A
:1035700011F460FF1BC06F5F7F4F8F4F9F4F16C0CE
:10358000882311F096E911C0772321F09EE8872F58
:10359000762F05C0662371F096E8862F70E060E014
:1035A0002AF09A95660F771F881FDAF7880F96958D
:1035B000879597F90895990F0008550FAA0BE0E831
:1035C000FEEF16161706E807F907C0F012161306E5
:1035D000E407F50798F0621B730B840B950B39F425
:1035E0000A2661F0232B242B252B21F408950A268B
:1035F00009F4A140A6958FEF811D811D089597F9CB
:103600009F6780E870E060E008959FEF80EC089588
:1036100000240A94161617061806090608950024B1
:103620000A94121613061406050608950C94051B39
:103630000E946E1BD8F3E894E0E0BB279F57F0F0A0
:103640002AED3FE049EC06C0EE0FBB0F661F771F67
:10365000881F28F0B23A62077307840728F0B25A2D
:10366000620B730B840BE3959A9572F7803830F4F4
:103670009A95BB0F661F771F881FD2F790480C944E
:103680004A1C092E0394000C11F4882352F0BB0F3E
:1036900040F4BF2B11F460FF04C06F5F7F4F8F4F6A
:1036A0009F4F0895EF93E0FF07C0A2EA2AED3FE0A5
:1036B00049EC5FEB0E9497190E94411B0F90039405
:1036C00001FC9058ECEAF0E00C94561C57FD905821
:1036D000440F551F59F05F3F71F04795880F97FBD6
:1036E000991F61F09F3F79F0879508951216130690
:1036F0001406551FF2CF4695F1DF08C016161706BF
:103700001806991FF1CF86957105610508940895F3
:10371000E894BB2766277727CB0197F908950E9485
:10372000DB1A08F48FEF08950E94A71B0C94411B2D
:103730000E94081B38F00E940F1B20F0952311F007
:103740000C94FF1A0C94051B11240C94891B0E94E5
:10375000661B70F3959FC1F3950F50E0551F629F54
:10376000F001729FBB27F00DB11D639FAA27F00DDA
:10377000B11DAA1F649F6627B00DA11D661F829F01
:103780002227B00DA11D621F739FB00DA11D621FE6
:10379000839FA00D611D221F749F3327A00D611D03
:1037A000231F849F600D211D822F762F6A2F1124E5
:1037B0009F5750409AF0F1F088234AF0EE0FFF1F18
:1037C000BB1F661F771F881F91505040A9F79E3F6F
:1037D000510580F00C94FF1A0C94891B5F3FE4F3B1
:1037E000983ED4F3869577956795B795F795E795C5
:1037F0009F5FC1F7FE2B880F911D9695879597F9CE
:1038000008950E946E1BE8F09E37E8F09639B8F4F0
:103810009E3848F4672F782F8827985FF9CF8695D0
:103820007795679593959539D0F3B62FB1706B0F57
:10383000711D811D20F487957795679593950C945C
:103840002D1C0C94481C0C94891B9F930E94181BE0
:103850000F9007FCEE5F0C94521B882371F47723C2
:1038600021F09850872B762F07C0662311F49927F3
:103870000DC09051862B70E060E02AF09A95660F9B
:10388000771F881FDAF7880F9695879597F908951F
:103890009F3F31F0915020F4879577956795B795C4
:1038A000880F911D9695879597F908959F938F930B
:1038B0007F936F93FF93EF939B01AC010E94941B46
:1038C000EF91FF910E946A1C2F913F914F915F9160
:1038D0000C94941BDF93CF931F930F93FF92EF925F
:1038E000DF927B018C01689406C0DA2EEF010E9402
:1038F000A71BFE01E894A59125913591459155911D
:10390000A6F3EF010E949719FE019701A801DA942E
:1039100069F7DF90EF90FF900F911F91CF91DF91AA
:10392000089597FB072E16F4009407D077FD09D071
:103930000E94DC1C07FC05D03EF4909581959F4FBA
:103940000895709561957F4F08952F923F924F9201
:103950005F926F927F928F929F92AF92BF92CF921F
:10396000DF92EF92FF920F931F93CF93DF93CDB728
:10397000DEB7CA1BDB0B0FB6F894DEBF0FBECDBFA0
:1039800009942A88398848885F846E847D848C8471
:103990009B84AA84B984C884DF80EE80FD800C817A
:1039A0001B81AA81B981CE0FD11D0FB6F894DEBF5D
:1039B0000FBECDBFED010895AA1BBB1B51E107C08F
:1039C000AA1FBB1FA617B70710F0A61BB70B881FAF
:1039D000991F5A95A9F780959095BC01CD0108953E
:1039E0008F929F92AF92BF92CF92DF92EF92FF920F
:1039F000CF93DF93EC01688179818A819B81611586
:103A000071058105910521F464E279ED8BE597E07C
:103A10002DE133EF41E050E00E94041F49015A01BB
:103A20009B01AC01A7EAB1E40E94231F6B017C015A
:103A3000ACEEB4EFA50194010E94311FDC01CB0173
:103A40008C0D9D1DAE1DBF1DB7FF03C00197A109C1
:103A5000B04888839983AA83BB839F77DF91CF91F6
:103A6000FF90EF90DF90CF90BF90AF909F908F909E
:103A700008950E94F01C08958FE191E00E94F01CCF
:103A80000895A0E0B0E080931F0190932001A093DF
:103A90002101B09322010895283008F027E0332750
:103AA000DA01990F311D87FD91600096610571055E
:103AB00039F432602E5F3D9330E32A95E1F70895A3
:103AC0009F3F30F080387105610509F03C5F3C5F35
:103AD0003D93913008F08068911DDF93CF931F9341
:103AE0000F93FF92EF92192F987F9695E92F969555
:103AF0009695E90FFF27E45DFE4F99273327EE24C3
:103B0000FF24A701E70105900894079428F4360FD5
:103B1000E71EF81E491F511D660F771F881F991F4A
:103B20000694A1F70590079428F4E70EF81E491FA4
:103B3000561FC11D770F881F991F661F0694A1F796
:103B40000590079428F4F80E491F561FC71FD11D72
:103B5000880F991F661F771F0694A1F70590079499
:103B600020F4490F561FC71FD81F990F661F771FD4
:103B7000881F0694A9F784911095177041F0D69587
:103B8000C79557954795F794E7941A95C1F7E2EDD5
:103B9000F0E0689415901591359165919591059097
:103BA0007FE27395E118F10A430B560BC90BD0095C
:103BB000C0F7E10CF11E431F561FC91FD01D7EF434
:103BC000703311F48A95E6CFE894015030F0080F75
:103BD0000AF40027021708F4202F2395022F7A33C6
:103BE00028F079E37D932A95E9F710C07D932A9513
:103BF00089F6069497956795379517951794E11868
:103C0000F10A430B560BC90BD00998F023957E910E
:103C100073957A3308F070E37C932013B8F77E91A4
:103C200070617D9330F0839571E37D9370E32A9505
:103C3000E1F71124EF90FF900F911F91CF91DF9149
:103C4000992787FD90950895FC010590615070407B
:103C50000110D8F7809590958E0F9F1F0895FC0155
:103C60006150704001900110D8F7809590958E0FAB
:103C70009F1F08950F931F93CF93DF93FB01238121
:103C800021FD03C08FEF9FEF2CC022FF16C046819D
:103C90005781248135814217530744F4A081B181B3
:103CA0009D012F5F3F4F318320838C932681378185
:103CB0002F5F3F4F3783268314C08B01EC01FB013C
:103CC0000084F185E02D0995892BE1F6D80116963F
:103CD0008D919C911797019617969C938E931697AA
:103CE000CE01DF91CF911F910F910895AEE0B0E02A
:103CF000ECE7FEE10C94B31C0D891E898F89988D29
:103D000026E02C831A83098397FF02C080E090E8A5
:103D100001979E838D83AE01455E5F4F698D7A8DDD
:103D2000CE0101960E9402164D815E8157FD0AC0A8
:103D30002F813885421753070CF49A01F801E20FDE
:103D4000F31F10822E96E4E00C94CF1CFA01AA27F0
:103D5000283051F1203181F1E8946F936E7F6E5FCE
:103D60007F4F8F4F9F4FAF4FB1E03ED0B4E03CD07C
:103D7000670F781F891F9A1FA11D680F791F8A1F5F
:103D8000911DA11D6A0F711D811D911DA11D20D0C6
:103D900009F468943F912AE0269F11243019305D80
:103DA0003193DEF6CF010895462F4770405D419371
:103DB000B3E00FD0C9F7F6CF462F4F70405D4A33BE
:103DC00018F0495D31FD4052419302D0A9F7EACF86
:103DD000B4E0A6959795879577956795BA95C9F7B5
:103DE00000976105710508959B01AC010A2E0694A8
:103DF0005795479537952795BA95C9F7620F731F61
:103E0000841F951FA01D0895052E97FB1EF4009496
:103E10000E941B1F57FD07D00E94361F07FC03D0CE
:103E20004EF40C941B1F50954095309521953F4FB3
:103E30004F4F5F4F089590958095709561957F4F96
:103E40008F4F9F4F08950E94581FA59F900DB49FBC
:103E5000900DA49F800D911D11240895B7FF0C941F
:103E6000231F0E94231F821B930B0895A1E21A2E89
:103E7000AA1BBB1BFD010DC0AA1FBB1FEE1FFF1F0E
:103E8000A217B307E407F50720F0A21BB30BE40B5E
:103E9000F50B661F771F881F991F1A9469F76095A5
:103EA0007095809590959B01AC01BD01CF0108955F
:103EB000A29FB001B39FC001A39F700D811D11246B
:103EC000911DB29F700D811D1124911D0895F894CC
:023ED000FFCF22
:103ED2000AD7233C0000803F0600050004000500CD
:103EE2000105000100080000001C4200009C420184
:103EF200000000151F040E0A13131E0E0A0302030C
:103F020005020507050507253032640025660025F0
:103F12006400546F6D2026204A6572727921004830
:103F220049542053573320544F2053544152540084
:103F32004A616D65732053636F7474004E3939346E
:103F420033363138004C760048500053004C3A006A
:0E3F5200483A00533A00504155534544000090
:00000001FF
