:100000000C947C020C9499020C9499020C94990221
:100010000C9499020C9499020C9499020C949902F4
:100020000C9499020C9499020C94121A0C944C1A88
:100030000C9499020C9499020C9499020C949902D4
:100040000C9499020C9499020C9499020C949902C4
:100050000C9499020C9499020C9499020C949816A1
:100060000C9499020C9499020C9499020C949902A4
:100070000C9499020C9499020C9499020C94990294
:100080000C9499020C9499020C9499020C94990284
:100090000C9499020C9499020C9499020C94990274
:1000A0000C9499020C9499020C949902B319AF190B
:1000B000AB19A719A3199F199B19971993198F1990
:1000C0008B19871983197F197B19771973196F1980
:1000D0006B19671963195F195B19571953194F1970
:1000E0004B19471943193F193B19371933192F1960
:1000F0002B19271923191F191B19171913190F1950
:100100000B1907190319FF18FB18F718F318EF1844
:10011000EB18E718E318DF18DB18D718D318CF1837
:10012000CB18C718C318BF18BB18B718B31805A841
:100130004CCDB2D44EB93836A9020C50B99186884C
:10014000083CA6AAAA2ABE000000803F6E616E008D
:10015000696E660000407A10F35A00A0724E1809CA
:100160000010A5D4E80000E87648170000E40B541E
:10017000020000CA9A3B000000E1F50500008096ED
:100180009800000040420F000000A086010000001F
:10019000102700000000E8030000000064000000D9
:1001A00000000A00000000000100000000002C76A2
:1001B000D888DC674F0823DFC1DFAE59E1B1B796BD
:1001C000E5E3E453C63AE651997696E8E6C284261A
:1001D000EB898C9B62ED407C6FFCEFBC9C9F40F2F6
:1001E000BAA56FA5F490055A2AF75C936B6CF96772
:1001F0006DC11BFCE0E40D47FEF520E6B500D0ED37
:10020000902E0300943577050080841E080000209E
:100210004E0A000000C80C333333330F986E12833C
:100220001141EF8D2114893BE65516CFFEE6DB1810
:10023000D1844B381BF77C1D901DA4BBE4242032D5
:1002400084725E228100C9F124ECA1E53D27000102
:100250000000FB021200020000B80243000300008D
:10026000B40204010309049E021402030904860275
:10027000160303090478020C0C033100320033002A
:1002800034003500000016035500530042002000E2
:10029000530065007200690061006C0000001403E7
:1002A00059006F007500720020004E0061006D0063
:1002B000650000000403090409024300020100C0B4
:1002C00032090400000102020100052400100105AA
:1002D0002401010104240206052406000107058209
:1002E0000310004009040100020A00000007050392
:1002F00002400000070584024000001201000202D3
:10030000000010C0167A040001010203010001C1BF
:1003100012018036018136000000000000005F00FD
:10032000000007000700147F147F14242A7F2A127C
:10033000231308646236495522500005030000006B
:100340001C2241000041221C0014083E0814080829
:100350003E080800503000000808080808006060E7
:10036000000020100804023E5149453E00427F40F3
:100370000042615149462141454B311814127F100A
:1003800027454545393C4A4949300171090503363D
:1003900049494936064949291E00363600000056AB
:1003A00036000008142241001414141414004122D1
:1003B00014080201510906324979413E7E1111119A
:1003C0007E7F494949363E414141227F4141221CBD
:1003D0007F494949417F090909013E4149497A7FDD
:1003E0000808087F00417F41002040413F017F080D
:1003F0001422417F404040407F020C027F7F04086E
:10040000107F3E4141413E7F090909063E4151218D
:100410005E7F09192946464949493101017F010199
:100420003F4040403F1F2040201F3F4038403F6337
:100430001408146307087008076151494543007F99
:1004400041410002040810200041417F00040201E4
:100450000204404040404000010204002054545433
:10046000787F484444383844444420384444487FE2
:100470003854545418087E0901020C5252523E7FDF
:100480000804047800447D40002040443D007F1073
:1004900028440000417F40007C041804787C080454
:1004A000047838444444387C14141408081414188C
:1004B0007C7C080404084854545420043F444020E1
:1004C0003C4040207C1C2040201C3C4030403C44B0
:1004D000281028440C5050503C4464544C440008AC
:1004E00036410000007F0000004136080010080877
:1004F000100878464146780011241FBECFEFDAE09D
:10050000DEBFCDBF11E0A0E0B1E0EEE8FFE402C045
:1005100005900D92A639B107D9F726E0A6E9B1E01A
:1005200001C01D92AD3FB207E1F70E947F160C9407
:10053000C5270C940000DF92EF92FF920F931F9358
:10054000CF93DF93CDB7DEB72A970FB6F894DEBF0F
:100550000FBECDBF082F162FD22E1F924F9380E4CF
:1005600091E09F938F931F928AE08F93CE01019623
:100570007C019F938F930E94D426612F70E02D2DD4
:10058000A701802F90E00E94CE1D0FB6F894DEBF29
:100590000FBECDBF2A960FB6F894DEBF0FBECDBFFB
:1005A000DF91CF911F910F91FF90EF90DF90089511
:1005B0009B0177FF02C0295F3F4FE3E03595279508
:1005C000EA95E1F7A4E5A29FF001A39FF00D1124A5
:1005D0004E0F5F1FFA01E80FF91F208130E0CB01B9
:1005E00068E070E00E94FD24A90102C0559547957E
:1005F0008A95E2F7CA018170992708950E949A2589
:1006000060E570E00E94FD2497FF03C091958195FD
:10061000910908950E949A2560E370E00E94FD24EC
:100620000B9797FF03C091958195910908960895BE
:100630006F927F928F929F92AF92BF92CF92DF92F2
:10064000EF92FF920F931F93CF93DF936C017B0187
:100650004A015901C0E0D0E0CA15DB05D4F400E03E
:1006600010E03E016E0C7F1C081519056CF445E086
:1006700055E0B301C601800F911F0E94D802892B5B
:1006800029F40F5F1F4FF0CF2196E6CF81E090E075
:1006900002C080E090E0DF91CF911F910F91FF9019
:1006A000EF90DF90CF90BF90AF909F908F907F9012
:1006B0006F900895FB019C0128503E4FDC014D9145
:1006C000CD014193A217B307C9F70895DF92EF92C6
:1006D000FF920F931F93CF93DF93CDB7DEB764974D
:1006E0000FB6F894DEBF0FBECDBFD82E162F5F9386
:1006F0004F933F932F9385E491E09F938F931F92A5
:1007000084E18F93CE0101967C019F938F930E9489
:10071000D426612F70E0202FA7018D2D90E00E943C
:10072000CE1D0FB6F894DEBF0FBECDBF64960FB6D8
:10073000F894DEBF0FBECDBFDF91CF911F910F9117
:10074000FF90EF90DF900895DF92EF92FF920F936A
:100750001F93CF93DF93CDB7DEB72A970FB6F894E8
:10076000DEBF0FBECDBFE82EF62ED22E0130110512
:1007700019F40E949B021DC01F924F9388E491E0E0
:100780009F938F931F928AE08F938E010F5F1F4F6D
:100790001F930F930E94D4266F2D70E02D2DA8017A
:1007A0008E2D90E00E94CE1D0FB6F894DEBF0FBED6
:1007B000CDBF2A960FB6F894DEBF0FBECDBFDF9136
:1007C000CF911F910F91FF90EF90DF90089580914E
:1007D00011019091120101979093120180931101E0
:1007E0001092BB011092BC011092BD011092BE018B
:1007F00080E090E0A0E0B1E48093150190931601B1
:10080000A0931701B0931801089580E090E0ACE93F
:10081000B2E480931D0190931E01A0931F01B09339
:10082000200180E090E0ACE1B2E480931901909364
:100830001A01A0931B01B0931C0108950E949A25F0
:10084000BC01990F880B990B0E94F8222BED3FE019
:1008500049E450E40E94EC239B01AC010E94D821A2
:1008600020E03EEF4FEF56E40E944E2260933904A1
:1008700070933A0480933B0490933C040895CF9284
:10088000DF92EF92FF920F931F93CF93DF937C0140
:100890008B014C34F1F150F4443409F06DC0C12C9B
:1008A000D12CC0E0D0E00C5F1F4F26C0423509F4C8
:1008B00048C0453509F060C0C12CD12CC0E0D0E063
:1008C0004FE352E0B801C7018C0D9D1D0E94D80274
:1008D000892B11F0C1E0D0E08FEFC81AD80A85E06B
:1008E000C816D10469F74AC08FEFC81AD80A85E044
:1008F000C816D10409F442C04FE352E0B801C70161
:100900008C0D9D1D0E94D802892B71F3C1E0D0E0AF
:10091000EBCFC12CD12CC0E0D0E04FE352E0B601C8
:10092000600F711FC7010E94D802892B11F0C1E02E
:10093000D0E08FEFC81AD80A85E0C816D10469F74D
:100940001DC0C12CD12CC0E0D0E084E0E80EF11C29
:100950004FE352E0B601600F711FC7010E94D80239
:10096000892B11F0C1E0D0E08FEFC81AD80A85E0DA
:10097000C816D10469F702C0C0E0D0E0CE01DF9113
:10098000CF911F910F91FF90EF90DF90CF9008953E
:100990004F925F926F927F928F929F92AF92BF928F
:1009A000CF92DF92EF92FF920F931F93CF93DF933B
:1009B00000D000D0CDB7DEB7C0900001D0900101CB
:1009C000E0900201F090030120E030E040E251E4C9
:1009D000C701B6010E94EC232B013C0120E030E06E
:1009E00040EA50E4C701B6010E94EC2369837A8390
:1009F0008B839C8320E030E0A901C701B6010E94EF
:100A0000EC23AB01BC01E5E6F4E080E090E0A0E976
:100A1000B1E480839183A283B38380E090E0A0E778
:100A2000B1E484839583A683B78380E090E0A0E55A
:100A3000B1E480879187A287B387812C912C88ECC1
:100A4000A82E81E4B82E84869586A686B786408A2D
:100A5000518A628A738A89819A81AB81BC81848B35
:100A6000958BA68BB78B80E090E0A0EAB0E4808FF6
:100A7000918FA28FB38F80E090E0A0E2B1E4848FE9
:100A8000958FA68FB78F80A291A2A2A2B3A200E0F9
:100A900010E02CE032E404A315A326A337A380A61C
:100AA00091A6A2A6B3A600E010E024E332E404A7D6
:100AB00015A726A737A740AA51AA62AA73AA44ABD2
:100AC00055AB66AB77AB10AE11AE12AE13AE84AFC2
:100AD00095AFA6AFB7AF0093A5041093A6042093DB
:100AE000A7043093A8048093A9049093AA04A09328
:100AF000AB04B093AC0400E010E020E732E40093D4
:100B0000AD041093AE042093AF043093B0048093EF
:100B1000B1049093B204A093B304B093B40440938F
:100B2000B5045093B6046093B7047093B80420E002
:100B300030E040E751E4C701B6010E94EC23DC013C
:100B4000CB01B0588093B9049093BA04A093BB042E
:100B5000B093BC0480E090E0A0E7B1E48093BD04D2
:100B60009093BE04A093BF04B093C0041092C1043C
:100B70001092C2041092C3041092C40480E090E06A
:100B8000A8E6B2E48093C5049093C604A093C7047A
:100B9000B093C8048092C9049092CA04A092CB0476
:100BA000B092CC0480E090E0A0E9B2E48093CD0460
:100BB0009093CE04A093CF04B093D00480E090E053
:100BC000A0EFB1E48093D1049093D204A093D30416
:100BD000B093D40489809A80AB80BC80B7FAB0947B
:100BE000B7F8B0948092D5049092D604A092D7041E
:100BF000B092D80420E030E040E651E4C701B601ED
:100C00000E94EC236093D9047093DA048093DB0490
:100C10009093DC0480E090E0A0E6B1E48093DD04F2
:100C20009093DE04A093DF04B093E00480E090E0B2
:100C3000A0EAB0E48093E1049093E204A093E3047B
:100C4000B093E4040F900F900F900F90DF91CF912D
:100C50001F910F91FF90EF90DF90CF90BF90AF90DA
:100C60009F908F907F906F905F904F9008954F92DC
:100C70005F926F927F928F929F92AF92BF92CF922C
:100C8000DF92EF92FF92CF93DF9300D000D000D09D
:100C9000CDB7DEB7843509F00CC1C0901901D090F2
:100CA0001A01E0901B01F0901C01C701B6010E94DF
:100CB000C0224B015C0140901D0150901E016090CC
:100CC0001F0170902001C301B2010E94C0226983FC
:100CD0007A838B839C834CE4B40189819A810E943E
:100CE0003F040197A1F420E030E040E85FE3C30156
:100CF000B2010E94D82160931D0170931E01809360
:100D00001F01909320011D8221E02E831DC042E52A
:100D1000B40189819A810E943F04019799F420E0EF
:100D200030E040E85FE3C301B2010E94D721609345
:100D30001D0170931E0180931F019093200181E09B
:100D40008D8301C01D821E8240901D0150901E01A6
:100D500060901F0170902001C301B2010E94C02267
:100D600069837A838B839C8345E5B40189819A8169
:100D70000E943F0420E030E040E85FE3019779F40F
:100D8000C701B6010E94D8216093190170931A011E
:100D900080931B0190931C0180E091E021C0C7016A
:100DA000B6010E94D8210E94C02244E489819A8120
:100DB0000E943F04019791F420E030E040E85FE3B7
:100DC000C701B6010E94D7216093190170931A01DF
:100DD00080931B0190931C0181E001C080E090E0B2
:100DE0002E81211107C02D81211104C0911102C053
:100DF0008823B1F026960FB6F894DEBF0FBECDBFA4
:100E0000DF91CF91FF90EF90DF90CF90BF90AF90A8
:100E10009F908F907F906F905F904F900C941E04E6
:100E2000C0901901D0901A01E0901B01F0901C01B4
:100E300020E030E040EC50E4C701B6010E944422BB
:100E400087FD1FC020E030E044E352E4C701B60153
:100E50000E94E7231816ACF020E030E040E85FEB9A
:100E6000C301B2010E94442287FD0BC020E030E0A4
:100E700044EA52E4C301B2010E94E72318160CF0C1
:100E8000E8C00E941E0426960FB6F894DEBF0FBE7F
:100E9000CDBFDF91CF91FF90EF90DF90CF90BF90CB
:100EA000AF909F908F907F906F905F904F900C9439
:100EB00005048A3409F0CDC0809015019090160188
:100EC000A0901701B0901801C501B4010E94C02282
:100ED0006B017C014090BB015090BC016090BD0152
:100EE0007090BE01C301B2010E94C02269837A835F
:100EF0008B839C834CE4B60189819A810E943F04D4
:100F00000197A1F420E030E040E85FE3C301B201C3
:100F10000E94D8216093BB017093BC018093BD01F6
:100F20009093BE01198281E08D831DC042E5B60118
:100F300089819A810E943F04019799F420E030E072
:100F400040E85FE3C301B2010E94D7216093BB0177
:100F50007093BC018093BD019093BE0121E0298371
:100F600001C019821D826091BB017091BC0180910A
:100F7000BD019091BE010E94C0222B013C0145E5BC
:100F8000B601C2010E943F040197A1F420E030E0C5
:100F900040E85FE3C501B4010E94D82160931501C8
:100FA0007093160180931701909318018D81882307
:100FB000D9F04BC044E4B601C2010E943F0401973E
:100FC00081F420E030E040E85FE3C501B4010E9415
:100FD000D7216093150170931601809317019093A8
:100FE00018012D8121112DC06091150170911601FC
:100FF00080911701909118010E94C02268507109D8
:1010000065327105B0F026960FB6F894DEBF0FBEBC
:10101000CDBFDF91CF91FF90EF90DF90CF90BF9049
:10102000AF909F908F907F906F905F904F900C94B7
:10103000E7032FEF421A520A81E54816510418F7C8
:1010400008C089818111DFCFCFCF29812111DBCF6A
:10105000CBCF26960FB6F894DEBF0FBECDBFDF9183
:10106000CF91FF90EF90DF90CF90BF90AF909F9087
:101070008F907F906F905F904F9008954F925F9206
:101080006F927F928F929F92AF92BF92CF92DF9298
:10109000EF92FF920F93CF93DF93C5E6D4E0C88819
:1010A000D988EA88FB88A7019601688179818A81BD
:1010B0009B810E94D821688379838A839B83A701BF
:1010C0009601688579858A859B850E94D8216887E5
:1010D00079878A879B87CC88DD88EE88FF88A7017F
:1010E00096016C817D818E819F810E94D8216C83C5
:1010F0007D838E839F83A70196016C857D858E8578
:101100009F850E94D8216C877D878E879F878AE480
:101110000E94370684E50E943706C888D988EA8885
:10112000FB8820E030E0A901C701B6010E94E72357
:101130001816CCF5488059806A807B8020E030E02A
:1011400048EA52E4C301B2010E94E72387FD72C05E
:10115000C884D984EA84FB8420E030E048EA52E481
:10116000C701B6010E94E72387FD64C020E030E09C
:1011700048EA52E4688D798D8A8D9B8D0E94D82132
:101180004B015C019B01AC01C301B2010E94D7215C
:10119000688379838A839B83A5019401C701B60183
:1011A0000E94D72143C020E030E0A901C701B60169
:1011B0000E94442287FF3EC0488059806A807B801D
:1011C00020E030E0A901C301B2010E9444221816B8
:1011D0008CF188849984AA84BB8420E030E0A90142
:1011E000C501B4010E944422181624F1C88CD98C80
:1011F000EA8CFB8C20E030E048EA52E4C301B20103
:101200000E94D821A70196010E94D8216883798382
:101210008A839B8320E030E048EA52E4C501B401B0
:101220000E94D821A70196010E94D821688779875A
:101230008A879B87CC88DD88EE88FF8820E030E0B5
:10124000A901C701B6010E94442287FF3FC04C801C
:101250005D806E807F8020E030E040E051E4C3019B
:10126000B2010E94442218160CF475C08C849D842F
:10127000AE84BF8420E030E040E051E4C501B40119
:101280000E94442218160CF466C0CC8CDD8CEE8CC7
:10129000FF8C20E030E040E252E4C301B2010E9442
:1012A000D821A70196010E94D8216C837D838E836B
:1012B0009F8320E030E040E252E4C501B4010E9487
:1012C000D821A70196010E94D82141C020E030E03A
:1012D000A901C701B6010E94E7231816E4F54C8066
:1012E0005D806E807F8020E030E040E452E4C30106
:1012F000B2010E94E72387FD2EC0CC84DD84EE84FA
:10130000FF8420E030E040E452E4C701B6010E94CF
:10131000E72387FD20C020E030E044E252E46C8DFA
:101320007D8D8E8D9F8D0E94D8214B015C019B018C
:10133000AC01C301B2010E94D7216C837D838E83EF
:101340009F83A5019401C701B6010E94D7216C8734
:101350007D878E879F876C857D858E859F850E9482
:10136000C0222B013C01688579858A859B850E9476
:10137000C0224B015C016C817D818E819F810E9426
:10138000C0226B017C01688179818A819B810E94E6
:10139000C022DC01CB0101E09201A401B6010E9450
:1013A000061CA09684E0C53ED80709F078CEDF91F0
:1013B000CF910F91FF90EF90DF90CF90BF90AF90C3
:1013C0009F908F907F906F905F904F9008954F9275
:1013D0005F926F927F928F929F92AF92BF92CF92C5
:1013E000DF92EF92FF920F93CF93DF93C5E6D4E0A5
:1013F0006C857D858E859F850E94C0222B013C01D6
:10140000688579858A859B850E94C0224B015C0195
:101410006C817D818E819F810E94C0226B017C0145
:10142000688179818A819B810E94C022DC01CB0185
:1014300001E09201A401B6010E94061CA09684E07E
:10144000C53ED807A9F6DF91CF910F91FF90EF909D
:10145000DF90CF90BF90AF909F908F907F906F90D4
:101460005F904F90089585988698229A239A569A6D
:10147000519827982198509820980895789414BCF2
:1014800085E085BD81E080936E0008951092B101E2
:101490001092B2011092B3011092B4011092AB01FC
:1014A0001092AA010895E1E4F4E08BEF9FEF91839D
:1014B00080839383828315821482369624E0EF35ED
:1014C000F207A9F70895E7EEF4E08BEF9FEF918321
:1014D00080839383828315821482369625E0E530DB
:1014E000F207A9F7089580E090E0ACE9B2E48093B8
:1014F0001D0190931E01A0931F01B093200180E075
:1015000090E0ACE1B2E48093190190931A01A093AA
:101510001B01B0931C011092BB011092BC011092F0
:10152000BD011092BE0180E090E0A0E0B1E48093A4
:10153000150190931601A0931701B09318010C9414
:101540001E04E3ECF1E086EF9FEF918380839383A9
:10155000828315821482369622E0EB33F207A9F7D4
:1015600008950E94460A0E94730A0E94530A0E942C
:10157000630A0C94A10A82E090E090931401809396
:10158000130110926404109263040E94530A0E9493
:10159000630A0C94A10A6F927F928F929F92AF92EE
:1015A000BF92CF92DF92EF92FF920F931F93CF9350
:1015B000DF936091BB017091BC018091BD0190915E
:1015C000BE010E94C0223B0160911501709116017D
:1015D00080911701909118010E94C0224B016091E7
:1015E000B9017091BA01A1E4B4E020E030E01496B2
:1015F0008D919C911597019709F042C07401E20EFC
:10160000F31E40E050E08301040F151FE1E4F4E015
:10161000C080D18080E090E05601CFEFAC1ABC0AC8
:10162000C016D106B9F0A016B10679F4C281D381F3
:10163000C80FD91FCE15DF0541F4C481D58121978C
:1016400021F4158214826F5F7F4F019683309105DC
:1016500039F70CC0C281D381C80FD91FCE15DF0561
:1016600011F7C481D5812197F1F6EBCF369684E04E
:10167000EF35F80769F64F5F5F4F4530510519F6B2
:101680002F5F3F4F16962530310509F0B0CF70938C
:10169000BA016093B901DF91CF911F910F91FF9033
:1016A000EF90DF90CF90BF90AF909F908F907F9002
:1016B0006F9008956F927F928F929F92AF92BF9298
:1016C000CF92DF92EF92FF920F931F93CF93DF930E
:1016D0006091BB017091BC018091BD019091BE01F0
:1016E0000E94C0223B01609115017091160180910A
:1016F0001701909118010E94C0224B01A091110185
:10170000B0911201C7EED4E080E090E02C813D81E1
:1017100021303105D1F57401E80EF91E20E030E0EA
:101720005301A20EB31EE7EEF4E0C080D18040E08A
:1017300050E060E070E08601060F171FA016B106AA
:1017400081F402811381040F151F0E151F0549F442
:10175000048115810130110521F41582148211973D
:1017600005C06F5F7F4F6330710529F74F5F5F4F93
:1017700043305105F1F6369645E0E530F407A9F619
:101780002F5F3F4F2530310559F60196269685305B
:10179000910509F0BBCFB0931201A0931101DF9125
:1017A000CF911F910F91FF90EF90DF90CF90BF905E
:1017B000AF909F908F907F906F900895AF92BF925F
:1017C000CF92DF92EF92FF920F931F93CF93DF930D
:1017D0008091630490916404019709F04DC000E08A
:1017E00010E0C0E0D0E0E12CF12C6091BB017091E1
:1017F000BC018091BD019091BE010E94C0226E018A
:10180000C60ED71EA0905F04B090600460911501D1
:101810007091160180911701909118010E94C022C9
:10182000600F711F20916104309162042E0D3F1DE5
:1018300080E090E0AC014A0D5B1DC416D50631F482
:101840002617370719F40E94BB0A04C0019683309B
:10185000910581F78FEFE81AF80A84E0E816F104A1
:1018600021F62196C530D10509F0BDCF0F5F1F4F7E
:101870000530110509F0B5CFDF91CF911F910F9180
:10188000FF90EF90DF90CF90BF90AF90089521E050
:101890004BE451E064E070E08CE090E00E94CE1DEB
:1018A00021E048E551E064E170E082E090E00E94D0
:1018B000CE1D21E049E651E060E270E08FE090E06B
:1018C0000E94CE1D21E045E751E069E270E086E12B
:1018D00090E00C94CE1D8F929F92AF92BF92CF92C8
:1018E000DF92EF92FF920F931F93CF93DF9300D07D
:1018F00000D01F92CDB7DEB785E0ECE2F1E0DE016B
:10190000119601900D928A95E1F78E010F5F1F4F9E
:10191000C12CD12C84E0A82EB12CE12CF12CF801A3
:10192000808190E095012E193F0902C09595879519
:101930002A95E2F780FF1EC0609115017091160193
:1019400080911701909118010E94C0224601860ED5
:10195000971E6091BB017091BC018091BD01909177
:10196000BE010E94C022C701860F971F41E0B4014B
:101970000E94CD1BFFEFEF1AFF0A85E0E816F10485
:1019800071F6EFEFCE1ADE0A0F5F1F4FF5E0CF16AC
:10199000D10419F60F900F900F900F900F90DF91D8
:1019A000CF911F910F91FF90EF90DF90CF90BF905C
:1019B000AF909F908F9008952F923F924F925F9299
:1019C0006F927F928F929F92AF92BF92CF92DF924F
:1019D000EF92FF920F931F93CF93DF9300D000D02D
:1019E0001F92CDB7DEB785E0E1E3F1E0DE011196AD
:1019F00001900D928A95E1F78E010F5F1F4FC12C68
:101A0000D12C84E0282E312CE12CF12C46010D2C18
:101A1000000CAA08BB08F801808190E091012E1902
:101A20003F0902C0959587952A95E2F780FF2BC064
:101A3000C501B4010E94F8222091190130911A01C8
:101A400040911B0150911C010E94D8210E94C0228C
:101A50002B013C01B7010F2C000C880B990B0E9445
:101A6000F82220911D0130911E0140911F015091DB
:101A700020010E94D8210E94C022DC01CB0141E05C
:101A8000B2010E94CD1BFFEFEF1AFF0A85E0E816B6
:101A9000F10409F6EFEFCE1ADE0A0F5F1F4FF5E0F3
:101AA000CF16D10409F0B0CF0F900F900F900F9088
:101AB0000F90DF91CF911F910F91FF90EF90DF90EA
:101AC000CF90BF90AF909F908F907F906F905F90DE
:101AD0004F903F902F9008950C941E046F927F9228
:101AE0008F929F92AF92BF92CF92DF92EF92FF922E
:101AF0000F931F93CF93DF9360911501709116019F
:101B000080911701909118010E94C0224B015C0145
:101B10007B016091BB017091BC018091BD019091EE
:101B2000BE010E94C0226B018B010C5F1F4F6091B0
:101B3000190170911A0180911B0190911C010E9462
:101B4000C0223B01EB01249660911D0170911E01A2
:101B500080911F01909120010E94C0229B016C5F27
:101B60007F4F8C169D0631F084E0880E911C861400
:101B7000970439F46C157D05ACF00217130794F047
:101B80000CC0C616D70619F00217130751F4CE156C
:101B9000DF0544F0861497042CF05E9A81E090E013
:101BA00003C05E9880E090E0DF91CF911F910F918C
:101BB000FF90EF90DF90CF90BF90AF909F908F906D
:101BC0007F906F900895809137049091380483300E
:101BD00091052CF48DEC9CECACE4BEE322C09C019E
:101BE000235031092230310528F48AE999E9A9E91D
:101BF000BEE317C09C01255031092230310528F47D
:101C00008DEC9CECACECBEE30CC00797029728F47B
:101C100080E090E0A0E0BFE304C08AE999E9A9E18F
:101C2000BFE38093040190930501A0930601B09354
:101C3000070108958091370490913804833091050D
:101C40009CF09C01235031092230310590F0225044
:101C500031092230310590F007970297A0F060E03B
:101C600070E080E89FE308956DEC7CEC8CEC9EE3E3
:101C7000089560E070E080E09FE308956AE979E903
:101C800089E19FE308956DEC7CEC8CE49FE308957B
:101C90004F925F926F927F928F929F92AF92BF927C
:101CA000CF92DF92EF92FF9284E50E9437060E9466
:101CB0006E0D892B59F00E94730A80911101909149
:101CC0001201019790931201809311010E94E30D7C
:101CD0004090390450903A0460903B0470903C046A
:101CE000C301B2010E944922C0900401D0900501B5
:101CF000E0900601F0900701A70196010E94EC23F5
:101D00004B015C0160933D0470933E0480933F045B
:101D100090934004C301B2010E947D249B01AC0159
:101D2000C701B6010E94EC236B017C0160933B026A
:101D300070933C0280933D0290933E0220911D01DE
:101D400030911E0140911F0150912001C501B40145
:101D50000E94D8214B015C010E9459242B013C01B7
:101D60002091190130911A0140911B0150911C01E1
:101D7000C701B6010E94D8216B017C010E94592441
:101D80000E94C022695071096332710548F4C30191
:101D9000B2010E94C022615071096F34710570F068
:101DA000FF90EF90DF90CF90BF90AF909F908F907B
:101DB0007F906F905F904F900C941E0480921D0155
:101DC00090921E01A0921F01B0922001C0921901B1
:101DD000D0921A01E0921B01F0921C01FF90EF904B
:101DE000DF90CF90BF90AF909F908F907F906F903B
:101DF0005F904F9008954F925F926F927F928F9273
:101E00009F92AF92BF92CF92DF92EF92FF920E9489
:101E10001A0E6B017C010E946E0D892B81F00E94CD
:101E20000504FF90EF90DF90CF90BF90AF909F9010
:101E30008F907F906F905F904F900C94E70380910C
:101E4000A001813069F54090150150901601609015
:101E5000170170901801C301B2010E94C0226930BD
:101E60007105F4F05B0121E0A21AB1086091BB0199
:101E70007091BC018091BD019091BE010E94C02271
:101E8000DC01CB0145E5B5010E943F04892B09F037
:101E9000A6C0A7019601C301B2010E94D72130C09C
:101EA00080919E018130A9F5409015015090160156
:101EB0006090170170901801C301B2010E94C02206
:101EC0006B32710534F55B012FEFA21AB20A6091F3
:101ED000BB017091BC018091BD019091BE010E9437
:101EE000C022DC01CB0144E4B5010E943F04892BF0
:101EF00009F075C0A3019201C701B6010E94D82163
:101F00006093150170931601809317019093180147
:101F100066C080919C01813059F54090BB01509082
:101F2000BC016090BD017090BE01C301B2010E946E
:101F3000C0224B015C0116161706D4F460911501FE
:101F40007091160180911701909118010E94C02292
:101F500021E0821A91084CE4C4010E943F04892BBD
:101F6000F1F5A7019601C301B2010E94D7212FC04C
:101F700080919A01813099F54090BB015090BC014D
:101F80006090BD017090BE01C301B2010E94C022E9
:101F90004B015C018FE4881691040CF560911501EA
:101FA0007091160180911701909118010E94C02232
:101FB0002FEF821A920A42E5C4010E943F04892B46
:101FC00071F4A3019201C701B6010E94D821609368
:101FD000BB017093BC018093BD019093BE010E9430
:101FE000CB0AFF90EF90DF90CF90BF90AF909F9083
:101FF0008F907F906F905F904F900C945A0B0F933F
:102000001F938091B9019091BA0121E00A970CF0D9
:1020100048C04EE751E060E070E080E090E00E9450
:10202000CE1D21E04AE360E070E08AE090E00E948B
:10203000681D00E010E021E04091130160E08EE0B7
:102040000E94A40321E041E851E060E070E085E1F6
:1020500090E00E94CE1D21E04AE360E070E08FE155
:1020600090E00E94681D21E04091110160E083E250
:102070000E94A40321E044E851E060E070E08AE2BD
:1020800090E00E94CE1D21E04AE360E070E080E332
:1020900090E00E94681D21E04091B90160E084E376
:1020A0002FC046E851E060E070E080E090E00E94E0
:1020B000CE1D00E010E021E04091130160E089E0D6
:1020C0000E94A40321E049E851E060E070E081E172
:1020D00090E00E94CE1D21E04091110160E08AE174
:1020E0000E94A40321E04CE851E060E070E082E24D
:1020F00090E00E94CE1D21E04091B90160E08CE2A9
:102100000E94A40320E030E040E752E46091B10176
:102110007091B2018091B3019091B4010E94E723C4
:1021200087FD0DC08091B0018F5F8093B001109248
:10213000B1011092B2011092B3011092B40121E0EA
:102140004091B00160E08CE30E949B0221E04AE3F1
:1021500060E070E086E490E00E94681D6091B1014B
:102160007091B2018091B3019091B4010E94C0229C
:10217000462F21E060E08AE40E949B0201E027E014
:1021800030E044E550E067E070E080E090E00E94DD
:10219000061C1F910F9108950F931F93CF93DF9308
:1021A0000E94FE02EC010E940A038C0125E030E04F
:1021B00044E050E0BC01CE010E941803892B81F756
:1021C000E1E4F4E080E090E024813581232B89F480
:1021D00026E0289FF001299FF00D1124EF5BFB4FB3
:1021E00081E090E095838483D183C083138302834D
:1021F00005C0019636968530910531F7DF91CF9174
:102200001F910F910895CF93DF93E7EEF4E080E004
:1022100090E024813581232B29F526E0289FE001D9
:10222000299FD00D1124C951DB4F81E090E09D839F
:102230008C8360911D0170911E0180911F0190910E
:1022400020010E94C02279836883609119017091F6
:102250001A0180911B0190911C010E94C0227B8376
:102260006A8305C0019636968530910591F6DF9117
:10227000CF9108950F931F93CF93DF930E94FE0297
:102280008C010E940A03EC0124E030E044E050E0BD
:10229000BC01C8010E941803892B81F710936004C8
:1022A00000935F04D0936204C093610481E090E0E6
:1022B0009093640480936304DF91CF911F910F91F9
:1022C00008956091B1017091B2018091B301909134
:1022D000B4010E94C022AB014E5F5F4F20910C0100
:1022E00030910D0142175307A9F46C5F7F4F709333
:1022F0000D0160930C010E94CC1080910C01909113
:102300000D018034910534F084E090E090930D014C
:1023100080930C010C94CB0A6091B1017091B201D1
:102320008091B3019091B4010E94C022AB014D5F36
:102330005F4F209108013091090142175307A9F41A
:102340006A5F7F4F70930901609308010E94031137
:1023500080910801909109018334910534F086E061
:1023600090E090930901809308010C945A0B7F929E
:102370008F929F92AF92BF92CF92DF92EF92FF9295
:102380000F931F93CF93DF9300D01F92CDB7DEB78B
:102390006C018091360190913701A09138018983B9
:1023A0009A83AB83CE0101967C018B015E0194E0A0
:1023B000A90EB11C4601EFEF8E1A9E0AF70170803C
:1023C00071FE05C041E0B801C6010E94CD1BFFEFC0
:1023D000EF1AFF0A70FE05C041E0B801C4010E9477
:1023E000CD1B0F5F1F4FEA14FB0441F70F900F90B6
:1023F0000F90DF91CF911F910F91FF90EF90DF90A1
:10240000CF90BF90AF909F908F907F9008954F9204
:102410005F926F927F928F929F92AF92BF92CF9274
:10242000DF92EF92FF920F931F93CF93DF9300D031
:102430001F92CDB7DEB72C018091390190913A01FE
:10244000A0913B0189839A83AB834E0184E0880E7F
:10245000911C8E010F5F1F4F5B01A01AB10A720120
:1024600082E0C82ED12C3501600E711EF8018081EA
:1024700090E00C2C02C0959587950A94E2F780FFB6
:1024800005C041E0B301C7010E94CD1BF1E0CF1AA6
:10249000D1088FEFE81AF80AEFEFCE16DE0631F713
:1024A0000F5F1F4F08151905D1F60F900F900F9071
:1024B000DF91CF911F910F91FF90EF90DF90CF9020
:1024C000BF90AF909F908F907F906F905F904F9054
:1024D0000895AF92BF92CF92DF92EF92FF920F9347
:1024E0001F93CF93DF9300D000D0CDB7DEB780919C
:1024F000630490916404019709F041C080913C010C
:1025000090913D01A0913E01B0913F0189839A8352
:10251000AB83BC83CE0101966C01E12CF12C82E0EF
:10252000A82EB12C00E010E0F601808190E095012A
:10253000201B310B02C0959587952A95E2F780FF05
:102540000FC060916104709162046E0D7F1D8091D7
:102550005F049091600441E0800F911F0E94CD1BA9
:102560000F5F1F4F03301105F9F6FFEFEF1AFF0A57
:102570008FEFC81AD80A94E0E916F10499F60F9083
:102580000F900F900F90DF91CF911F910F91FF90BF
:10259000EF90DF90CF90BF90AF900895CF93DF93EF
:1025A000C1E4D4E08C819D81019731F46A817B8103
:1025B000888199810E94B711269684E0CF35D8078B
:1025C00089F7DF91CF910895CF93DF93C7EED4E0E1
:1025D0008C819D81019731F46A817B818881998109
:1025E0000E940712269685E0C530D80789F7DF914B
:1025F000CF9108952F923F924F925F926F927F9268
:102600008F929F92AF92BF92CF92DF92EF92FF9202
:102610000F931F93CF93DF93CDB7DEB762970FB6BB
:10262000F894DEBF0FBECDBF4F83588769877A8786
:102630008B879C870F81188529843A84B801012EE5
:10264000000C880B990B0E94F8226B017C01809092
:102650001D0190901E01A0901F01B0902001A501C6
:1026600094010E94E723181634F49801215031098F
:102670003E872D870FC0A5019401C701B6010E94B6
:10268000442287FF05C0C80101969E878D8702C03E
:102690001E861D86B101032C000C880B990B0E942D
:1026A000F8222B013C01C0901901D0901A01E09052
:1026B0001B01F0901C01A70196010E94E723181648
:1026C0002CF4210191E0491A51080FC0A70196018D
:1026D000C301B2010E94442287FF05C021012FEFF0
:1026E000421A520A02C0412C512C4FE352E0B2016F
:1026F0008D859E850E94D802892B09F04EC02D85BC
:102700003E85B901330F880B990B0E94F8226F8721
:10271000788B898B9A8B9B01AC01C501B4010E9417
:1027200044221816E4F120E030E040E850E4C5010E
:10273000B4010E94D8219B01AC016F8578898989F9
:102740009A890E94442287FF2AC07B846C84B2014C
:10275000052C000C880B990B0E94F8224B015C01A0
:102760009B01AC01C701B6010E9444221816ECF08F
:1027700020E030E040E850E4C701B6010E94D821D3
:102780009B01AC01C501B4010E94442287FF0DC02A
:102790000E94050412010D851E85712C05C01201D1
:1027A0000D851E8577247394612C1A8309833C82DE
:1027B0002B82202F3A81422D5C81672D762D80E07F
:1027C00090E062960FB6F894DEBF0FBECDBFDF91EA
:1027D000CF911F910F91FF90EF90DF90CF90BF901E
:1027E000AF909F908F907F906F905F904F903F90B1
:1027F0002F900895CF93DF93E3ECF1E080E090E039
:1028000024813581232B29F526E0289FE001299F8B
:10281000D00D1124CD53DE4F6091BB017091BC01EE
:102820008091BD019091BE010E94C022798368838E
:102830006091150170911601809117019091180116
:102840000E94C0227B836A8381E090E09D838C8319
:1028500005C0019636968431910591F6DF91CF91AE
:102860000895CF93DF93C3ECD1E08C819D810197D4
:1028700039F46A817B8141E0888199810E94CD1B76
:10288000269682E0CB33D80781F7DF91CF91089568
:10289000DF92EF92FF920F931F93CF93DF9383EC1E
:1028A000E82E81E0F82E00E010E096E0D92EF70146
:1028B000848195810197A9F4D09EE001D19ED00D2D
:1028C0001124CD53DE4F488159816A817B818C81EF
:1028D0009D810E94FA12288339834A835B836C832B
:1028E0007D830F5F1F4FF6E0EF0EF11C04311105E1
:1028F000F1F6DF91CF911F910F91FF90EF90DF9054
:10290000089580919801811108C08091960190915D
:102910009701019711F40E94FA138091980190E0B9
:1029200090939701809396010E9448140C9431145F
:10293000CF93DF9380E00E949C1BC4E6D0E0BE01F1
:102940000E94E924709338046093370481E00E9468
:102950009C1BBE010E94E9247093E6046093E50489
:10296000DF91CF910895CF92DF92EF92FF92CF93B4
:10297000DF936091AA017091AB01D6B5C091B0010F
:10298000072E000C880B990B0E94F82220E030E003
:1029900040E853E40E94EC236B017C016D2F70E052
:1029A00080E090E00E94F8229B01AC01C701B601D3
:1029B0000E94D82120E030E040E854E40E94EC235B
:1029C00020E034E244EF5AE40E944E222091B50107
:1029D0003091B6014091B7015091B8010E94D721C2
:1029E0006B017C018CE3C89FB0011124072E000C01
:1029F000880B990B0E94F8229B01AC01C701B6011C
:102A00000E94D7216093B1017093B2018093B3010A
:102A10009093B401DF91CF91FF90EF90DF90CF9032
:102A20000895CF92DF92EF92FF920F931F93CF936F
:102A3000DF936091AA017091AB01C6B5072E000C1F
:102A4000880B990B0E94F82220E030E040E853E424
:102A50000E94EC236B017C016C2F70E080E090E021
:102A60000E94F8229B01AC01C701B6010E94D82147
:102A700020E030E040E854E40E94EC2320E034E21F
:102A800044EF5AE40E944E22C091B001D0E000E031
:102A900010E00C171D074CF420E030E040E752E452
:102AA0000E94D7210F5F1F4FF4CF2091B1013091C9
:102AB000B2014091B3015091B4010E94D7216093BB
:102AC000B5017093B6018093B7019093B801DF917F
:102AD000CF911F910F91FF90EF90DF90CF900895CD
:102AE0008091A401811108C08091A2019091A3015D
:102AF000019711F40E94BB0A8091A40190E0909389
:102B0000A3018093A20108958091A801811107C0BB
:102B10008091A6019091A7018130910549F08091A3
:102B2000A80190E09093A7018093A60180E090E037
:102B300008950E94E7090E94FF0F0E9411150E944C
:102B4000981421E04FE851E064E170E08BE190E0FF
:102B50000E94CE1D0E94DC0C0E946B0C0E94CE12C3
:102B60000E94E4128091B9019091BA01059774F026
:102B70008091630490916404892B41F48091130146
:102B800090911401019711F40E943A110E94691268
:102B90000E9470158091B9019091BA01039714F0C9
:102BA0000E9481140E94CB0A0E945A0B0C94DE0BE7
:102BB0000F931F938091130190911401029719F4C0
:102BC0000E943E0802C00E94E7096FE372E085E0C0
:102BD00095E00E945A030E94FF0F0E94B3140E94C6
:102BE00098140E94480E0E94DC0C0E946B0C0E94FC
:102BF000CE120E94E4128091B9019091BA0105971A
:102C000074F08091630490916404892B41F4809165
:102C1000130190911401019711F40E943A110E943E
:102C200069120E9470158091B9019091BA010397C1
:102C300014F00E9481140E9461110E948C110E9464
:102C4000CB0A0E945A0B0E94DE0B00E010E021E04C
:102C50004091370464E185E00E94A40321E04091A3
:102C6000E5046EE185E00E94A4031F910F91089591
:102C70008091A801811110C08091A6019091A701B7
:102C8000019751F480911001811104C081E080937B
:102C9000100102C0109210018091A80190E0909361
:102CA000A7018093A6018091100181110C949915C0
:102CB0000C94D815E1E6F0E080E8808381E0808321
:102CC0000E94981B8FE30E94111E0E94411E0E94C9
:102CD000C51B0E943E0A0E94330A0E94C8040E943B
:102CE000470C0C94B21B0E94C51B0E9438160E9410
:102CF000CB0A0E945A0B0E94FB0E0C94B21B0E943E
:102D00005A160E948415892BE1F38091AA019091B3
:102D1000AB010E949F250E941E040E94B10A8FE110
:102D20009EE40197F1F700C000000E947316FDCFEA
:102D30001F920F920FB60F9211248F939F93809141
:102D4000AA019091AB0101969093AB018093AA01E7
:102D50008091A901880F8093A9018091A501880F16
:102D60008093A5018091A101880F8093A10180919A
:102D70009F01880F80939F0180919D01880F809310
:102D80009D0180919B01880F80939B018091990107
:102D9000880F809399018091A90187708093A90180
:102DA0008091A50187708093A5018091A101837016
:102DB0008093A10180919F01837080939F018091F6
:102DC0009D01837080939D0180919B01837080930E
:102DD0009B01809199018770809399018FB19091A7
:102DE000A90185FB882780F9892B8093A9018FB1E0
:102DF0009091A50186FB882780F9892B8093A501F6
:102E000089B19091A10186958170892B8093A10150
:102E100083B190919F01881F8827881F892B8093F9
:102E20009F0183B190919D0186958170892B80933C
:102E30009D0189B190919B018170892B80939B01A9
:102E400083B1909199018170892B80939901809130
:102E5000A901873021F481E08093A80106C0809108
:102E6000A901811102C01092A8018091A5018730AB
:102E700021F481E08093A40106C08091A501811115
:102E800002C01092A4018091A101833021F481E05D
:102E90008093A00106C08091A101811102C010920F
:102EA000A00180919F01833021F481E080939E01F5
:102EB00006C080919F01811102C010929E018091F5
:102EC0009D01833021F481E080939C0106C08091B4
:102ED0009D01811102C010929C0180919B01833061
:102EE00021F481E080939A0106C080919B018111B9
:102EF00002C010929A0180919901833021F481E0FF
:102F00008093980106C080919901811102C01092AE
:102F100098019F918F910F900FBE0F901F90189561
:102F20008091E80080FFFCCF089581E08093D70076
:102F300080EA8093D80082E189BD09B400FEFDCF0C
:102F400080E98093D8001092E0001092C2011092A4
:102F5000BF018CE08093E200789408958091C201D3
:102F600008959FB7F8948091C201882369F083E0A7
:102F70008093E9002BE68091E80085FD09C082FF7F
:102F800003C02093E800F7CF9FBF8FEF9FEF089516
:102F90008091F1002091E80025FD03C02BE62093ED
:102FA000E8009FBF90E008952FB7F8948091C20188
:102FB000811102C080E010C083E08093E90080911D
:102FC000F200811109C09091E80092FFF3CF95FDC6
:102FD000F1CF9BE69093E8002FBF08958091C20146
:102FE000882371F08FB7F89493E09093E9002BE673
:102FF0009091E80095FF03C02093E800F9CF8FBFC0
:1030000008959091C201992371F09FB7F89424E03C
:103010002093E9002091C001222349F02091E8008B
:1030200025FD03C09FBF8FEF08951092C00120912E
:10303000E400275E34E04091E80045FD12C09FBFE8
:103040009091E400291304C081E08093C001EBCF8C
:103050009091C201992339F39FB7F8943093E90016
:10306000EACF8093F1008091E80085FD03C08AE3F8
:103070008093E80085E08093C1019FBF80E00895C0
:103080009091C2019923D1F09FB7F89424E0209346
:10309000E9002091E80025FD02C09FBF0FC080938A
:1030A000F1008091E80085FD03C08AE38093E80089
:1030B00085E08093C1019FBF80E008958FEF089560
:1030C0000F931F93CF93DF93DC01CB012091C201BB
:1030D000222371F02FB7F89434E03093E900309157
:1030E000C001332349F03091E80035FD03C02FBF04
:1030F0008FEF43C11092C001C4E0D0E41AE305E0B1
:10310000009709F439C13091E400375E4091E8003E
:1031100045FD12C02FBF2091E400321304C081E0AE
:103120008093C001E5CF2091C201222309F32FB77C
:10313000F894C093E900EACF3091F200ED2FE31B41
:103140004E2F50E08417950708F4E82F8E1B910945
:103150004E2F50E04134510508F001C1FA01EA5AFE
:10316000FF4F0C9411253C913093F10011963C9146
:103170003093F10011963C913093F10011963C91FF
:103180003093F10011963C913093F10011963C91EF
:103190003093F10011963C913093F10011963C91DF
:1031A0003093F10011963C913093F10011963C91CF
:1031B0003093F10011963C913093F10011963C91BF
:1031C0003093F10011963C913093F10011963C91AF
:1031D0003093F10011963C913093F10011963C919F
:1031E0003093F10011963C913093F10011963C918F
:1031F0003093F10011963C913093F10011963C917F
:103200003093F10011963C913093F10011963C916E
:103210003093F10011963C913093F10011963C915E
:103220003093F10011963C913093F10011963C914E
:103230003093F10011963C913093F10011963C913E
:103240003093F10011963C913093F10011963C912E
:103250003093F10011963C913093F10011963C911E
:103260003093F10011963C913093F10011963C910E
:103270003093F10011963C913093F10011963C91FE
:103280003093F10011963C913093F10011963C91EE
:103290003093F10011963C913093F10011963C91DE
:1032A0003093F10011963C913093F10011963C91CE
:1032B0003093F10011963C913093F10011963C91BE
:1032C0003093F10011963C913093F10011963C91AE
:1032D0003093F10011963C913093F10011963C919E
:1032E0003093F10011963C913093F10011963C918E
:1032F0003093F10011963C913093F10011963C917E
:103300003093F10011963C913093F10011963C916D
:103310003093F10011963C913093F10011963C915D
:103320003093F10011963C913093F10011963C914D
:103330003093F10011963C913093F10011963C913D
:103340003093F10011963C913093F10011963C912D
:103350003093F10011963C913093F10011963C911D
:103360003093F10011963091E80035FF1093E8009A
:103370000093C1012FBFC4CE80E0DF91CF911F9198
:103380000F9108958FB7F8949091C101992341F05E
:1033900094E09093E9009AE39093E8001092C101C1
:1033A0008FBF0895609121017091220180912301C6
:1033B000909124010895809125010895809126011E
:1033C00008958091270108958091BF0108959FB7C6
:1033D000F8942091C201222339F022E02093E900E1
:1033E0002091E80025FD03C09FBF8FEF089521EADB
:1033F0002093F10020E22093F1001092F10010924E
:10340000F1001092F1001092F10021E02093F10000
:103410001092F1008093F1008AE38093E8009FBF4F
:1034200080E008951F920F920FB60F9211248F9390
:103430009F938091E1001092E10083FF11C01092F0
:10344000E90091E09093EB001092EC0092E19093F0
:10345000ED0098E09093F0001092C2011092BF012D
:1034600082FF13C08091C201882379F08091C1014D
:10347000882359F081508093C101811106C084E0F6
:103480008093E9008AE38093E8009F918F910F90E9
:103490000FBE0F901F9018951F920F920FB60F92AC
:1034A0001124FF920F931F932F933F934F935F939A
:1034B0006F937F938F939F93AF93BF93CF93DF933C
:1034C000EF93FF931092E9008091E80083FF17C10A
:1034D000F090F1008091F1000091F1009091F100E5
:1034E00010E0192BC091F1009091F100D0E0D92BA0
:1034F0002091F1006091F10092EF9093E800863006
:1035000009F049C08EE492E048E752E0FC01A59141
:10351000B4910A171B07D9F4FC013296A591B49116
:10352000CA17DB07A1F4FC01349645915491FC01C4
:103530003696849130E0362B2F3F310519F010F08C
:103540002FEF30E0281708F4822F3EEF0CC00796CB
:1035500048175907D9F6D3C0490F511D891B30931D
:10356000E8008823A9F09091E800292F2570D9F36D
:1035700092FDC8C0982F813108F090E1FA01292FFF
:10358000222351F364916093F10021503196F8CFDA
:10359000903149F3B7C0853049F48EEF8093E8004D
:1035A0000E94901700680093E300ACC0893059F581
:1035B000F110A5C00093C2011092BF011092C10189
:1035C0008EEF8093E80041E08DE093E04093E900C6
:1035D0009C012F5F3F4FFC0154915093EB0055230A
:1035E00059F0F90124912093EC009C012D5F3F4F8D
:1035F0003196E491E093ED004F5F453011F0C90141
:10360000E5CF8EE177C0883051F4F0E8FF1277C043
:103610000E9490178091C2018093F10049C08132CD
:1036200081F481EAF8126BC00E949017E1E2F1E0A8
:1036300088E291E021912093F1008E179F07D1F746
:1036400037C08032A9F491E2F91259C08091E800A4
:1036500082FFFCCFE1E2F1E088E291E02091F1000D
:1036600021938E179F07D1F78BEF8093E80020C03E
:10367000823241F4E1E2FE1242C00093BF010E9497
:10368000901716C0811118C00E949017F2E8FF121F
:103690000AC0C093E9008091EB0085FB882780F980
:1036A0001092E90001C080E08093F1001092F100D7
:1036B0008EEF8093E80026C0982F9D7F9130F9F41B
:1036C00092E0F9121CC0012BD1F4CF779FEF9C0F31
:1036D0009430A8F49EEF9093E800C093E900833003
:1036E00071F089E18093EB0081E090E001C0880FE8
:1036F000CA95EAF78093EA001092EA0003C081E2DB
:103700008093EB00FF91EF91DF91CF91BF91AF914B
:103710009F918F917F916F915F914F913F912F91E9
:103720001F910F91FF900F900FBE0F901F90189553
:1037300087E880937A000895982F9F719064909302
:103740007C00807280937B0080917A0080648093FB
:103750007A0080917A0086FDFCCF8091780090916C
:1037600079000895CF93DF9360E080E00E944E1EC1
:10377000C5E0D5E0699181E00E94F31D86E0CD3F70
:10378000D807C1F7DF91CF910895E5E0F5E01192F8
:1037900086E0ED3FF807D9F7089584359105A8F53F
:1037A0006033710590F59B0173E0359527957A9507
:1037B000E1F76770452BA1F044E5429FF001439F7C
:1037C000F00D11248E0F9F1FFC01EB5FFA4F81E07B
:1037D00090E001C0880F6A95EAF79081892B14C0A8
:1037E00044E5429FF001439FF00D11248E0F9F1F6F
:1037F000FC01EB5FFA4F81E090E001C0880F6A9511
:10380000EAF7809590818923808308952F923F92D3
:103810004F925F926F927F928F929F92AF92BF92E0
:10382000CF92DF92EF92FF920F931F93CF93DF938C
:10383000CDB7DEB72E970FB6F894DEBF0FBECDBF63
:103840001C013B012A013A8329838417950771F5EE
:103850007C836B8329813A81621673069CF48B8189
:103860009C81281739070CF41AC1A8016B817C814F
:10387000C1010E94CD1B2B813C812F5F3F4F3C83B8
:103880002B83E8CFAB81BC8129813A81A217B30792
:103890000CF405C1A8016B817C81C1010E94CD1B84
:1038A0008B819C8101979C838B83D4CF89819A8162
:1038B0006817790751F53A822982241435049CF45B
:1038C000A981BA814A165B060CF4E9C0A801B301CC
:1038D00089819A810E94CD1B29813A812F5F3F4FB8
:1038E0003A832983EACF29813A81241535050CF4DE
:1038F000D6C0A801B30189819A810E94CD1BA981FC
:10390000BA811197BA83A983D8CF4215530554F4CD
:10391000872D69807A8069838A83922D832D1A018D
:10392000492E582EB20162197309072E000C880B1C
:10393000990B0E94F8226F83788789879A8769811B
:103940007A8166197709072E000C880B990B0E9463
:10395000F8224B015C012F81388549855A850E94E8
:103960004E226B837C838D839E8320E030E0A9010F
:103970000E94E72387FF09C08B819C81AD81BE81B6
:10398000B0588B839C83AD83BE83C12CD12C760130
:1039900020E030E0A9016F81788589859A850E94B1
:1039A000E72318160CF077C0421453040CF477C0C8
:1039B000A801B301C1010E94CD1B2B813C814D8127
:1039C0005E81C701B6010E94D8216B017C0120E015
:1039D00030E040E05FE30E94E72387FF10C020E073
:1039E00030E0A9016F81788589859A850E94E72357
:1039F00018160CF04CC09FEF291A390AC9CF20E0E5
:103A000030E0A901C501B4010E94E7231816CCF5E6
:103A100029813A812615370514F3A801B301C101A4
:103A20000E94CD1BA1E0B0E0BC87AB8720E030E076
:103A3000A901C501B4010E94E723181614F01C86E1
:103A40001B8621E030E03E872D8720E030E0A90191
:103A5000C501B4010E94442287FD02C01E861D8656
:103A60008B859C85AD85BE858A1B9B0B680E791E58
:103A700020E030E040E85FE3C701B6010E94D721B3
:103A8000A4CF89819A81681679063CF6A8CFA1E077
:103A90002A1A31087DCF241435040CF089CF2E96D4
:103AA0000FB6F894DEBF0FBECDBFDF91CF911F914F
:103AB0000F91FF90EF90DF90CF90BF90AF909F90CD
:103AC0008F907F906F905F904F903F902F900895D0
:103AD0002F923F924F925F926F927F928F929F921E
:103AE000AF92BF92CF92DF92EF92FF920F931F930C
:103AF000CF93DF936C014B01190185E0489F2001B2
:103B00001124E12CF12C80EA481A510866246394B0
:103B1000712CF201EE0DFF1DE95EFC4FE4912114C2
:103B2000310409F4E09500E010E0CE2FD0E056011A
:103B3000AE0CBF1CA301002E02C0440F551F0A94F7
:103B4000E2F74C235D23002E02C0559547950A9459
:103B5000E2F7B401600F711FC5010E94CD1B0F5F1A
:103B60001F4F0830110531F78FEFE81AF80A85E08A
:103B7000E816F10471F6DF91CF911F910F91FF903C
:103B8000EF90DF90CF90BF90AF909F908F907F90FD
:103B90006F905F904F903F902F900895CF92DF925B
:103BA000EF92FF920F931F93CF93DF937B018A01D4
:103BB0006901D82FC0E0F801EC0FF11D40814423CA
:103BC00049F09601B7018D2F90E00E94681DDB5FE0
:103BD000CF5FF1CFDF91CF911F910F91FF90EF90C9
:103BE000DF90CF90089525B12F7D30E2839FC001F3
:103BF0001124822B85B95F9887E090E070E08F9860
:103C00009B01082E02C0359527950A94E2F720FF04
:103C100002C02E9A01C02E988F9A019780F75F9A62
:103C20000895CF93C82F579A249A259A269A879A4F
:103C30002C985F9A2C9A61E280E00E94F31D6C2F11
:103C4000606880E00E94F31D64E080E00E94F31D44
:103C500063E180E00E94F31D6CE080E00E94F31DB0
:103C600060E280E00E94F31D6CE080E00E94F31DA2
:103C700060E480E00E94F31D60E880E0CF910C9446
:103C8000F31DCF93DF93C8EFD1E060E081E00E94A5
:103C9000F31D2197D1F7DF91CF910895CF93C82FCE
:103CA000606480E00E94F31D6C2F606880E0CF911B
:103CB0000C94F31DA0E1B0E0E0E6FEE10C941725C2
:103CC0007C011B016A01FC0117821682838181FF3E
:103CD00044C39E012F5F3F4F3901F7019381F101EA
:103CE00093FD859193FF81911F01882309F431C3CE
:103CF000853239F493FD859193FF81911F018532BF
:103D000039F4B70190E00E94982656016501E5CF8D
:103D100010E0512C912CFFE1F915D8F08B3279F09D
:103D200038F4803279F08332A1F4F92DF0612EC09D
:103D30008D3261F0803369F4292D21602DC0392D39
:103D40003260932E892D8460982E2AC0E92DE86078
:103D500015C097FC2DC020ED280F2A3088F496FE60
:103D600006C03AE0139F200D1124122F19C08AE0DB
:103D7000589E200D1124522EE92DE0629E2E10C077
:103D80008E3231F496FCE5C2F92DF0649F2E08C006
:103D90008C3621F4292D2068922E02C0883641F4F9
:103DA000F10193FD859193FF81911F018111B3CFA3
:103DB0009BEB980F933020F4992D9061805E07C0A3
:103DC0009BE9980F933008F066C1992D9F7E96FF6E
:103DD00016E09F73992E853619F49064992E08C0C9
:103DE000863621F4392F3068932E02C011111150FC
:103DF00097FE07C01C3350F444244394410E27E03F
:103E00000BC0183038F027E017E005C027E09CE32E
:103E1000492E02C0212F412C560184E0A80EB11C6E
:103E2000F6016081718182819381042DA3010E943A
:103E3000AA256C01F981FC87F0FF02C0F3FF06C0E0
:103E400091FC06C092FE06C000E205C00DE203C070
:103E50000BE201C000E08C858C7019F001115AC290
:103E60009BC297FE10C04C0CFC85F4FF04C08A81F5
:103E7000813309F44A94141474F528E0241578F574
:103E800088E0482E2CC096FC2AC0812F90E08C152B
:103E90009D059CF03CEFC3163FEFD30674F0892DCF
:103EA0008068982E0AC0E2E0F0E0EC0FFD1FE10F01
:103EB000F11D8081803319F411501111F4CF97FE58
:103EC0000EC044244394410E812F90E0C816D906B9
:103ED0002CF41C1904C04424439401C010E097FE44
:103EE00006C01C141D0434F4C601019605C085E00B
:103EF00090E002C081E090E001110196112331F0C1
:103F0000212F30E02F5F3F4F820F931F252D30E090
:103F10008217930714F4581A01C0512C892D897007
:103F200049F4552039F0B70180E290E00E949826CC
:103F30005A94F7CF002329F0B701802F90E00E9418
:103F4000982693FC09C0552039F0B70180E390E032
:103F50000E9498265A94F7CF97FE4CC04601D7FE90
:103F600002C0812C912CC60188199909F301E80F30
:103F7000F91FFE87ED87960124193109388B2F87A9
:103F8000012F10E01195019511093FEF831693065B
:103F900029F4B7018EE290E00E949826C814D90453
:103FA0004CF08F8598898815990524F4ED85FE8558
:103FB000818101C080E3F1E08F1A91082D853E8553
:103FC0002F5F3F4F3E872D87801691062CF0B7015B
:103FD00090E00E949826D9CFC814D90441F49A8160
:103FE000963320F4953319F43C8534FF81E3B7010F
:103FF00090E04EC08A81813319F09C859F7E9C871A
:10400000B70190E00E949826111105C094FC18C0D9
:1040100085E690E017C0B7018EE290E00E949826F6
:104020001E5F82E001E0080FF301E80FF11D8081BF
:10403000B70190E00E949826802F0113F3CFE6CFBE
:1040400085E490E0B7010E949826D7FC06C0C11411
:10405000D10441F4EC85E4FF05C0D194C194D108AA
:104060008DE201C08BE2B70190E00E94982680E3C8
:104070002AE0C216D1042CF08F5FFAE0CF1AD108E3
:10408000F7CFB70190E00E949826B701C601C0960D
:104090000E94982654C1833631F0833779F08335F6
:1040A00009F056C020C0560132E0A30EB11CF60143
:1040B0008081898301E010E0630112C05601F2E0C3
:1040C000AF0EB11CF601C080D18096FE03C0612FF7
:1040D00070E002C06FEF7FEFC6010E948D268C0159
:1040E000F92DFF7714C0560122E0A20EB11CF60193
:1040F000C080D18096FE03C0612F70E002C06FEFD8
:104100007FEFC6010E9482268C01F92DF0689F2E58
:10411000F3FD1AC0852D90E008171907A8F4B70120
:1041200080E290E00E9498265A94F4CFF60197FC22
:10413000859197FE81916F01B70190E00E949826CA
:1041400051105A94015011090115110579F7F7C062
:10415000843611F0893661F5560197FE09C024E0D6
:10416000A20EB11CF60160817181828193810AC027
:10417000F2E0AF0EB11CF60160817181072E000CD8
:10418000880B990BF92DFF769F2E97FF09C090950C
:104190008095709561957F4F8F4F9F4FF0689F2E50
:1041A0002AE030E0A3010E940427C82EC6183FC0B1
:1041B000092D853721F40F7E2AE030E01DC0097FEC
:1041C0008F3691F018F4883559F0C3C0803719F054
:1041D000883711F0BEC0006104FF09C0046007C049
:1041E00094FE08C0066006C028E030E005C020E16B
:1041F00030E002C020E132E0560107FF09C084E050
:10420000A80EB11CF601608171818281938108C082
:10421000F2E0AF0EB11CF6016081718180E090E0A8
:10422000A3010E940427C82EC6180F77902E96FE71
:104230000BC0092D0E7FC11650F494FE0AC092FCEB
:1042400008C0092D0E7E05C0DC2C092D03C0DC2C16
:1042500001C0D12E04FF0DC0FE01EC0DF11D8081C7
:10426000803311F4097E09C002FF06C0D394D394B1
:1042700004C0802F867809F0D39403FD11C000FF9D
:1042800006C01C2DD51480F4150D1D190DC0D514B4
:1042900058F4B70180E290E00E949826D394F7CFBB
:1042A000D51410F45D1801C0512C04FF10C0B701E3
:1042B00080E390E00E94982602FF17C001FD03C032
:1042C00088E790E002C088E590E0B7010CC0802F3D
:1042D000867859F001FF02C08BE201C080E207FD41
:1042E0008DE2B70190E00E949826C11638F4B7011C
:1042F00080E390E00E9498261150F7CFCA94F30112
:10430000EC0DF11D8081B70190E00E949826C1104C
:10431000F5CF15C0F4E0F51560F584E0581A93FE6A
:104320001FC0011127C02C8523FF2AC00CE411E017
:10433000392D3071932EF8018491811124C05520BC
:1043400009F4E4CCB70180E290E00E9498265A94E8
:10435000F6CFF7018681978126C08FEF9FEF23C0AC
:10436000B70180E290E00E9498265A945110F8CF4D
:10437000D8CF512CB701802F90E00E949826D3CF40
:1043800000E511E0D5CF91108052B70190E00E9476
:1043900098260F5F1F4FCFCF23E0251510F483E041
:1043A000BDCF512CC0CF6096E2E10C94332550581C
:1043B000BB27AA270E94EF210C9499230E94602317
:1043C00038F00E94672320F039F49F3F19F426F457
:1043D0000C945D230EF4E095E7FB0C945723E92F32
:1043E0000E94BE2358F3BA17620773078407950724
:1043F00020F079F4A6F50C94E0230EF4E0950B2E52
:10440000BA2FA02D0B01B90190010C01CA01A00126
:104410001124FF27591B99F0593F50F4503E68F181
:104420001A16F040A22F232F342F4427585FF3CFC2
:10443000469537952795A795F0405395C9F77EF493
:104440001F16BA0B620B730B840BBAF09150A1F0DC
:10445000FF0FBB1F661F771F881FC2F70EC0BA0F62
:10446000621F731F841F48F4879577956795B795EA
:10447000F7959E3F08F0B0CF9395880F08F09927E5
:10448000EE0F9795879508950E94332308F481E0F5
:1044900008950E947023E3950C94AA230E9462223F
:1044A0000C9499230E94672358F00E94602340F0E7
:1044B00029F45F3F29F00C94572351110C94E12308
:1044C0000C945D230E94BE2368F39923B1F3552316
:1044D00091F3951B550BBB27AA2762177307840717
:1044E00038F09F5F5F4F220F331F441FAA1FA9F3AD
:1044F00035D00E2E3AF0E0E832D091505040E6959B
:10450000001CCAF72BD0FE2F29D0660F771F881FFB
:10451000BB1F261737074807AB07B0E809F0BB0BEE
:10452000802DBF01FF2793585F4F3AF09E3F510502
:1045300078F00C9457230C94E1235F3FE4F3983E0A
:10454000D4F3869577956795B795F7959F5FC9F7EB
:10455000880F911D9695879597F90895E1E0660F6C
:10456000771F881FBB1F621773078407BA0720F0E5
:10457000621B730B840BBA0BEE1F88F7E09508954E
:104580000E94C7226894B1110C94E12308950E94FF
:10459000C62388F09F5798F0B92F9927B751B0F0EC
:1045A000E1F0660F771F881F991F1AF0BA95C9F7B7
:1045B00014C0B13091F00E94E023B1E008950C9452
:1045C000E023672F782F8827B85F39F0B93FCCF305
:1045D000869577956795B395D9F73EF49095809534
:1045E000709561957F4F8F4F9F4F0895E89409C054
:1045F00097FB3EF490958095709561957F4F8F4F16
:104600009F4F9923A9F0F92F96E9BB279395F6952B
:10461000879577956795B795F111F8CFFAF4BB0FA9
:1046200011F460FF1BC06F5F7F4F8F4F9F4F16C00D
:10463000882311F096E911C0772321F09EE8872F97
:10464000762F05C0662371F096E8862F70E060E053
:104650002AF09A95660F771F881FDAF7880F9695CC
:10466000879597F90895990F0008550FAA0BE0E870
:10467000FEEF16161706E807F907C0F01216130624
:10468000E407F50798F0621B730B840B950B39F464
:104690000A2661F0232B242B252B21F408950A26CA
:1046A00009F4A140A6958FEF811D811D089597F90A
:1046B0009F6780E870E060E008959FEF80EC0895C8
:1046C00000240A94161617061806090608950024F1
:1046D0000A94121613061406050608950C945D2319
:1046E0000E94C623D8F3E894E0E0BB279F57F0F080
:1046F0002AED3FE049EC06C0EE0FBB0F661F771FA7
:10470000881F28F0B23A62077307840728F0B25A6C
:10471000620B730B840BE3959A9572F7803830F433
:104720009A95BB0F661F771F881FD2F790480C948D
:10473000A224092E0394000C11F4882352F0BB0F1D
:1047400040F4BF2B11F460FF04C06F5F7F4F8F4FA9
:104750009F4F0895EF93E0FF07C0A2EA2AED3FE0E4
:1047600049EC5FEB0E94EF210E9499230F90039484
:1047700001FC9058EEE2F1E00C94AE2457FD905805
:10478000440F551F59F05F3F71F04795880F97FB15
:10479000991F61F09F3F79F08795089512161306CF
:1047A0001406551FF2CF4695F1DF08C016161706FE
:1047B0001806991FF1CF8695710561050894089533
:1047C000E894BB2766277727CB0197F908950E94C5
:1047D000332308F48FEF08950E94FF230C9499234C
:1047E0000E94602338F00E94672320F0952311F087
:1047F0000C9457230C945D2311240C94E1230E9404
:10480000BE2370F3959FC1F3950F50E0551F629F33
:10481000F001729FBB27F00DB11D639FAA27F00D19
:10482000B11DAA1F649F6627B00DA11D661F829F40
:104830002227B00DA11D621F739FB00DA11D621F25
:10484000839FA00D611D221F749F3327A00D611D42
:10485000231F849F600D211D822F762F6A2F112424
:104860009F5750409AF0F1F088234AF0EE0FFF1F57
:10487000BB1F661F771F881F91505040A9F79E3FAE
:10488000510580F00C9457230C94E1235F3FE4F32F
:10489000983ED4F3869577956795B795F795E79504
:1048A0009F5FC1F7FE2B880F911D9695879597F90D
:1048B00008950E94C623E8F09E37E8F09639B8F4D0
:1048C0009E3848F4672F782F8827985FF9CF869510
:1048D0007795679593959539D0F3B62FB1706B0F97
:1048E000711D811D20F487957795679593950C949C
:1048F00085240C94A0240C94E1239F930E947023A0
:104900000F9007FCEE5F0C94AA23882371F47723A1
:1049100021F09850872B762F07C0662311F4992732
:104920000DC09051862B70E060E02AF09A95660FDA
:10493000771F881FDAF7880F9695879597F908955E
:104940009F3F31F0915020F4879577956795B79503
:10495000880F911D9695879597F908959F938F934A
:104960007F936F93FF93EF939B01AC010E94EC2325
:10497000EF91FF910E94C2242F913F914F915F913F
:104980000C94EC23DF93CF931F930F93FF92EF923E
:10499000DF927B018C01689406C0DA2EEF010E9441
:1049A000FF23FE01E894A5912591359145915591FC
:1049B000A6F3EF010E94EF21FE019701A801DA940E
:1049C00069F7DF90EF90FF900F911F91CF91DF91EA
:1049D0000895AA1BBB1B51E107C0AA1FBB1FA61746
:1049E000B70710F0A61BB70B881F991F5A95A9F798
:1049F00080959095BC01CD01089597FB072E16F484
:104A0000009407D077FD09D00E94E92407FC05D067
:104A10003EF4909581959F4F0895709561957F4FD5
:104A20000895EE0FFF1F0590F491E02D09942F9249
:104A30003F924F925F926F927F928F929F92AF922E
:104A4000BF92CF92DF92EF92FF920F931F93CF937B
:104A5000DF93CDB7DEB7CA1BDB0B0FB6F894DEBF12
:104A60000FBECDBF09942A88398848885F846E8438
:104A70007D848C849B84AA84B984C884DF80EE8082
:104A8000FD800C811B81AA81B981CE0FD11D0FB68B
:104A9000F894DEBF0FBECDBFED0108958F929F92B7
:104AA000AF92BF92CF92DF92EF92FF92CF93DF93BC
:104AB000EC01688179818A819B816115710581058D
:104AC000910521F464E279ED8BE597E02DE133EF78
:104AD00041E050E00E94622749015A019B01AC016C
:104AE000A7EAB1E40E9481276B017C01ACEEB4EF30
:104AF000A50194010E948F27DC01CB018C0D9D1D27
:104B0000AE1DBF1DB7FF03C00197A109B048888340
:104B10009983AA83BB839F77DF91CF91FF90EF901A
:104B2000DF90CF90BF90AF909F908F9008950E949C
:104B30004E25089588E291E00E944E250895A0E058
:104B4000B0E08093280190932901A0932A01B093AB
:104B50002B010895283008F027E03327DA01990F58
:104B6000311D87FD916000966105710539F4326051
:104B70002E5F3D9330E32A95E1F708959F3F30F093
:104B800080387105610509F03C5F3C5F3D939130D1
:104B900008F08068911DDF93CF931F930F93FF92CE
:104BA000EF92192F987F9695E92F96959695E90F94
:104BB000FF27E255FE4F99273327EE24FF24A70154
:104BC000E70105900894079428F4360FE71EF81EB5
:104BD000491F511D660F771F881F991F0694A1F763
:104BE0000590079428F4E70EF81E491F561FC11DB3
:104BF000770F881F991F661F0694A1F705900794E9
:104C000028F4F80E491F561FC71FD11D880F991F82
:104C1000661F771F0694A1F70590079420F4490FAB
:104C2000561FC71FD81F990F661F771F881F06942E
:104C3000A9F784911095177041F0D695C7955795AF
:104C40004795F794E7941A95C1F7E4E5F1E0689485
:104C50001590159135916591959105907FE2739529
:104C6000E118F10A430B560BC90BD009C0F7E10C50
:104C7000F11E431F561FC91FD01D7EF4703311F45F
:104C80008A95E6CFE894015030F0080F0AF4002727
:104C9000021708F4202F2395022F7A3328F079E3A6
:104CA0007D932A95E9F710C07D932A9589F606949D
:104CB00097956795379517951794E118F10A430B67
:104CC000560BC90BD00998F023957E9173957A33D2
:104CD00008F070E37C932013B8F77E9170617D93A8
:104CE00030F0839571E37D9370E32A95E1F7112409
:104CF000EF90FF900F911F91CF91DF91992787FD42
:104D000090950895FC010590615070400110D8F70E
:104D1000809590958E0F9F1F0895FC016150704003
:104D200001900110D8F7809590958E0F9F1F0895E0
:104D30000F931F93CF93DF93FB01238121FD03C0CA
:104D40008FEF9FEF2CC022FF16C046815781248130
:104D500035814217530744F4A081B1819D012F5F33
:104D60003F4F318320838C93268137812F5F3F4FC4
:104D70003783268314C08B01EC01FB010084F1858D
:104D8000E02D0995892BE1F6D80116968D919C911D
:104D90001797019617969C938E931697CE01DF91E5
:104DA000CF911F910F910895AEE0B0E0EAEDF6E2E9
:104DB0000C9425250D891E898F89988D26E02C83DA
:104DC0001A83098397FF02C080E090E801979E83D1
:104DD0008D83AE01455E5F4F698D7A8DCE01019660
:104DE0000E945A1E4D815E8157FD0AC02F81388571
:104DF000421753070CF49A01F801E20FF31F1082D7
:104E00002E96E4E00C944125FA01AA27283051F1AE
:104E1000203181F1E8946F936E7F6E5F7F4F8F4FEB
:104E20009F4FAF4FB1E03ED0B4E03CD0670F781F4A
:104E3000891F9A1FA11D680F791F8A1F911DA11D2F
:104E40006A0F711D811D911DA11D20D009F4689468
:104E50003F912AE0269F11243019305D3193DEF610
:104E6000CF010895462F4770405D4193B3E00FD0C6
:104E7000C9F7F6CF462F4F70405D4A3318F0495DB1
:104E800031FD4052419302D0A9F7EACFB4E0A69594
:104E90009795879577956795BA95C9F700976105B6
:104EA000710508959B01AC010A2E0694579547950C
:104EB00037952795BA95C9F7620F731F841F951F01
:104EC000A01D0895052E97FB1EF400940E947927DB
:104ED00057FD07D00E94942707FC03D04EF40C9492
:104EE000792750954095309521953F4F4F4F5F4F13
:104EF000089590958095709561957F4F8F4F9F4F46
:104F000008950E94B627A59F900DB49F900DA49F71
:104F1000800D911D11240895B7FF0C9481270E94E4
:104F20008127821B930B0895A1E21A2EAA1BBB1B9B
:104F3000FD010DC0AA1FBB1FEE1FFF1FA217B30765
:104F4000E407F50720F0A21BB30BE40BF50B661F7B
:104F5000771F881F991F1A9469F76095709580953F
:104F600090959B01AC01BD01CF010895A29FB001B6
:104F7000B39FC001A39F700D811D1124911DB29F8D
:0E4F8000700D811D1124911D0895F894FFCF2E
:104F8E000AD7233C9A99993E0600050004000500B5
:104F9E0001050001000000004100001C4200009CC1
:104FAE004200E1000000000801000000151F040E81
:104FBE000A13131E0E0A0302030502050705050751
:104FCE002530326400256600256400546F6D20265E
:104FDE00204A657272792100484954205357332074
:104FEE00544F205354415254004A616D65732053FF
:104FFE00636F7474004E39393433363138004C7661
:10500E000048500053004C3A00483A00533A0050C2
:06501E004155534544001A
:00000001FF
