:100000000C947C020C9499020C9499020C94990221
:100010000C9499020C9499020C9499020C949902F4
:100020000C9499020C9499020C9478180C94B218C0
:100030000C9499020C9499020C9499020C949902D4
:100040000C9499020C9499020C9499020C949902C4
:100050000C9499020C9499020C9499020C94FE143D
:100060000C9499020C9499020C9499020C949902A4
:100070000C9499020C9499020C9499020C94990294
:100080000C9499020C9499020C9499020C94990284
:100090000C9499020C9499020C9499020C94990274
:1000A0000C9499020C9499020C9499021918151841
:1000B00011180D18091805180118FD17F917F5176B
:1000C000F117ED17E917E517E117DD17D917D51760
:1000D000D117CD17C917C517C117BD17B917B51750
:1000E000B117AD17A917A517A1179D179917951740
:1000F00091178D178917851781177D177917751730
:1001000071176D176917651761175D17591755171F
:1001100051174D174917451741173D17391735170F
:1001200031172D172917251721171D17191705A87E
:100130004CCDB2D44EB93836A9020C50B99186884C
:10014000083CA6AAAA2ABE000000803F6E616E008D
:10015000696E660000407A10F35A00A0724E1809CA
:100160000010A5D4E80000E87648170000E40B541E
:10017000020000CA9A3B000000E1F50500008096ED
:100180009800000040420F000000A086010000001F
:10019000102700000000E8030000000064000000D9
:1001A00000000A00000000000100000000002C76A2
:1001B000D888DC674F0823DFC1DFAE59E1B1B796BD
:1001C000E5E3E453C63AE651997696E8E6C284261A
:1001D000EB898C9B62ED407C6FFCEFBC9C9F40F2F6
:1001E000BAA56FA5F490055A2AF75C936B6CF96772
:1001F0006DC11BFCE0E40D47FEF520E6B500D0ED37
:10020000902E0300943577050080841E080000209E
:100210004E0A000000C80C333333330F986E12833C
:100220001141EF8D2114893BE65516CFFEE6DB1810
:10023000D1844B381BF77C1D901DA4BBE4242032D5
:1002400084725E228100C9F124ECA1E53D27000102
:100250000000FB021200020000B80243000300008D
:10026000B40204010309049E021402030904860275
:10027000160303090478020C0C033100320033002A
:1002800034003500000016035500530042002000E2
:10029000530065007200690061006C0000001403E7
:1002A00059006F007500720020004E0061006D0063
:1002B000650000000403090409024300020100C0B4
:1002C00032090400000102020100052400100105AA
:1002D0002401010104240206052406000107058209
:1002E0000310004009040100020A00000007050392
:1002F00002400000070584024000001201000202D3
:10030000000010C0167A040001010203010001C1BF
:1003100012018036018136000000000000005F00FD
:10032000000007000700147F147F14242A7F2A127C
:10033000231308646236495522500005030000006B
:100340001C2241000041221C0014083E0814080829
:100350003E080800503000000808080808006060E7
:10036000000020100804023E5149453E00427F40F3
:100370000042615149462141454B311814127F100A
:1003800027454545393C4A4949300171090503363D
:1003900049494936064949291E00363600000056AB
:1003A00036000008142241001414141414004122D1
:1003B00014080201510906324979413E7E1111119A
:1003C0007E7F494949363E414141227F4141221CBD
:1003D0007F494949417F090909013E4149497A7FDD
:1003E0000808087F00417F41002040413F017F080D
:1003F0001422417F404040407F020C027F7F04086E
:10040000107F3E4141413E7F090909063E4151218D
:100410005E7F09192946464949493101017F010199
:100420003F4040403F1F2040201F3F4038403F6337
:100430001408146307087008076151494543007F99
:1004400041410002040810200041417F00040201E4
:100450000204404040404000010204002054545433
:10046000787F484444383844444420384444487FE2
:100470003854545418087E0901020C5252523E7FDF
:100480000804047800447D40002040443D007F1073
:1004900028440000417F40007C041804787C080454
:1004A000047838444444387C14141408081414188C
:1004B0007C7C080404084854545420043F444020E1
:1004C0003C4040207C1C2040201C3C4030403C44B0
:1004D000281028440C5050503C4464544C440008AC
:1004E00036410000007F0000004136080010080877
:1004F000100878464146780011241FBECFEFDAE09D
:10050000DEBFCDBF11E0A0E0B1E0EAE5FCE402C04F
:1005100005900D92A439B107D9F726E0A4E9B1E01E
:1005200001C01D92A93FB207E1F70E94E5140C94A7
:100530002B260C940000DF92EF92FF920F931F93F3
:10054000CF93DF93CDB7DEB72A970FB6F894DEBF0F
:100550000FBECDBF082F162FD22E1F924F938EE3C2
:1005600091E09F938F931F928AE08F93CE01019623
:100570007C019F938F930E943A25612F70E02D2D6F
:10058000A701802F90E00E94341C0FB6F894DEBFC4
:100590000FBECDBF2A960FB6F894DEBF0FBECDBFFB
:1005A000DF91CF911F910F91FF90EF90DF90089511
:1005B0009B0177FF02C0295F3F4FE3E03595279508
:1005C000EA95E1F7A4E5A29FF001A39FF00D1124A5
:1005D0004E0F5F1FFA01E80FF91F208130E0CB01B9
:1005E00068E070E00E946323A90102C05595479519
:1005F0008A95E2F7CA018170992708950E94002424
:1006000060E570E00E94632397FF03C09195819598
:10061000910908950E94002460E370E00E94632322
:100620000B9797FF03C091958195910908960895BE
:100630006F927F928F929F92AF92BF92CF92DF92F2
:10064000EF92FF920F931F93CF93DF936C017B0187
:100650004A015901C0E0D0E0CA15DB05D4F400E03E
:1006600010E03E016E0C7F1C081519056CF441E08A
:1006700055E0B301C601800F911F0E94D802892B5B
:1006800029F40F5F1F4FF0CF2196E6CF81E090E075
:1006900002C080E090E0DF91CF911F910F91FF9019
:1006A000EF90DF90CF90BF90AF909F908F907F9012
:1006B0006F900895FB019C0128503E4FDC014D9145
:1006C000CD014193A217B307C9F70895DF92EF92C6
:1006D000FF920F931F93CF93DF93CDB7DEB764974D
:1006E0000FB6F894DEBF0FBECDBFD82E162F5F9386
:1006F0004F933F932F9383E491E09F938F931F92A7
:1007000084E18F93CE0101967C019F938F930E9489
:100710003A25612F70E0202FA7018D2D90E00E94D7
:10072000341C0FB6F894DEBF0FBECDBF64960FB673
:10073000F894DEBF0FBECDBFDF91CF911F910F9117
:10074000FF90EF90DF900895DF92EF92FF920F936A
:100750001F93CF93DF93CDB7DEB72A970FB6F894E8
:10076000DEBF0FBECDBFE82EF62ED22E0130110512
:1007700019F40E949B021DC01F924F9386E491E0E2
:100780009F938F931F928AE08F938E010F5F1F4F6D
:100790001F930F930E943A256F2D70E02D2DA80115
:1007A0008E2D90E00E94341C0FB6F894DEBF0FBE71
:1007B000CDBF2A960FB6F894DEBF0FBECDBFDF9136
:1007C000CF911F910F91FF90EF90DF90089580914E
:1007D00011019091120101979093120180931101E0
:1007E0001092BA011092B90188E090E0909316013E
:1007F00080931501089580E090E0ACE9B2E4809325
:100800001B0190931C01A0931D01B0931E0180E079
:1008100090E0ACE1B2E48093170190931801A093AB
:100820001901B0931A0108950E940024BC01990F88
:10083000880B990B0E945E212BED3FE049E450E4C8
:100840000E9452229B01AC010E943E2020E03EEF1C
:100850004FEF56E40E94B420609335047093360441
:1008600080933704909338040895CF92DF92EF92EB
:10087000FF920F931F93CF93DF937C018B014C3436
:10088000F1F150F4443409F06DC0C12CD12CC0E01A
:10089000D0E00C5F1F4F26C0423509F448C04535F3
:1008A00009F060C0C12CD12CC0E0D0E04BE352E095
:1008B000B801C7018C0D9D1D0E94D802892B11F033
:1008C000C1E0D0E08FEFC81AD80A85E0C816D1047D
:1008D00069F74AC08FEFC81AD80A85E0C816D10454
:1008E00009F442C04BE352E0B801C7018C0D9D1DD5
:1008F0000E94D802892B71F3C1E0D0E0EBCFC12C6C
:10090000D12CC0E0D0E04BE352E0B601600F711F84
:10091000C7010E94D802892B11F0C1E0D0E08FEF0F
:10092000C81AD80A85E0C816D10469F71DC0C12CC1
:10093000D12CC0E0D0E084E0E80EF11C4BE352E0A3
:10094000B601600F711FC7010E94D802892B11F0F8
:10095000C1E0D0E08FEFC81AD80A85E0C816D104EC
:1009600069F702C0C0E0D0E0CE01DF91CF911F91C6
:100970000F91FF90EF90DF90CF9008954F925F928C
:100980006F927F928F929F92AF92BF92CF92DF929F
:10099000EF92FF920F931F93CF93DF9300D000D07D
:1009A000CDB7DEB7C0900001D0900101E090020108
:1009B000F090030120E030E040E251E4C701B601CD
:1009C0000E9452222B013C0120E030E040EA50E43A
:1009D000C701B6010E94522269837A838B839C836C
:1009E00020E030E0A901C701B6010E945222AB010C
:1009F000BC01E1E6F4E080E090E0A0E9B1E48083AE
:100A00009183A283B38380E090E0A0E7B1E4848384
:100A10009583A683B78380E090E0A0E5B1E480876A
:100A20009187A287B387812C912C88ECA82E81E432
:100A3000B82E84869586A686B786408A518A628AB1
:100A4000738A89819A81AB81BC81848B958BA68BBB
:100A5000B78B80E090E0A0EAB0E4808F918FA28F06
:100A6000B38F80E090E0A0E2B1E4848F958FA68FF1
:100A7000B78F80A291A2A2A2B3A200E010E02CE066
:100A800032E404A315A326A337A380A691A6A2A6A9
:100A9000B3A600E010E024E332E404A715A726A7DC
:100AA00037A740AA51AA62AA73AA44AB55AB66AB5A
:100AB00077AB10AE11AE12AE13AE84AF95AFA6AF4A
:100AC000B7AF0093A1041093A2042093A304309322
:100AD000A4048093A5049093A604A093A704B093C4
:100AE000A80400E010E020E732E40093A90410938A
:100AF000AA042093AB043093AC048093AD0490938C
:100B0000AE04A093AF04B093B0044093B1045093EB
:100B1000B2046093B3047093B40420E030E040E783
:100B200051E4C701B6010E945222DC01CB01B0584A
:100B30008093B5049093B604A093B704B093B8041F
:100B400080E090E0A0E7B1E48093B9049093BA0408
:100B5000A093BB04B093BC041092BD041092BE04D9
:100B60001092BF041092C00480E090E0A8E6B2E4C6
:100B70008093C1049093C204A093C304B093C404AF
:100B80008092C5049092C604A092C704B092C80493
:100B900080E090E0A0E9B2E48093C9049093CA0495
:100BA000A093CB04B093CC0480E090E0A0EFB1E43C
:100BB0008093CD049093CE04A093CF04B093D0043F
:100BC00089809A80AB80BC80B7FAB094B7F8B094B3
:100BD0008092D1049092D204A092D304B092D40413
:100BE00020E030E040E651E4C701B6010E94522205
:100BF0006093D5047093D6048093D7049093D8045F
:100C000080E090E0A0E6B1E48093D9049093DA0408
:100C1000A093DB04B093DC0480E090E0A0EAB0E4B1
:100C20008093DD049093DE04A093DF04B093E0048E
:100C30000F900F900F900F90DF91CF911F910F9118
:100C4000FF90EF90DF90CF90BF90AF909F908F90EC
:100C50007F906F905F904F9008954F925F926F9248
:100C60007F928F929F92AF92BF92CF92DF92EF923C
:100C7000FF92CF93DF9300D000D000D0CDB7DEB786
:100C8000843509F00CC1C0901701D0901801E09094
:100C90001901F0901A01C701B6010E9426214B01EB
:100CA0005C0140901B0150901C0160901D017090F0
:100CB0001E01C301B2010E94262169837A838B83BE
:100CC0009C834CE4B40189819A810E943504019788
:100CD000A1F420E030E040E85FE3C301B2010E94EC
:100CE0003E2060931B0170931C0180931D01909323
:100CF0001E011D8221E02E831DC042E5B4018981C1
:100D00009A810E943504019799F420E030E040E890
:100D10005FE3C301B2010E943D2060931B01709309
:100D20001C0180931D0190931E0181E08D8301C001
:100D30001D821E8240901B0150901C0160901D017D
:100D400070901E01C301B2010E94262169837A833B
:100D50008B839C8345E5B40189819A810E94350487
:100D600020E030E040E85FE3019779F4C701B60185
:100D70000E943E206093170170931801809319011F
:100D800090931A0180E091E021C0C701B6010E9452
:100D90003E200E94262144E489819A810E943504E4
:100DA000019791F420E030E040E85FE3C701B6012D
:100DB0000E943D20609317017093180180931901E0
:100DC00090931A0181E001C080E090E02E81211112
:100DD00007C02D81211104C0911102C08823B1F0F8
:100DE00026960FB6F894DEBF0FBECDBFDF91CF9130
:100DF000FF90EF90DF90CF90BF90AF909F908F903B
:100E00007F906F905F904F900C941404C0901701E6
:100E1000D0901801E0901901F0901A0120E030E024
:100E200040EC50E4C701B6010E94AA2087FD1FC014
:100E300020E030E044E352E4C701B6010E944D22B5
:100E40001816ACF020E030E040E85FEBC301B201DF
:100E50000E94AA2087FD0BC020E030E044EA52E463
:100E6000C301B2010E944D2218160CF09CC00E94D2
:100E7000140426960FB6F894DEBF0FBECDBFDF91E7
:100E8000CF91FF90EF90DF90CF90BF90AF909F9069
:100E90008F907F906F905F904F900C94FB038A34FB
:100EA00009F081C0E0901501F0901601C090B901E1
:100EB000D090BA014CE4B701C6010E9435040197F5
:100EC00059F48FEFC81AD80AD092BA01C092B9016A
:100ED000198221E02D8313C042E5B701C6010E94AB
:100EE0003504019751F481E0C81AD108D092BA01B3
:100EF000C092B90121E0298301C019821D82C090EE
:100F0000B901D090BA0145E5B701C6010E94350488
:100F1000019759F48FEFE81AF80AF0921601E0925F
:100F200015012D81222391F03AC044E4B701C60196
:100F30000E943504019739F481E0E81AF108F09233
:100F40001601E09215012D81211125C08091150116
:100F50009091160108978597B0F026960FB6F894F1
:100F6000DEBF0FBECDBFDF91CF91FF90EF90DF903E
:100F7000CF90BF90AF909F908F907F906F905F9039
:100F80004F900C94E7032FEFC21AD20A81E5C816DE
:100F9000D10418F708C089818111DFCFD7CF29810B
:100FA0002111DBCFD3CF26960FB6F894DEBF0FBE4C
:100FB000CDBFDF91CF91FF90EF90DF90CF90BF90AA
:100FC000AF909F908F907F906F905F904F9008951B
:100FD0004F925F926F927F928F929F92AF92BF9249
:100FE000CF92DF92EF92FF920F93CF93DF93C1E600
:100FF000D4E0C888D988EA88FB88A701960168816F
:1010000079818A819B810E943E20688379838A83CB
:101010009B83A7019601688579858A859B850E94B7
:101020003E20688779878A879B87CC88DD88EE8811
:10103000FF88A70196016C817D818E819F810E942E
:101040003E206C837D838E839F83A70196016C85F0
:101050007D858E859F850E943E206C877D878E874B
:101060009F878AE40E942D0684E50E942D06C88889
:10107000D988EA88FB8820E030E0A901C701B601E1
:101080000E944D221816CCF5488059806A807B80DA
:1010900020E030E048EA52E4C301B2010E944D2250
:1010A00087FD72C0C884D984EA84FB8420E030E0E4
:1010B00048EA52E4C701B6010E944D2287FD64C090
:1010C00020E030E048EA52E4688D798D8A8D9B8D6E
:1010D0000E943E204B015C019B01AC01C301B201A7
:1010E0000E943D20688379838A839B83A5019401B4
:1010F000C701B6010E943D2043C020E030E0A901B5
:10110000C701B6010E94AA2087FF3EC048805980CF
:101110006A807B8020E030E0A901C301B2010E9417
:10112000AA2018168CF188849984AA84BB8420E0B4
:1011300030E0A901C501B4010E94AA20181624F1CB
:10114000C88CD98CEA8CFB8C20E030E048EA52E471
:10115000C301B2010E943E20A70196010E943E20D9
:10116000688379838A839B8320E030E048EA52E4F5
:10117000C501B4010E943E20A70196010E943E20B5
:10118000688779878A879B87CC88DD88EE88FF8887
:1011900020E030E0A901C701B6010E94AA2087FF24
:1011A0003FC04C805D806E807F8020E030E040E07A
:1011B00051E4C301B2010E94AA2018160CF475C0B4
:1011C0008C849D84AE84BF8420E030E040E051E414
:1011D000C501B4010E94AA2018160CF466C0CC8C7C
:1011E000DD8CEE8CFF8C20E030E040E252E4C30165
:1011F000B2010E943E20A70196010E943E206C830E
:101200007D838E839F8320E030E040E252E4C5017D
:10121000B4010E943E20A70196010E943E2041C0D9
:1012200020E030E0A901C701B6010E944D22181646
:10123000E4F54C805D806E807F8020E030E040E40B
:1012400052E4C301B2010E944D2287FD2EC0CC841E
:10125000DD84EE84FF8420E030E040E452E4C70106
:10126000B6010E944D2287FD20C020E030E044E21C
:1012700052E46C8D7D8D8E8D9F8D0E943E204B01A2
:101280005C019B01AC01C301B2010E943D206C8353
:101290007D838E839F83A5019401C701B6010E94BF
:1012A0003D206C877D878E879F876C857D858E85A9
:1012B0009F850E9426212B013C01688579858A85BE
:1012C0009B850E9426214B015C016C817D818E8172
:1012D0009F810E9426216B017C01688179818A812E
:1012E0009B810E942621DC01CB0101E09201A40137
:1012F000B6010E946C1AA09684E0C13ED80709F09E
:1013000078CEDF91CF910F91FF90EF90DF90CF904B
:10131000BF90AF909F908F907F906F905F904F9015
:1013200008954F925F926F927F928F929F92AF92A9
:10133000BF92CF92DF92EF92FF920F93CF93DF9302
:10134000C1E6D4E06C857D858E859F850E9426212F
:101350002B013C01688579858A859B850E94262121
:101360004B015C016C817D818E819F810E942621D1
:101370006B017C01688179818A819B810E94262191
:10138000DC01CB0101E09201A401B6010E946C1ABC
:10139000A09684E0C13ED807A9F6DF91CF910F91C6
:1013A000FF90EF90DF90CF90BF90AF909F908F9085
:1013B0007F906F905F904F90089585988698229ABD
:1013C000239A569A519827982198509820980895D2
:1013D000789414BC85E085BD81E080936E0008950B
:1013E0001092AF011092B0011092B1011092B201AF
:1013F0001092A9011092A8010895EDE3F4E08BEF9B
:101400009FEF918380839383828315821482369623
:1014100024E0EB35F207A9F70895E3EEF4E08BEF53
:101420009FEF918380839383828315821482369603
:1014300025E0E130F207A9F7089580E090E0ACE9FB
:10144000B2E480931B0190931C01A0931D01B09303
:101450001E0180E090E0ACE1B2E48093170190932C
:101460001801A0931901B0931A011092BA011092B9
:10147000B90188E090E090931601809315010C94D7
:101480001404EFEBF1E086EF9FEF91838083938369
:10149000828315821482369622E0E733F207A9F799
:1014A00008950E94F0090E941D0A0E94FD090E94F1
:1014B0000D0A0C94410A82E090E09093140180930D
:1014C00013011092600410925F040E94FD090E94B3
:1014D0000D0A0C94410A6F927F928F929F92AF9265
:1014E000BF92CF92DF92EF92FF920F931F93CF9311
:1014F000DF936090B9017090BA01809015019090CF
:1015000016016091B7017091B801ADE3B4E020E03D
:1015100030E014968D919C911597019709F042C087
:101520007401E20EF31E40E050E08301040F151F2A
:10153000EDE3F4E0C080D18080E090E05601CFEF91
:10154000AC1ABC0AC016D106B9F0A016B10679F4DF
:10155000C281D381C80FD91FCE15DF0541F4C481E4
:10156000D581219721F4158214826F5F7F4F0196F8
:101570008330910539F70CC0C281D381C80FD91FC0
:10158000CE15DF0511F7C481D5812197F1F6EBCF98
:10159000369684E0EB35F80769F64F5F5F4F4530CC
:1015A000510519F62F5F3F4F16962530310509F08A
:1015B000B0CF7093B8016093B701DF91CF911F91C5
:1015C0000F91FF90EF90DF90CF90BF90AF909F90E2
:1015D0008F907F906F9008956F927F928F929F92DD
:1015E000AF92BF92CF92DF92EF92FF920F931F9331
:1015F000CF93DF936090B9017090BA01809015018C
:1016000090901601A0911101B0911201C3EED4E0A7
:1016100080E090E02C813D8121303105D1F57401CD
:10162000E80EF91E20E030E05301A20EB31EE3EEF7
:10163000F4E0C080D18040E050E060E070E08601DE
:10164000060F171FA016B10681F402811381040F43
:10165000151F0E151F0549F4048115810130110570
:1016600021F415821482119705C06F5F7F4F63309C
:10167000710529F74F5F5F4F43305105F1F63696FC
:1016800045E0E130F407A9F62F5F3F4F25303105E3
:1016900059F6019626968530910509F0BBCFB09397
:1016A0001201A0931101DF91CF911F910F91FF9033
:1016B000EF90DF90CF90BF90AF909F908F907F90F2
:1016C0006F900895EF92FF920F931F93CF93DF9344
:1016D00080915F04909160040197F1F500E010E0C3
:1016E000C0E0D0E0E12CF12C6091B9017091BA0119
:1016F0006C0F7D1FE0915B04F0915C04409115013B
:1017000050911601400F511F20915D0430915E04ED
:101710002E0D3F1D80E090E0DF01A80FB91F6A1772
:101720007B0731F42417350719F40E945B0A04C0C3
:1017300001968330910581F78FEFE81AF80A84E06B
:10174000E816F10489F62196C530D10559F60F5FE8
:101750001F4F0530110521F6DF91CF911F910F9199
:10176000FF90EF90089521E049E451E064E070E0DB
:101770008CE090E00E94341C21E046E551E064E1F9
:1017800070E082E090E00E94341C21E047E651E0E6
:1017900060E270E08FE090E00E94341C21E043E7BB
:1017A00051E069E270E086E190E00C94341CAF9265
:1017B000BF92CF92DF92EF92FF920F931F93CF933E
:1017C000DF9300D000D01F92CDB7DEB785E0EAE20C
:1017D000F1E0DE01119601900D928A95E1F78E01FC
:1017E0000F5F1F4FC12CD12C84E0A82EB12CE12C0F
:1017F000F12CF801808190E095012E193F0902C07B
:10180000959587952A95E2F780FF0FC060911501A5
:10181000709116016C0D7D1D8091B9019091BA01F6
:1018200041E08E0D9F1D0E94331AFFEFEF1AFF0A51
:1018300085E0E816F104E9F6EFEFCE1ADE0A0F5F55
:101840001F4FF5E0CF16D10491F60F900F900F9037
:101850000F900F90DF91CF911F910F91FF90EF901C
:10186000DF90CF90BF90AF9008952F923F924F920C
:101870005F926F927F928F929F92AF92BF92CF9220
:10188000DF92EF92FF920F931F93CF93DF9300D0DD
:1018900000D01F92CDB7DEB785E0EFE2F1E0DE01C8
:1018A000119601900D928A95E1F78E010F5F1F4FFF
:1018B000C12CD12C84E0282E312CE12CF12C4601B6
:1018C0000D2C000CAA08BB08F801808190E0910162
:1018D0002E193F0902C0959587952A95E2F780FF5A
:1018E0002BC0C501B4010E945E21209117013091E7
:1018F00018014091190150911A010E943E200E9446
:1019000026212B013C01B7010F2C000C880B990BF1
:101910000E945E2120911B0130911C0140911D010C
:1019200050911E010E943E200E942621DC01CB0125
:1019300041E0B2010E94331AFFEFEF1AFF0A85E07F
:10194000E816F10409F6EFEFCE1ADE0A0F5F1F4F1B
:10195000F5E0CF16D10409F0B0CF0F900F900F90A3
:101960000F900F90DF91CF911F910F91FF90EF900B
:10197000DF90CF90BF90AF909F908F907F906F90AF
:101980005F904F903F902F9008950C941404AF9265
:10199000BF92CF92DF92EF92FF920F931F93CF935C
:1019A000DF930091150110911601E090B901F090BC
:1019B000BA01570184E0A80EB11C60911701709123
:1019C00018018091190190911A010E9426216B0142
:1019D000EB01249660911B0170911C0180911D0107
:1019E00090911E010E9426219B016C5F7F4F0C1776
:1019F0001D0729F0C80104968C159D0539F46E1554
:101A00007F05ACF0A216B30694F00CC0E616F706FC
:101A100019F0A216B30651F4C017D10744F08C1583
:101A20009D052CF05E9A81E090E003C05E9880E016
:101A300090E0DF91CF911F910F91FF90EF90DF9099
:101A4000CF90BF90AF90089580913304909134046B
:101A5000833091052CF48DEC9CECACECBDE322C002
:101A60009C01235031092230310528F48AE999E993
:101A7000A9E9BEE317C09C01255031092230310588
:101A800028F480E090E0A0E0BFE30CC00797029745
:101A900028F483E393E3A3E3BFE304C086E696E67A
:101AA000A6E6BFE38093040190930501A09306018D
:101AB000B093070108954F925F926F927F928F9239
:101AC0009F92AF92BF92CF92DF92EF92FF9284E506
:101AD0000E942D060E94C70C892B59F00E941D0AF6
:101AE00080911101909112010197909312018093BE
:101AF00011010E94240D40903504509036046090EE
:101B0000370470903804C301B2010E94AF20C09026
:101B10000401D0900501E0900601F0900701A701B3
:101B200096010E9452224B015C016093390470932C
:101B30003A0480933B0490933C04C301B2010E9499
:101B4000E3229B01AC01C701B6010E9452226B0146
:101B50007C0160933702709338028093390290932E
:101B60003A0220911B0130911C0140911D015091BE
:101B70001E01C501B4010E943E204B015C010E9480
:101B8000BF222B013C012091170130911801409197
:101B9000190150911A01C701B6010E943E206B0144
:101BA0007C010E94BF220E94262169507109633284
:101BB000710548F4C301B2010E94262161507109E8
:101BC0006F34710570F0FF90EF90DF90CF90BF9071
:101BD000AF909F908F907F906F905F904F900C94FC
:101BE000140480921B0190921C01A0921D01B092DE
:101BF0001E01C0921701D0921801E0921901F092D3
:101C00001A01FF90EF90DF90CF90BF90AF909F9020
:101C10008F907F906F905F904F900895CF93DF9358
:101C20000E94C70C892B31F00E94FB03DF91CF91FA
:101C30000C94E70380919E01813051F4C09115010D
:101C4000D0911601C930D1051CF0219745E50DC092
:101C500080919C018130B9F4C0911501D091160199
:101C6000CB32D10584F4219644E4BE018091B901C0
:101C70009091BA010E943504892B89F5D093160101
:101C8000C09315012CC080919A01813071F4C091EC
:101C9000B901D091BA011C161D063CF42197609140
:101CA0001501709116014CE411C0809198018130AA
:101CB000B1F4C091B901D091BA01CF34D1057CF40F
:101CC0002196609115017091160142E5CE010E94A6
:101CD0003504892B21F4D093BA01C093B9010E9435
:101CE0006B0ADF91CF910C94EC0A0F931F938091B4
:101CF000B7019091B80121E00A970CF048C04CE779
:101D000051E060E070E080E090E00E94341C21E04F
:101D10004AE360E070E08AE090E00E94CE1B00E0C1
:101D200010E021E04091130160E08EE00E94A403E6
:101D300021E04FE751E060E070E085E190E00E9433
:101D4000341C21E04AE360E070E08FE190E00E9403
:101D5000CE1B21E04091110160E083E20E94A403C8
:101D600021E042E851E060E070E08AE290E00E9409
:101D7000341C21E04AE360E070E080E390E00E94E0
:101D8000CE1B21E04091B70160E084E32FC044E81E
:101D900051E060E070E080E090E00E94341C00E0E0
:101DA00010E021E04091130160E089E00E94A4036B
:101DB00021E047E851E060E070E081E190E00E94BE
:101DC000341C21E04091110160E08AE10E94A403EB
:101DD00021E04AE851E060E070E082E290E00E9499
:101DE000341C21E04091B70160E08CE20E94A40322
:101DF00020E030E040E752E46091AF017091B00123
:101E00008091B1019091B2010E944D2287FD0DC0D9
:101E10008091AE018F5F8093AE011092AF0110925E
:101E2000B0011092B1011092B20121E04091AE01D7
:101E300060E08CE30E949B0221E04AE360E070E0F6
:101E400086E490E00E94CE1B6091AF017091B001DA
:101E50008091B1019091B2010E942621462F21E08C
:101E600060E08AE40E949B0201E027E030E044E564
:101E700050E067E070E080E090E00E946C1A1F91F3
:101E80000F9108950F931F93CF93DF930E94FE024B
:101E9000EC010E940A038C0125E030E044E050E0B0
:101EA000BC01CE010E941803892B81F7EDE3F4E019
:101EB00080E090E024813581232B89F426E0289F5F
:101EC000F001299FF00D1124E35CFB4F81E090E0CD
:101ED00095838483D183C0831383028305C00196D5
:101EE00036968530910531F7DF91CF911F910F9193
:101EF0000895CF93DF93E3EEF4E080E090E0248157
:101F00003581232B29F526E0289FE001299FD00D5C
:101F10001124CD51DB4F81E090E09D838C83609153
:101F20001B0170911C0180911D0190911E010E9466
:101F3000262179836883609117017091180180913F
:101F4000190190911A010E9426217B836A8305C0A2
:101F5000019636968530910591F6DF91CF910895DF
:101F60000F931F93CF93DF930E94FE028C010E9478
:101F70000A03EC0124E030E044E050E0BC01C80179
:101F80000E941803892B81F710935C0400935B0473
:101F9000D0935E04C0935D0481E090E09093600470
:101FA00080935F04DF91CF911F910F91089560910D
:101FB000AF017091B0018091B1019091B2010E9486
:101FC0002621AB014E5F5F4F20910C0130910D0136
:101FD00042175307A9F46C5F7F4F70930D01609314
:101FE0000C010E94420F80910C0190910D018034F0
:101FF000910534F084E090E090930D0180930C0102
:102000000C946B0A6091AF017091B0018091B101A5
:102010009091B2010E942621AB014D5F5F4F20914C
:1020200008013091090142175307A9F46A5F7F4FF5
:1020300070930901609308010E94790F8091080153
:10204000909109018334910534F086E090E09093FB
:102050000901809308010C94EC0A7F928F929F9261
:10206000AF92BF92CF92DF92EF92FF920F931F93A6
:10207000CF93DF9300D01F92CDB7DEB76C01809174
:10208000340190913501A091360189839A83AB8305
:10209000CE0101967C018B015E0194E0A90EB11C7A
:1020A0004601EFEF8E1A9E0AF701708071FE05C09F
:1020B00041E0B801C6010E94331AFFEFEF1AFF0A90
:1020C00070FE05C041E0B801C4010E94331A0F5FE1
:1020D0001F4FEA14FB0441F70F900F900F90DF9110
:1020E000CF911F910F91FF90EF90DF90CF90BF9015
:1020F000AF909F908F907F9008954F925F926F92D4
:102100007F928F929F92AF92BF92CF92DF92EF9287
:10211000FF920F931F93CF93DF9300D01F92CDB701
:10212000DEB72C018091370190913801A0913901DF
:1021300089839A83AB834E0184E0880E911C8E01C3
:102140000F5F1F4F5B01A01AB10A720182E0C82E17
:10215000D12C3501600E711EF801808190E00C2CAD
:1021600002C0959587950A94E2F780FF05C041E08B
:10217000B301C7010E94331AF1E0CF1AD1088FEFE3
:10218000E81AF80AEFEFCE16DE0631F70F5F1F4FA1
:1021900008151905D1F60F900F900F90DF91CF9190
:1021A0001F910F91FF90EF90DF90CF90BF90AF9075
:1021B0009F908F907F906F905F904F900895AF9217
:1021C000BF92CF92DF92EF92FF920F931F93CF9324
:1021D000DF9300D000D0CDB7DEB780915F0490913F
:1021E0006004019709F041C080913A0190913B0150
:1021F000A0913C01B0913D0189839A83AB83BC835C
:10220000CE0101966C01E12CF12C82E0A82EB12CBC
:1022100000E010E0F601808190E09501201B310B79
:1022200002C0959587952A95E2F780FF0FC06091CF
:102230005D0470915E046E0D7F1D80915B04909132
:102240005C0441E0800F911F0E94331A0F5F1F4F03
:1022500003301105F9F6FFEFEF1AFF0A8FEFC81AE6
:10226000D80A94E0E916F10499F60F900F900F90B8
:102270000F90DF91CF911F910F91FF90EF90DF9022
:10228000CF90BF90AF900895CF93DF93CDE3D4E08C
:102290008C819D81019731F46A817B81888199814C
:1022A0000E942D10269684E0CB35D80789F7DF9160
:1022B000CF910895CF93DF93C3EED4E08C819D81BD
:1022C000019731F46A817B81888199810E947D1018
:1022D000269685E0C130D80789F7DF91CF91089520
:1022E0002F923F924F925F926F927F928F929F9226
:1022F000AF92BF92CF92DF92EF92FF920F931F9314
:10230000CF93DF93CDB7DEB762970FB6F894DEBFF9
:102310000FBECDBF4F83588769877A878B879C878D
:102320000F81188529843A84B801012E000C880B8E
:10233000990B0E945E216B017C0180901B019090A3
:102340001C01A0901D01B0901E01A50194010E94E6
:102350004D22181634F49801215031093E872D87FB
:102360000FC0A5019401C701B6010E94AA2087FFF2
:1023700005C0C80101969E878D8702C01E861D86F6
:10238000B101032C000C880B990B0E945E212B01DC
:102390003C01C0901701D0901801E0901901F09015
:1023A0001A01A70196010E944D2218162CF4210152
:1023B00091E0491A51080FC0A7019601C301B2016B
:1023C0000E94AA2087FF05C021012FEF421A520A5E
:1023D00002C0412C512C4BE352E0B2018D859E8509
:1023E0000E94D802892B09F04EC02D853E85B90187
:1023F000330F880B990B0E945E216F87788B898B36
:102400009A8B9B01AC01C501B4010E94AA20181649
:10241000E4F120E030E040E850E4C501B4010E945E
:102420003E209B01AC016F85788989899A890E9439
:10243000AA2087FF2AC07B846C84B201052C000C83
:10244000880B990B0E945E214B015C019B01AC0142
:10245000C701B6010E94AA201816ECF020E030E077
:1024600040E850E4C701B6010E943E209B01AC0148
:10247000C501B4010E94AA2087FF0DC00E94FB0382
:1024800012010D851E85712C05C012010D851E855A
:1024900077247394612C1A8309833C822B82202F2A
:1024A0003A81422D5C81672D762D80E090E0629626
:1024B0000FB6F894DEBF0FBECDBFDF91CF911F9155
:1024C0000F91FF90EF90DF90CF90BF90AF909F90D3
:1024D0008F907F906F905F904F903F902F900895D6
:1024E000EFEBF1E080E090E024813581232BC9F40B
:1024F00026E0289FF001299FF00D1124E154FE4FA2
:102500008091B9019091BA019183808380911501E6
:10251000909116019383828381E090E09583848378
:1025200008950196369684319105F1F60895CF937A
:10253000DF93CFEBD1E08C819D81019739F46A81E3
:102540007B8141E0888199810E94331A269682E03E
:10255000C733D80781F7DF91CF910895DF92EF92CB
:10256000FF920F931F93CF93DF938FEBE82E81E0C1
:10257000F82E00E010E096E0D92EF70184819581D5
:102580000197A9F4D09EE001D19ED00D1124C15431
:10259000DE4F488159816A817B818C819D810E94B7
:1025A0007011288339834A835B836C837D830F5F3B
:1025B0001F4FF6E0EF0EF11C04311105F1F6DF912B
:1025C000CF911F910F91FF90EF90DF900895809130
:1025D0009601811108C08091940190919501019715
:1025E00011F40E9470128091960190E090939501F1
:1025F000809394010E94AE120C949712CF93DF93B4
:1026000080E00E94021AC4E6D0E0BE010E944F237F
:10261000709334046093330481E00E94021ABE0177
:102620000E944F237093E2046093E104DF91CF9105
:102630000895CF92DF92EF92FF92CF93DF93609154
:10264000A8017091A901D6B5C091AE01072E000C6A
:10265000880B990B0E945E2120E030E040E853E4B3
:102660000E9452226B017C016D2F70E080E090E0AF
:102670000E945E219B01AC01C701B6010E943E2071
:1026800020E030E040E854E40E94522220E034E2AE
:1026900044EF5AE40E94B4202091B3013091B40178
:1026A0004091B5015091B6010E943D206B017C0123
:1026B0008CE3C89FB0011124072E000C880B990BE6
:1026C0000E945E219B01AC01C701B6010E943D2022
:1026D0006093AF017093B0018093B1019093B20108
:1026E000DF91CF91FF90EF90DF90CF900895CF9240
:1026F000DF92EF92FF920F931F93CF93DF9360913E
:10270000A8017091A901C6B5072E000C880B990B82
:102710000E945E2120E030E040E853E40E94522213
:102720006B017C016C2F70E080E090E00E945E21E4
:102730009B01AC01C701B6010E943E2020E030E0C1
:1027400040E854E40E94522220E034E244EF5AE48C
:102750000E94B420C091AE01D0E000E010E00C1760
:102760001D074CF420E030E040E752E40E943D2099
:102770000F5F1F4FF4CF2091AF013091B001409116
:10278000B1015091B2010E943D206093B30170935A
:10279000B4018093B5019093B601DF91CF911F9161
:1027A0000F91FF90EF90DF90CF9008958091A2015C
:1027B000811108C08091A0019091A101019711F4AD
:1027C0000E945B0A8091A20190E09093A101809306
:1027D000A00108958091A601811107C08091A401F4
:1027E0009091A5018130910549F08091A60190E07A
:1027F0009093A5018093A40180E090E008950E9449
:1028000091090E94750E0E9477130E94FE1221E02A
:102810004DE851E064E170E08BE190E00E94341CEF
:102820000E94350C0E94D70B0E9444110E945A113D
:102830008091B7019091B801059774F080915F0481
:1028400090916004892B41F48091130190911401BF
:10285000019711F40E94B00F0E94DF100E94D6135E
:102860008091B7019091B801039714F00E94E7128C
:102870000E946B0A0E94EC0A0C94620B0F931F9348
:102880008091130190911401029719F40E94E807B6
:1028900002C00E9491096BE372E081E095E00E9422
:1028A0005A030E94750E0E9419130E94FE120E9484
:1028B0005B0D0E94350C0E94D70B0E9444110E94B0
:1028C0005A118091B7019091B801059774F08091E9
:1028D0005F0490916004892B41F4809113019091E1
:1028E0001401019711F40E94B00F0E94DF100E94A2
:1028F000D6138091B7019091B801039714F00E940C
:10290000E7120E94D70F0E9402100E946B0A0E94D9
:10291000EC0A0E94620B00E010E021E040913304D9
:1029200064E185E00E94A40321E04091E1046EE1AE
:1029300085E00E94A4031F910F9108958091A60144
:10294000811110C08091A4019091A501019751F4CB
:1029500080911001811104C081E08093100102C0B8
:10296000109210018091A60190E09093A5018093B0
:10297000A4018091100181110C94FF130C943E145A
:10298000E1E6F0E080E8808381E080830E94FE1928
:102990008FE30E94771C0E94A71C0E942B1A0E94A2
:1029A000E8090E94DD090E94BE040E94B30B0C944A
:1029B000181A0E942B1A0E949E140E946B0A0E94F1
:1029C000EC0A0E940E0E0C94181A0E94C0140E9469
:1029D000EA13892BE1F38091A8019091A9010E944B
:1029E00005240E9414040E94510A8FE19EE401977D
:1029F000F1F700C000000E94D914FDCF1F920F9282
:102A00000FB60F9211248F939F938091A8019091FC
:102A1000A90101969093A9018093A8018091A70133
:102A2000880F8093A7018091A301880F8093A30151
:102A300080919F01880F80939F0180919D01880F55
:102A400080939D0180919B01880F80939B018091D1
:102A50009901880F8093990180919701880F809345
:102A600097018091A70187708093A7018091A301AE
:102A700087708093A30180919F01837080939F0151
:102A800080919D01837080939D0180919B01837053
:102A900080939B018091990183708093990180912B
:102AA00097018770809397018FB19091A70185FB63
:102AB000882780F9892B8093A7018FB19091A3017A
:102AC00086FB882780F9892B8093A30189B1909197
:102AD0009F0186958170892B80939F0183B190918E
:102AE0009D01881F8827881F892B80939D0183B1B2
:102AF00090919B0186958170892B80939B0189B170
:102B0000909199018170892B8093990183B1909163
:102B100097018170892B809397018091A70187305D
:102B200021F481E08093A60106C08091A701811164
:102B300002C01092A6018091A301873021F481E0A8
:102B40008093A20106C08091A301811102C010925E
:102B5000A20180919F01833021F481E080939E0146
:102B600006C080919F01811102C010929E01809148
:102B70009D01833021F481E080939C0106C0809107
:102B80009D01811102C010929C0180919B018330B4
:102B900021F481E080939A0106C080919B0181110C
:102BA00002C010929A0180919901833021F481E052
:102BB0008093980106C080919901811102C0109202
:102BC000980180919701833021F481E080939601F0
:102BD00006C080919701811102C0109296019F91C9
:102BE0008F910F900FBE0F901F9018958091E80065
:102BF00080FFFCCF089581E08093D70080EA809326
:102C0000D80082E189BD09B400FEFDCF80E9809340
:102C1000D8001092E0001092BE011092BB018CE02F
:102C20008093E200789408958091BE0108959FB743
:102C3000F8948091BE01882369F083E08093E900D5
:102C40002BE68091E80085FD09C082FF03C0209338
:102C5000E800F7CF9FBF8FEF9FEF08958091F100BD
:102C60002091E80025FD03C02BE62093E8009FBFDC
:102C700090E008952FB7F8948091BE01811102C0B1
:102C800080E010C083E08093E9008091F200811120
:102C900009C09091E80092FFF3CF95FDF1CF9BE63C
:102CA0009093E8002FBF08958091BE01882371F0B2
:102CB0008FB7F89493E09093E9002BE69091E800A9
:102CC00095FF03C02093E800F9CF8FBF089590913E
:102CD000BE01992371F09FB7F89424E02093E90096
:102CE0002091BC01222349F02091E80025FD03C07A
:102CF0009FBF8FEF08951092BC012091E400275EE2
:102D000034E04091E80045FD12C09FBF9091E4007F
:102D1000291304C081E08093BC01EBCF9091BE01E8
:102D2000992339F39FB7F8943093E900EACF809361
:102D3000F1008091E80085FD03C08AE38093E800FC
:102D400085E08093BD019FBF80E008959091BE0112
:102D50009923D1F09FB7F89424E02093E9002091C3
:102D6000E80025FD02C09FBF0FC08093F100809155
:102D7000E80085FD03C08AE38093E80085E0809346
:102D8000BD019FBF80E008958FEF08950F931F93BB
:102D9000CF93DF93DC01CB012091BE01222371F0A0
:102DA0002FB7F89434E03093E9003091BC0133231D
:102DB00049F03091E80035FD03C02FBF8FEF43C1CC
:102DC0001092BC01C4E0D0E41AE305E0009709F4D6
:102DD00039C13091E400375E4091E80045FD12C0F2
:102DE0002FBF2091E400321304C081E08093BC0126
:102DF000E5CF2091BE01222309F32FB7F894C093A9
:102E0000E900EACF3091F200ED2FE31B4E2F50E0A6
:102E10008417950708F4E82F8E1B91094E2F50E078
:102E20004134510508F001C1FA01EA5AFF4F0C94F0
:102E300077233C913093F10011963C913093F1004F
:102E400011963C913093F10011963C913093F10032
:102E500011963C913093F10011963C913093F10022
:102E600011963C913093F10011963C913093F10012
:102E700011963C913093F10011963C913093F10002
:102E800011963C913093F10011963C913093F100F2
:102E900011963C913093F10011963C913093F100E2
:102EA00011963C913093F10011963C913093F100D2
:102EB00011963C913093F10011963C913093F100C2
:102EC00011963C913093F10011963C913093F100B2
:102ED00011963C913093F10011963C913093F100A2
:102EE00011963C913093F10011963C913093F10092
:102EF00011963C913093F10011963C913093F10082
:102F000011963C913093F10011963C913093F10071
:102F100011963C913093F10011963C913093F10061
:102F200011963C913093F10011963C913093F10051
:102F300011963C913093F10011963C913093F10041
:102F400011963C913093F10011963C913093F10031
:102F500011963C913093F10011963C913093F10021
:102F600011963C913093F10011963C913093F10011
:102F700011963C913093F10011963C913093F10001
:102F800011963C913093F10011963C913093F100F1
:102F900011963C913093F10011963C913093F100E1
:102FA00011963C913093F10011963C913093F100D1
:102FB00011963C913093F10011963C913093F100C1
:102FC00011963C913093F10011963C913093F100B1
:102FD00011963C913093F10011963C913093F100A1
:102FE00011963C913093F10011963C913093F10091
:102FF00011963C913093F10011963C913093F10081
:1030000011963C913093F10011963C913093F10070
:1030100011963C913093F10011963C913093F10060
:1030200011963C913093F10011963C913093F10050
:1030300011963091E80035FF1093E8000093BD0130
:103040002FBFC4CE80E0DF91CF911F910F910895E3
:103050008FB7F8949091BD01992341F094E090933B
:10306000E9009AE39093E8001092BD018FBF0895A4
:1030700060911F01709120018091210190912201A6
:1030800008958091230108958091240108958091ED
:10309000250108958091BB0108959FB7F894209170
:1030A000BE01222339F022E02093E9002091E800BC
:1030B00025FD03C09FBF8FEF089521EA2093F10003
:1030C00020E22093F1001092F1001092F100109292
:1030D000F1001092F10021E02093F1001092F10034
:1030E0008093F1008AE38093E8009FBF80E0089519
:1030F0001F920F920FB60F9211248F939F9380917E
:10310000E1001092E10083FF11C01092E90091E00C
:103110009093EB001092EC0092E19093ED0098E018
:103120009093F0001092BE011092BB0182FF13C079
:103130008091BE01882379F08091BD01882359F0E8
:1031400081508093BD01811106C084E08093E90025
:103150008AE38093E8009F918F910F900FBE0F90AC
:103160001F9018951F920F920FB60F921124FF9285
:103170000F931F932F933F934F935F936F937F937F
:103180008F939F93AF93BF93CF93DF93EF93FF936F
:103190001092E9008091E80083FF17C1F090F100E0
:1031A0008091F1000091F1009091F10010E0192B55
:1031B000C091F1009091F100D0E0D92B2091F10065
:1031C0006091F10092EF9093E800863009F049C0D9
:1031D0008EE492E048E752E0FC01A591B4910A1711
:1031E0001B07D9F4FC013296A591B491CA17DB07ED
:1031F000A1F4FC01349645915491FC0136968491DA
:1032000030E0362B2F3F310519F010F02FEF30E072
:10321000281708F4822F3EEF0CC00796481759076D
:10322000D9F6D3C0490F511D891B3093E80088237C
:10323000A9F09091E800292F2570D9F392FDC8C01C
:10324000982F813108F090E1FA01292F222351F3C0
:1032500064916093F10021503196F8CF903149F399
:10326000B7C0853049F48EEF8093E8000E94F615D0
:1032700000680093E300ACC0893059F5F110A5C097
:103280000093BE011092BB011092BD018EEF80939E
:10329000E80041E08DE093E04093E9009C012F5F5E
:1032A0003F4FFC0154915093EB00552359F0F90125
:1032B00024912093EC009C012D5F3F4F3196E491C7
:1032C000E093ED004F5F453011F0C901E5CF8EE18D
:1032D00077C0883051F4F0E8FF1277C00E94F615ED
:1032E0008091BE018093F10049C0813281F481EA6E
:1032F000F8126BC00E94F615EFE1F1E086E291E072
:1033000021912093F1008E179F07D1F737C08032AB
:10331000A9F491E2F91259C08091E80082FFFCCF34
:10332000EFE1F1E086E291E02091F10021938E1728
:103330009F07D1F78BEF8093E80020C0823241F4E1
:10334000E1E2FE1242C00093BB010E94F61516C0D6
:10335000811118C00E94F615F2E8FF120AC0C0934E
:10336000E9008091EB0085FB882780F91092E90045
:1033700001C080E08093F1001092F1008EEF809305
:10338000E80026C0982F9D7F9130F9F492E0F91261
:103390001CC0012BD1F4CF779FEF9C0F9430A8F481
:1033A0009EEF9093E800C093E900833071F089E1CB
:1033B0008093EB0081E090E001C0880FCA95EAF7A6
:1033C0008093EA001092EA0003C081E28093EB0050
:1033D000FF91EF91DF91CF91BF91AF919F918F912D
:1033E0007F916F915F914F913F912F911F910F911D
:1033F000FF900F900FBE0F901F90189587E8809355
:103400007A000895982F9F71906490937C00807249
:1034100080937B0080917A00806480937A00809111
:103420007A0086FDFCCF8091780090917900089514
:10343000CF93DF9360E080E00E94B41CC1E0D5E050
:10344000699181E00E94591C86E0C93FD807C1F705
:10345000DF91CF910895E1E0F5E0119286E0E93F38
:10346000F807D9F7089584359105A8F560337105FB
:1034700090F59B0173E0359527957A95E1F7677094
:10348000452BA1F044E5429FF001439FF00D11242C
:103490008E0F9F1FFC01EF5FFA4F81E090E001C0AB
:1034A000880F6A95EAF79081892B14C044E5429F02
:1034B000F001439FF00D11248E0F9F1FFC01EF5F61
:1034C000FA4F81E090E001C0880F6A95EAF7809595
:1034D00090818923808308952F923F924F925F922B
:1034E0006F927F928F929F92AF92BF92CF92DF9214
:1034F000EF92FF920F931F93CF93DF93CDB7DEB779
:103500002E970FB6F894DEBF0FBECDBF1C013B0156
:103510002A013A8329838417950771F57C836B838D
:1035200029813A81621673069CF48B819C8128174D
:1035300039070CF41AC1A8016B817C81C1010E947A
:10354000331A2B813C812F5F3F4F3C832B83E8CF85
:10355000AB81BC8129813A81A217B3070CF405C164
:10356000A8016B817C81C1010E94331A8B819C81EF
:1035700001979C838B83D4CF89819A8168177907BF
:1035800051F53A822982241435049CF4A981BA8128
:103590004A165B060CF4E9C0A801B30189819A813F
:1035A0000E94331A29813A812F5F3F4F3A83298342
:1035B000EACF29813A81241535050CF4D6C0A8013B
:1035C000B30189819A810E94331AA981BA81119726
:1035D000BA83A983D8CF4215530554F4872D698047
:1035E0007A8069838A83922D832D1A01492E582E61
:1035F000B20162197309072E000C880B990B0E9407
:103600005E216F83788789879A8769817A816619B5
:103610007709072E000C880B990B0E945E214B0145
:103620005C012F81388549855A850E94B4206B83BF
:103630007C838D839E8320E030E0A9010E944D228F
:1036400087FF09C08B819C81AD81BE81B0588B837F
:103650009C83AD83BE83C12CD12C760120E030E069
:10366000A9016F81788589859A850E944D22181657
:103670000CF077C0421453040CF477C0A801B301D6
:10368000C1010E94331A2B813C814D815E81C701AB
:10369000B6010E943E206B017C0120E030E040E05A
:1036A0005FE30E944D2287FF10C020E030E0A901B7
:1036B0006F81788589859A850E944D2218160CF0B5
:1036C0004CC09FEF291A390AC9CF20E030E0A90188
:1036D000C501B4010E944D221816CCF529813A810A
:1036E0002615370514F3A801B301C1010E94331A4E
:1036F000A1E0B0E0BC87AB8720E030E0A901C501C4
:10370000B4010E944D22181614F01C861B8621E07D
:1037100030E03E872D8720E030E0A901C501B401EB
:103720000E94AA2087FD02C01E861D868B859C856F
:10373000AD85BE858A1B9B0B680E791E20E030E0AC
:1037400040E85FE3C701B6010E943D20A4CF898114
:103750009A81681679063CF6A8CFA1E02A1A3108AA
:103760007DCF241435040CF089CF2E960FB6F89433
:10377000DEBF0FBECDBFDF91CF911F910F91FF90A4
:10378000EF90DF90CF90BF90AF909F908F907F9001
:103790006F905F904F903F902F9008952F923F929F
:1037A0004F925F926F927F928F929F92AF92BF9251
:1037B000CF92DF92EF92FF920F931F93CF93DF93FD
:1037C0006C014B01190185E0489F20011124E12C77
:1037D000F12C80EA481A510866246394712CF20196
:1037E000EE0DFF1DE95EFC4FE4912114310409F454
:1037F000E09500E010E0CE2FD0E05601AE0CBF1CEB
:10380000A301002E02C0440F551F0A94E2F74C2377
:103810005D23002E02C0559547950A94E2F7B40146
:10382000600F711FC5010E94331A0F5F1F4F0830D0
:10383000110531F78FEFE81AF80A85E0E816F10470
:1038400071F6DF91CF911F910F91FF90EF90DF9074
:10385000CF90BF90AF909F908F907F906F905F9030
:103860004F903F902F900895CF92DF92EF92FF926A
:103870000F931F93CF93DF937B018A016901D82FA8
:10388000C0E0F801EC0FF11D4081442349F096019E
:10389000B7018D2F90E00E94CE1BDB5FCF5FF1CF91
:1038A000DF91CF911F910F91FF90EF90DF90CF901C
:1038B000089525B12F7D30E2839FC0011124822B12
:1038C00085B95F9887E090E070E08F989B01082EA3
:1038D00002C0359527950A94E2F720FF02C02E9A80
:1038E00001C02E988F9A019780F75F9A0895CF9321
:1038F000C82F579A249A259A269A879A2C985F9AC5
:103900002C9A61E280E00E94591C6C2F606880E074
:103910000E94591C64E080E00E94591C63E180E031
:103920000E94591C6CE080E00E94591C60E280E01B
:103930000E94591C6CE080E00E94591C60E480E009
:103940000E94591C60E880E0CF910C94591CCF93E1
:10395000DF93C8EFD1E060E081E00E94591C21971D
:10396000D1F7DF91CF910895CF93C82F606480E0A5
:103970000E94591C6C2F606880E0CF910C94591CF8
:10398000A0E1B0E0E6ECFCE10C947D237C011B019E
:103990006A01FC0117821682838181FF44C39E0164
:1039A0002F5F3F4F3901F7019381F10193FD85911D
:1039B00093FF81911F01882309F431C3853239F4C3
:1039C00093FD859193FF81911F01853239F4B701F1
:1039D00090E00E94FE2456016501E5CF10E0512CD5
:1039E000912CFFE1F915D8F08B3279F038F4803260
:1039F00079F08332A1F4F92DF0612EC08D3261F09F
:103A0000803369F4292D21602DC0392D3260932E29
:103A1000892D8460982E2AC0E92DE86015C097FC96
:103A20002DC020ED280F2A3088F496FE06C03AE01B
:103A3000139F200D1124122F19C08AE0589E200DCB
:103A40001124522EE92DE0629E2E10C08E3231F4E8
:103A500096FCE5C2F92DF0649F2E08C08C3621F447
:103A6000292D2068922E02C0883641F4F10193FD81
:103A7000859193FF81911F018111B3CF9BEB980F2B
:103A8000933020F4992D9061805E07C09BE9980FD8
:103A9000933008F066C1992D9F7E96FF16E09F73C4
:103AA000992E853619F49064992E08C0863621F433
:103AB000392F3068932E02C01111115097FE07C0A4
:103AC0001C3350F444244394410E27E00BC01830BB
:103AD00038F027E017E005C027E09CE3492E02C03C
:103AE000212F412C560184E0A80EB11CF601608103
:103AF000718182819381042DA3010E9410246C01A5
:103B0000F981FC87F0FF02C0F3FF06C091FC06C0FC
:103B100092FE06C000E205C00DE203C00BE201C048
:103B200000E08C858C7019F001115AC29BC297FE7F
:103B300010C04C0CFC85F4FF04C08A81813309F469
:103B40004A94141474F528E0241578F588E0482E7A
:103B50002CC096FC2AC0812F90E08C159D059CF00E
:103B60003CEFC3163FEFD30674F0892D8068982E82
:103B70000AC0E2E0F0E0EC0FFD1FE10FF11D8081D3
:103B8000803319F411501111F4CF97FE0EC0442464
:103B90004394410E812F90E0C816D9062CF41C19CD
:103BA00004C04424439401C010E097FE06C01C14D6
:103BB0001D0434F4C601019605C085E090E002C002
:103BC00081E090E001110196112331F0212F30E0C6
:103BD0002F5F3F4F820F931F252D30E082179307F1
:103BE00014F4581A01C0512C892D897049F45520BC
:103BF00039F0B70180E290E00E94FE245A94F7CF9A
:103C0000002329F0B701802F90E00E94FE2493FC4E
:103C100009C0552039F0B70180E390E00E94FE24EE
:103C20005A94F7CF97FE4CC04601D7FE02C0812CB4
:103C3000912CC60188199909F301E80FF91FFE8735
:103C4000ED87960124193109388B2F87012F10E059
:103C50001195019511093FEF8316930629F4B701D9
:103C60008EE290E00E94FE24C814D9044CF08F85A7
:103C700098898815990524F4ED85FE85818101C018
:103C800080E3F1E08F1A91082D853E852F5F3F4F2D
:103C90003E872D87801691062CF0B70190E00E9498
:103CA000FE24D9CFC814D90441F49A81963320F464
:103CB000953319F43C8534FF81E3B70190E04EC0A1
:103CC0008A81813319F09C859F7E9C87B70190E0A3
:103CD0000E94FE24111105C094FC18C085E690E0F6
:103CE00017C0B7018EE290E00E94FE241E5F82E0C2
:103CF00001E0080FF301E80FF11D8081B70190E0AA
:103D00000E94FE24802F0113F3CFE6CF85E490E0DC
:103D1000B7010E94FE24D7FC06C0C114D10441F4AF
:103D2000EC85E4FF05C0D194C194D1088DE201C0B7
:103D30008BE2B70190E00E94FE2480E32AE0C216E5
:103D4000D1042CF08F5FFAE0CF1AD108F7CFB7017A
:103D500090E00E94FE24B701C601C0960E94FE2496
:103D600054C1833631F0833779F0833509F056C07A
:103D700020C0560132E0A30EB11CF6018081898378
:103D800001E010E0630112C05601F2E0AF0EB11C79
:103D9000F601C080D18096FE03C0612F70E002C0A2
:103DA0006FEF7FEFC6010E94F3248C01F92DFF779E
:103DB00014C0560122E0A20EB11CF601C080D180D1
:103DC00096FE03C0612F70E002C06FEF7FEFC60167
:103DD0000E94E8248C01F92DF0689F2EF3FD1AC093
:103DE000852D90E008171907A8F4B70180E290E04C
:103DF0000E94FE245A94F4CFF60197FC859197FE19
:103E000081916F01B70190E00E94FE2451105A94F5
:103E1000015011090115110579F7F7C0843611F029
:103E2000893661F5560197FE09C024E0A20EB11C47
:103E3000F60160817181828193810AC0F2E0AF0E48
:103E4000B11CF60160817181072E000C880B990B63
:103E5000F92DFF769F2E97FF09C09095809570955C
:103E600061957F4F8F4F9F4FF0689F2E2AE030E083
:103E7000A3010E946A25C82EC6183FC0092D8537A8
:103E800021F40F7E2AE030E01DC0097F8F3691F0CB
:103E900018F4883559F0C3C0803719F0883711F00D
:103EA000BEC0006104FF09C0046007C094FE08C0E2
:103EB000066006C028E030E005C020E130E002C026
:103EC00020E132E0560107FF09C084E0A80EB11CD2
:103ED000F601608171818281938108C0F2E0AF0EAA
:103EE000B11CF6016081718180E090E0A3010E9425
:103EF0006A25C82EC6180F77902E96FE0BC0092D86
:103F00000E7FC11650F494FE0AC092FC08C0092D21
:103F10000E7E05C0DC2C092D03C0DC2C01C0D12E87
:103F200004FF0DC0FE01EC0DF11D8081803311F402
:103F3000097E09C002FF06C0D394D39404C0802F29
:103F4000867809F0D39403FD11C000FF06C01C2D34
:103F5000D51480F4150D1D190DC0D51458F4B701F2
:103F600080E290E00E94FE24D394F7CFD51410F4A1
:103F70005D1801C0512C04FF10C0B70180E390E030
:103F80000E94FE2402FF17C001FD03C088E790E0F5
:103F900002C088E590E0B7010CC0802F867859F008
:103FA00001FF02C08BE201C080E207FD8DE2B70194
:103FB00090E00E94FE24C11638F4B70180E390E03F
:103FC0000E94FE241150F7CFCA94F301EC0DF11DAD
:103FD0008081B70190E00E94FE24C110F5CF15C08A
:103FE000F4E0F51560F584E0581A93FE1FC0011146
:103FF00027C02C8523FF2AC00CE411E0392D307135
:10400000932EF8018491811124C0552009F4E4CC49
:10401000B70180E290E00E94FE245A94F6CFF701A7
:104020008681978126C08FEF9FEF23C0B70180E282
:1040300090E00E94FE245A945110F8CFD8CF512C12
:10404000B701802F90E00E94FE24D3CF00E511E05D
:10405000D5CF91108052B70190E00E94FE240F5FEF
:104060001F4FCFCF23E0251510F483E0BDCF512C97
:10407000C0CF6096E2E10C9499235058BB27AA2741
:104080000E9455200C94FF210E94C62138F00E9406
:10409000CD2120F039F49F3F19F426F40C94C3216C
:1040A0000EF4E095E7FB0C94BD21E92F0E94242239
:1040B00058F3BA17620773078407950720F079F45D
:1040C000A6F50C9446220EF4E0950B2EBA2FA02DE7
:1040D0000B01B90190010C01CA01A0011124FF27B5
:1040E000591B99F0593F50F4503E68F11A16F040B0
:1040F000A22F232F342F4427585FF3CF46953795AF
:104100002795A795F0405395C9F77EF41F16BA0B73
:10411000620B730B840BBAF09150A1F0FF0FBB1F21
:10412000661F771F881FC2F70EC0BA0F621F731F6A
:10413000841F48F4879577956795B795F7959E3FC7
:1041400008F0B0CF9395880F08F09927EE0F979558
:10415000879508950E94992108F481E008950E94AE
:10416000D621E3950C9410220E94C8200C94FF21C4
:104170000E94CD2158F00E94C62140F029F45F3FF3
:1041800029F00C94BD2151110C9447220C94C321A9
:104190000E94242268F39923B1F3552391F3951BD0
:1041A000550BBB27AA2762177307840738F09F5F58
:1041B0005F4F220F331F441FAA1FA9F335D00E2EC5
:1041C0003AF0E0E832D091505040E695001CCAF732
:1041D0002BD0FE2F29D0660F771F881FBB1F2617F5
:1041E00037074807AB07B0E809F0BB0B802DBF01CC
:1041F000FF2793585F4F3AF09E3F510578F00C949B
:10420000BD210C9447225F3FE4F3983ED4F386959A
:1042100077956795B795F7959F5FC9F7880F911DBB
:104220009695879597F90895E1E0660F771F881FA7
:10423000BB1F621773078407BA0720F0621B730B5A
:10424000840BBA0BEE1F88F7E09508950E942D218C
:104250006894B1110C94472208950E942C2288F092
:104260009F5798F0B92F9927B751B0F0E1F0660F3A
:10427000771F881F991F1AF0BA95C9F714C0B1307B
:1042800091F00E944622B1E008950C944622672FD7
:10429000782F8827B85F39F0B93FCCF386957795AA
:1042A0006795B395D9F73EF4909580957095619593
:1042B0007F4F8F4F9F4F0895E89409C097FB3EF4BE
:1042C00090958095709561957F4F8F4F9F4F992363
:1042D000A9F0F92F96E9BB279395F69587957795E1
:1042E0006795B795F111F8CFFAF4BB0F11F460FFA1
:1042F0001BC06F5F7F4F8F4F9F4F16C0882311F0F9
:1043000096E911C0772321F09EE8872F762F05C00C
:10431000662371F096E8862F70E060E02AF09A95A7
:10432000660F771F881FDAF7880F9695879597F99C
:104330000895990F0008550FAA0BE0E8FEEF161636
:104340001706E807F907C0F012161306E407F50789
:1043500098F0621B730B840B950B39F40A2661F0FD
:10436000232B242B252B21F408950A2609F4A140A0
:10437000A6958FEF811D811D089597F99F6780E8AD
:1043800070E060E008959FEF80EC089500240A94A7
:104390001616170618060906089500240A94121620
:1043A00013061406050608950C94C3210E942C22BE
:1043B000D8F3E894E0E0BB279F57F0F02AED3FE008
:1043C00049EC06C0EE0FBB0F661F771F881F28F051
:1043D000B23A62077307840728F0B25A620B730B74
:1043E000840BE3959A9572F7803830F49A95BB0F59
:1043F000661F771F881FD2F790480C940823092E58
:104400000394000C11F4882352F0BB0F40F4BF2B2F
:1044100011F460FF04C06F5F7F4F8F4F9F4F08956F
:10442000EF93E0FF07C0A2EA2AED3FE049EC5FEB23
:104430000E9455200E94FF210F90039401FC905888
:10444000EEE2F1E00C94142357FD9058440F551FF1
:1044500059F05F3F71F04795880F97FB991F61F006
:104460009F3F79F087950895121613061406551F7D
:10447000F2CF4695F1DF08C0161617061806991FE9
:10448000F1CF86957105610508940895E894BB27DE
:1044900066277727CB0197F908950E94992108F4A0
:1044A0008FEF08950E9465220C94FF210E94C6217F
:1044B00038F00E94CD2120F0952311F00C94BD21FD
:1044C0000C94C32111240C9447220E94242270F3DF
:1044D000959FC1F3950F50E0551F629FF001729FA9
:1044E000BB27F00DB11D639FAA27F00DB11DAA1FB8
:1044F000649F6627B00DA11D661F829F2227B00D05
:10450000A11D621F739FB00DA11D621F839FA00D8F
:10451000611D221F749F3327A00D611D231F849FDF
:10452000600D211D822F762F6A2F11249F57504036
:104530009AF0F1F088234AF0EE0FFF1FBB1F661FB1
:10454000771F881F91505040A9F79E3F510580F07A
:104550000C94BD210C9447225F3FE4F3983ED4F3C2
:10456000869577956795B795F795E7959F5FC1F71E
:10457000FE2B880F911D9695879597F908950E94B7
:104580002C22E8F09E37E8F09639B8F49E3848F4CB
:10459000672F782F8827985FF9CF8695779567954D
:1045A00093959539D0F3B62FB1706B0F711D811DA6
:1045B00020F487957795679593950C94EB220C944E
:1045C00006230C9447229F930E94D6210F9007FC4C
:1045D000EE5F0C941022882371F4772321F0985019
:1045E000872B762F07C0662311F499270DC09051B1
:1045F000862B70E060E02AF09A95660F771F881F7F
:10460000DAF7880F9695879597F908959F3F31F0CF
:10461000915020F4879577956795B795880F911DF0
:104620009695879597F908959F938F937F936F93AE
:10463000FF93EF939B01AC010E945222EF91FF91F7
:104640000E9428232F913F914F915F910C94522209
:10465000DF93CF931F930F93FF92EF92DF927B0133
:104660008C01689406C0DA2EEF010E946522FE01DB
:10467000E894A5912591359145915591A6F3EF01C7
:104680000E945520FE019701A801DA9469F7DF9096
:10469000EF90FF900F911F91CF91DF910895AA1B8A
:1046A000BB1B51E107C0AA1FBB1FA617B70710F01D
:1046B000A61BB70B881F991F5A95A9F7809590954F
:1046C000BC01CD01089597FB072E16F4009407D086
:1046D00077FD09D00E944F2307FC05D03EF490954A
:1046E00081959F4F0895709561957F4F0895EE0FC6
:1046F000FF1F0590F491E02D09942F923F924F9265
:104700005F926F927F928F929F92AF92BF92CF9261
:10471000DF92EF92FF920F931F93CF93DF93CDB76A
:10472000DEB7CA1BDB0B0FB6F894DEBF0FBECDBFE2
:1047300009942A88398848885F846E847D848C84B3
:104740009B84AA84B984C884DF80EE80FD800C81BC
:104750001B81AA81B981CE0FD11D0FB6F894DEBF9F
:104760000FBECDBFED0108958F929F92AF92BF9281
:10477000CF92DF92EF92FF92CF93DF93EC016881AB
:1047800079818A819B81611571058105910521F4EB
:1047900064E279ED8BE597E02DE133EF41E050E005
:1047A0000E94C82549015A019B01AC01A7EAB1E466
:1047B0000E94E7256B017C01ACEEB4EFA5019401EA
:1047C0000E94F525DC01CB018C0D9D1DAE1DBF1D8A
:1047D000B7FF03C00197A109B04888839983AA83D2
:1047E000BB839F77DF91CF91FF90EF90DF90CF90C9
:1047F000BF90AF909F908F9008950E94B42308952A
:1048000086E291E00E94B4230895A0E0B0E0809396
:10481000260190932701A0932801B09329010895C0
:10482000283008F027E03327DA01990F311D87FD82
:10483000916000966105710539F432602E5F3D93F9
:1048400030E32A95E1F708959F3F30F080387105F5
:10485000610509F03C5F3C5F3D93913008F0806852
:10486000911DDF93CF931F930F93FF92EF92192F18
:10487000987F9695E92F96959695E90FFF27E25533
:10488000FE4F99273327EE24FF24A701E701059067
:104890000894079428F4360FE71EF81E491F511D8F
:1048A000660F771F881F991F0694A1F7059007943C
:1048B00028F4E70EF81E491F561FC11D770F881FE9
:1048C000991F661F0694A1F70590079428F4F80E27
:1048D000491F561FC71FD11D880F991F661F771FBD
:1048E0000694A1F70590079420F4490F561FC71F9F
:1048F000D81F990F661F771F881F0694A9F7849108
:104900001095177041F0D695C79557954795F79430
:10491000E7941A95C1F7E4E5F1E0689415901591D4
:1049200035916591959105907FE27395E118F10AB3
:10493000430B560BC90BD009C0F7E10CF11E431F06
:10494000561FC91FD01D7EF4703311F48A95E6CF2F
:10495000E894015030F0080F0AF40027021708F419
:10496000202F2395022F7A3328F079E37D932A951F
:10497000E9F710C07D932A9589F606949795679577
:10498000379517951794E118F10A430B560BC90B8D
:10499000D00998F023957E9173957A3308F070E3EF
:1049A0007C932013B8F77E9170617D9330F08395EE
:1049B00071E37D9370E32A95E1F71124EF90FF9066
:1049C0000F911F91CF91DF91992787FD90950895C1
:1049D000FC010590615070400110D8F780959095CA
:1049E0008E0F9F1F0895FC016150704001900110CF
:1049F000D8F7809590958E0F9F1F08950F931F9362
:104A0000CF93DF93FB01238121FD03C08FEF9FEF45
:104A10002CC022FF16C04681578124813581421760
:104A2000530744F4A081B1819D012F5F3F4F318333
:104A300020838C93268137812F5F3F4F37832683D6
:104A400014C08B01EC01FB010084F185E02D099578
:104A5000892BE1F6D80116968D919C9117970196B6
:104A600017969C938E931697CE01DF91CF911F914D
:104A70000F910895AEE0B0E0E0E4F5E20C948B23F2
:104A80000D891E898F89988D26E02C831A830983CE
:104A900097FF02C080E090E801979E838D83AE016E
:104AA000455E5F4F698D7A8DCE0101960E94C01CD4
:104AB0004D815E8157FD0AC02F813885421753070B
:104AC0000CF49A01F801E20FF31F10822E96E4E035
:104AD0000C94A723FA01AA27283051F1203181F143
:104AE000E8946F936E7F6E5F7F4F8F4F9F4FAF4FF6
:104AF000B1E03ED0B4E03CD0670F781F891F9A1F09
:104B0000A11D680F791F8A1F911DA11D6A0F711DBC
:104B1000811D911DA11D20D009F468943F912AE0C8
:104B2000269F11243019305D3193DEF6CF010895B0
:104B3000462F4770405D4193B3E00FD0C9F7F6CFE1
:104B4000462F4F70405D4A3318F0495D31FD4052A9
:104B5000419302D0A9F7EACFB4E0A695979587953F
:104B600077956795BA95C9F700976105710508951E
:104B70009B01AC010A2E06945795479537952795CA
:104B8000BA95C9F7620F731F841F951FA01D089562
:104B9000052E97FB1EF400940E94DF2557FD07D0D9
:104BA0000E94FA2507FC03D04EF40C94DF255095A3
:104BB0004095309521953F4F4F4F5F4F0895909509
:104BC0008095709561957F4F8F4F9F4F08950E94FC
:104BD0001C26A59F900DB49F900DA49F800D911D44
:104BE00011240895B7FF0C94E7250E94E725821B46
:104BF000930B0895A1E21A2EAA1BBB1BFD010DC049
:104C0000AA1FBB1FEE1FFF1FA217B307E407F5077C
:104C100020F0A21BB30BE40BF50B661F771F881F58
:104C2000991F1A9469F760957095809590959B01EE
:104C3000AC01BD01CF010895A29FB001B39FC00197
:104C4000A39F700D811D1124911DB29F700D811DB8
:0A4C50001124911D0895F894FFCF80
:104C5A000AD7233C9A99993E0600050004000500EC
:104C6A000105000100080000001C4200009C4200EF
:104C7A00E1000000000801000000151F040E0A13DD
:104C8A00131E0E0A03020305020507050507253050
:104C9A00326400256600256400546F6D2026204A80
:104CAA006572727921004849542053573320544F72
:104CBA00205354415254004A616D65732053636F07
:104CCA007474004E39393433363138004C76004822
:104CDA00500053004C3A00483A00533A00504155AC
:044CEA0053454400EA
:00000001FF
