:100000000C94D6010C94F3010C94F3010C94F301BD
:100010000C94F3010C94F3010C94F3010C94F30190
:100020000C94F3010C94F3010C94F3010C94F30180
:100030000C94F3010C94F3010C94F3010C94F30170
:100040000C94F3010C94F3010C94F3010C94F30160
:100050000C94F3010C94F3010C94F3010C94E6025C
:100060000C94F3010C94F3010C94F3010C94F30140
:100070000C94F3010C94F3010C94F3010C94F30130
:100080000C94F3010C94F3010C94F3010C94F30120
:100090000C94F3010C94F3010C94F3010C94F30110
:1000A0000C94F3010C94F3010C94F30105A84CCDCE
:1000B000B2D44EB93836A9020C50B9918688083CA2
:1000C000A6AAAA2ABE000000803F6E616E00696E7B
:1000D000660000407A10F35A00A0724E1809001012
:1000E000A5D4E80000E87648170000E40B540200AD
:1000F00000CA9A3B000000E1F505000080969800D8
:10010000000040420F000000A08601000000102700
:1001100000000000E8030000000064000000000090
:100120000A00000000000100000000002C76D888C2
:10013000DC674F0823DFC1DFAE59E1B1B796E5E3D5
:10014000E453C63AE651997696E8E6C28426EB89EE
:100150008C9B62ED407C6FFCEFBC9C9F40F2BAA58B
:100160006FA5F490055A2AF75C936B6CF9676DC123
:100170001BFCE0E40D47FEF520E6B500D0ED902E27
:100180000300943577050080841E080000204E0A85
:10019000000000C80C333333330F986E12831141C3
:1001A000EF8D2114893BE65516CFFEE6DB18D1848E
:1001B0004B381BF77C1D901DA4BBE42420328472B5
:1001C0005E228100C9F124ECA1E53D27000000007A
:1001D0000000005F00000007000700147F147F1478
:1001E000242A7F2A122313086462364955225000BC
:1001F00005030000001C2241000041221C001408DD
:100200003E081408083E080800503000000808089E
:100210000808006060000020100804023E514945B3
:100220003E00427F400042615149462141454B31E9
:100230001814127F1027454545393C4A4949300179
:10024000710905033649494936064949291E0036D0
:100250003600000056360000081422410014141421
:10026000141400412214080201510906324979414F
:100270003E7E1111117E7F494949363E414141225E
:100280007F4141221C7F494949417F090909013EBB
:100290004149497A7F0808087F00417F410020409A
:1002A000413F017F081422417F404040407F020CC3
:1002B000027F7F0408107F3E4141413E7F090909CA
:1002C000063E4151215E7F09192946464949493177
:1002D00001017F01013F4040403F1F2040201F3F60
:1002E0004038403F631408146307087008076151E1
:1002F000494543007F41410002040810200041416C
:100300007F0004020102044040404040000102041A
:100310000020545454787F4844443838444444209E
:10032000384444487F3854545418087E0901020C5C
:100330005252523E7F0804047800447D4000204021
:10034000443D007F1028440000417F40007C041899
:1003500004787C0804047838444444387C14141429
:1003600008081414187C7C080404084854545420C9
:10037000043F4440203C4040207C1C2040201C3C4A
:100380004030403C44281028440C5050503C4464B9
:10039000544C44000836410000007F000000413604
:1003A00008001008081008784641467811241FBE3E
:1003B000CFEFDAE0DEBFCDBF11E0A0E0B1E0E4E4D2
:1003C000F8E202C005900D92AE36B107D9F725E0EC
:1003D000AEE6B1E001C01D92A538B207E1F70E9478
:1003E0001E080C9420140C940000DF92EF92FF92F0
:1003F0000F931F93CF93DF93CDB7DEB72A970FB636
:10040000F894DEBF0FBECDBF082F162FD22E1F923D
:100410004F9381E291E09F938F931F928AE08F9395
:10042000CE0101967C019F938F930E942F13612F21
:1004300070E02D2DA701802F90E00E94570A0FB683
:10044000F894DEBF0FBECDBF2A960FB6F894DEBF7C
:100450000FBECDBFDF91CF911F910F91FF90EF9015
:10046000DF900895DF92EF92FF920F931F93CF9347
:10047000DF93CDB7DEB764970FB6F894DEBF0FBE3B
:10048000CDBFD82E162F5F934F933F932F9386E2C5
:1004900091E09F938F931F9284E18F93CE010196F9
:1004A0007C019F938F930E942F13612F70E0202F68
:1004B000A7018D2D90E00E94570A0FB6F894DEBF79
:1004C0000FBECDBF64960FB6F894DEBF0FBECDBF92
:1004D000DF91CF911F910F91FF90EF90DF900895E2
:1004E000DF92EF92FF920F931F93CF93DF93CDB7DD
:1004F000DEB72A970FB6F894DEBF0FBECDBFE82E49
:10050000F62ED22E0130110519F40E94F5011DC0FE
:100510001F924F9389E291E09F938F931F928AE0FD
:100520008F938E010F5F1F4F1F930F930E942F1306
:100530006F2D70E02D2DA8018E2D90E00E94570A9E
:100540000FB6F894DEBF0FBECDBF2A960FB6F89453
:10055000DEBF0FBECDBFDF91CF911F910F91FF90F6
:10056000EF90DF90089585988698229A239A569A5C
:10057000519827982198509820980895789414BC01
:1005800085E085BD81E080936E0008951092810121
:1005900010928201109283011092840110927F01C7
:1005A00010927E0108950C94C60221E030E002C052
:1005B000220F331F6A95E2F790E02823392381E068
:1005C00090E0232B11F480E090E008951F920F92A9
:1005D0000FB60F9211248F939F9380917E0190917B
:1005E0007F01019690937F0180937E0180917D0130
:1005F000880F80937D0180917901880F8093790124
:1006000080917701880F8093770180917501880F21
:100610008093750180917301880F8093730180919D
:100620007101880F8093710180916F01880F809311
:100630006F0180917D01877080937D0180917901A8
:10064000877080937901809177018370809377011F
:10065000809175018370809375018091730183701F
:1006600080937301809171018370809371018091F7
:100670006F01877080936F018FB190917D0185FB31
:10068000882780F9892B80937D018FB19091790122
:1006900086FB882780F9892B8093790189B1909115
:1006A000770186958170892B8093770183B1909132
:1006B0007501881F8827881F892B8093750183B156
:1006C0009091730186958170892B8093730189B114
:1006D000909171018170892B8093710183B1909108
:1006E0006F018170892B80936F0180917D0187302C
:1006F00021F481E080937C0106C080917D0181110D
:1007000002C010927C0180917901873021F481E050
:100710008093780106C080917901811102C0109206
:10072000780180917701833021F481E08093760114
:1007300006C080917701811102C0109276018091EC
:100740007501833021F481E08093740106C08091AB
:100750007501811102C01092740180917301833080
:1007600021F481E08093720106C0809173018111B0
:1007700002C01092720180917101833021F481E0F6
:100780008093700106C080917101811102C01092A6
:10079000700180916F01833021F481E080936E01BC
:1007A00006C080916F01811102C010926E019F916D
:1007B0008F910F900FBE0F901F90189521E04CE283
:1007C00051E064E070E08CE090E00E94570A21E084
:1007D00049E351E060E270E08FE090E00E94570A48
:1007E00021E045E451E069E270E086E190E00C949C
:1007F000570A0F9301E029E130E04DE050E06FE04F
:1008000070E082E190E00E948F082DE230E049E143
:1008100050E063E270E089E190E00E948F082AE0F6
:1008200030E04CE350E06AE070E08DE290E00E943E
:100830008F082EE130E048E450E069E170E08AE39F
:1008400090E00E948F080F910895AF92BF92CF92CF
:10085000DF92EF92FF920F931F93CF93DF9300D01D
:1008600000D01F92CDB7DEB785E0E7E1F1E0DE0111
:10087000119601900D928A95E1F78E010F5F1F4F3F
:10088000C12CD12C85E0A82EB12CE12CF12CF80143
:10089000808190E095012E193F0902C095958795BA
:1008A0002A95E2F780FF0FC0609105017091060163
:1008B0006C0D7D1D80918B0190918C0141E08E0D1E
:1008C0009F1D0E945608FFEFEF1AFF0A86E0E81608
:1008D000F104E9F6EFEFCE1ADE0A0F5F1F4FF5E0E5
:1008E000CF16D10491F60F900F900F900F900F90AC
:1008F000DF91CF911F910F91FF90EF90DF90CF90FC
:10090000BF90AF9008952F923F924F925F926F9257
:100910007F928F929F92AF92BF92CF92DF92EF928F
:10092000FF920F931F93CF93DF9300D000D01F92BD
:10093000CDB7DEB785E0ECE1F1E0DE011196019084
:100940000D928A95E1F78E010F5F1F4FC12CD12CBC
:1009500085E0282E312CE12CF12C46010D2C000CC9
:10096000AA08BB08F801808190E091012E193F0987
:1009700002C0959587952A95E2F780FF2BC0C501A7
:10098000B4010E94810F20910B0130910C01409124
:100990000D0150910E010E94610E0E94490F2B0122
:1009A0003C01B7010F2C000C880B990B0E94810FA2
:1009B00020910F01309110014091110150911201CD
:1009C0000E94610E0E94490FDC01CB0141E0B2019F
:1009D0000E945608FFEFEF1AFF0A86E0E816F104BE
:1009E00009F6EFEFCE1ADE0A0F5F1F4FF5E0CF16C4
:1009F000D10409F0B0CF0F900F900F900F900F908F
:100A0000DF91CF911F910F91FF90EF90DF90CF90EA
:100A1000BF90AF909F908F907F906F905F904F901E
:100A20003F902F9008958F929F92AF92BF92CF9256
:100A3000DF92EF92FF920E94F511BC01990F880B93
:100A4000990B0E94810F2BED3FE049E450E40E9496
:100A500075109B01AC010E94610E20E03EEF4FEF4C
:100A600056E40E94D70E4B015C010E94D20EC0904A
:100A70000701D0900801E0900901F0900A01A70158
:100A800096010E9475106093890370938A03809386
:100A90008B0390938C03C501B4010E9406119B0146
:100AA000AC01C701B6010E94751060938D0170936F
:100AB0008E0180938F0190939001FF90EF90DF90D3
:100AC000CF90BF90AF909F908F9008950C94130596
:100AD0004F925F926F927F928F929F92AF92BF924E
:100AE000CF92DF92EF92FF922091890330918A0397
:100AF00040918B0350918C0360910F017091100114
:100B000080911101909112010E94610E4B015C01D4
:100B10000E94E2102B013C0120918D0130918E0149
:100B200040918F015091900160910B0170910C01E7
:100B300080910D0190910E010E94610E6B017C016C
:100B40000E94E2100E94490F6950710963327105D9
:100B500038F4C301B2010E94490F6F34710570F07F
:100B6000FF90EF90DF90CF90BF90AF909F908F90CD
:100B70007F906F905F904F900C94130580920F01BF
:100B800090921001A0921101B0921201C0920B013B
:100B9000D0920C01E0920D01F0920E01FF90EF90C7
:100BA000DF90CF90BF90AF909F908F907F906F908D
:100BB0005F904F9008950F931F93CF93809176018C
:100BC000813041F5809105019091060189309105B0
:100BD0000CF1AC0123E0559547952A95E1F7C82F14
:100BE000C770E0918B01F0918C0126E030E050E07D
:100BF000EF56FE4F2150310929F0608160FFFACF96
:100C000051E0F8CF511135C00197909306018093C0
:100C100005012FC080917401813069F48091050134
:100C2000909106018B32910534F401969093060160
:100C3000809305011CC080917201813041F4809144
:100C40008B0190918C0197FD02C001970CC080919F
:100C50007001813061F480918B0190918C018E3410
:100C600091052CF4019690938C0180938B01C0E048
:100C700040E000E010E021E063E28AE00E947002C0
:100C800021E04C2F69E18AE00E947002CF911F9110
:100C90000F9108950F931F9321E04EE451E060E01F
:100CA00070E080E090E00E94570A21E04AE360E0B3
:100CB00070E08AE090E00E94F10900E010E021E09D
:100CC0004091030160E08EE00E94700221E041E566
:100CD00051E060E070E085E190E00E94570A21E079
:100CE0004AE360E070E08FE190E00E94F10921E0CA
:100CF0004091010160E083E20E94700221E044E53E
:100D000051E060E070E08AE290E00E94570A21E042
:100D10004AE360E070E080E390E00E94F10921E0A6
:100D20004091890160E084E30E94700220E030E09D
:100D300040E752E4609181017091820180918301CA
:100D4000909184010E94701087FD0DC080918001F8
:100D50008F5F809380011092810110928201109226
:100D600083011092840121E04091800160E08CE3D6
:100D70000E94F50121E04AE360E070E086E490E043
:100D80000E94F1096091810170918201809183013B
:100D9000909184010E94490F462F21E060E08AE48F
:100DA0000E94F50101E027E030E044E550E067E013
:100DB00070E080E090E00E948F081F910F910895ED
:100DC000FB019C0128503E4FDC014D91CD01419328
:100DD000A217B307C9F7089521E046E551E064E1A1
:100DE00070E082E090E00E94570A80917C018111BE
:100DF00007C080917A0190917B018130910549F083
:100E000080917C0190E090937B0180937A0180E057
:100E100090E00895CF92DF92EF92FF920F931F938D
:100E2000CF93DF9360917E0170917F01C6B5072E4D
:100E3000000C880B990B0E94810F20E030E040E805
:100E400053E40E9475106B017C016C2F70E080E010
:100E500090E00E94810F9B01AC01C701B6010E9486
:100E6000610E20E030E040E854E40E94751020E07C
:100E700034E244EF5AE40E94D70EC0918001D0E0E2
:100E800000E010E00C171D074CF420E030E040E7D4
:100E900052E40E94600E0F5F1F4FF4CF209181013A
:100EA0003091820140918301509184010E94600E33
:100EB00060938501709386018093870190938801E8
:100EC00021E047E651E064E170E08BE190E0DF91E2
:100ED000CF911F910F91FF90EF90DF90CF900C94E6
:100EE000570ACF92DF92EF92FF920F931F93CF9307
:100EF000DF9360917E0170917F01C6B5072E000CD3
:100F0000880B990B0E94810F20E030E040E853E409
:100F10000E9475106B017C016C2F70E080E090E006
:100F20000E94810F9B01AC01C701B6010E94610EB6
:100F300020E030E040E854E40E94751020E034E204
:100F400044EF5AE40E94D70E20918501309186012A
:100F500040918701509188010E94600EC0918001EC
:100F6000D0E000E010E00C171D074CF420E030E06A
:100F700040E752E40E94600E0F5F1F4FF4CF609372
:100F80008101709382018093830190938401DF91AA
:100F9000CF911F910F91FF90EF90DF90CF900C9425
:100FA000680580917C01811110C080917A01909137
:100FB0007B01019751F480910001811104C081E00F
:100FC0008093000102C01092000180917C0190E0AA
:100FD00090937B0180937A018091000181110C94A0
:100FE0000A070C947107E1E6F0E080E8808381E075
:100FF00080838FE30E949A0A0E94CA0A0E944E08C8
:101000000E94BE020E94B3020E94DE030C943B08C1
:101010000E944E080E94F90361E971E08DE893E0B7
:101020000E94E0060E944A060E94D1070E94DB054A
:101030000E9425040E9483040C943B080E94F3073D
:101040000E94EC06892BE1F380917E0190917F0153
:101050000E94FA110E9413050E94C6028FE19EE4CD
:101060000197F1F700C000000E9408088FEC97E09C
:101070000197F1F7F7CFCF93DF9360E080E00E9414
:10108000D70ACDE8D3E0699181E00E947C0A85E02F
:10109000C538D807C1F7DF91CF910895EDE8F3E0A7
:1010A000119285E0E538F807D9F708958435910560
:1010B000A8F56033710590F59B0173E03595279590
:1010C0007A95E1F76770452BA1F044E5429FF00166
:1010D000439FF00D11248E0F9F1FFC01E357FC4F1F
:1010E00081E090E001C0880F6A95EAF79081892B32
:1010F00014C044E5429FF001439FF00D11248E0F70
:101100009F1FFC01E357FC4F81E090E001C0880F76
:101110006A95EAF7809590818923808308952F92BC
:101120003F924F925F926F927F928F929F92AF9277
:10113000BF92CF92DF92EF92FF920F931F93CF93C4
:10114000DF93CDB7DEB72E970FB6F894DEBF0FBE94
:10115000CDBF1C013B012A013A83298384179507DF
:1011600071F57C836B8329813A81621673069CF446
:101170008B819C81281739070CF41AC1A8016B8157
:101180007C81C1010E9456082B813C812F5F3F4F1B
:101190003C832B83E8CFAB81BC8129813A81A217A4
:1011A000B3070CF405C1A8016B817C81C1010E94C9
:1011B00056088B819C8101979C838B83D4CF898136
:1011C0009A816817790751F53A82298224143504E7
:1011D0009CF4A981BA814A165B060CF4E9C0A80107
:1011E000B30189819A810E94560829813A812F5F33
:1011F0003F4F3A832983EACF29813A812415350567
:101200000CF4D6C0A801B30189819A810E945608C6
:10121000A981BA811197BA83A983D8CF4215530502
:1012200054F4872D69807A8069838A83922D832D77
:101230001A01492E582EB20162197309072E000CAB
:10124000880B990B0E94810F6F83788789879A8713
:1012500069817A8166197709072E000C880B990B32
:101260000E94810F4B015C012F81388549855A8589
:101270000E94D70E6B837C838D839E8320E030E0B9
:10128000A9010E94701087FF09C08B819C81AD81EC
:10129000BE81B0588B839C83AD83BE83C12CD12C7F
:1012A000760120E030E0A9016F81788589859A85F3
:1012B0000E94701018160CF077C0421453040CF4FE
:1012C00077C0A801B301C1010E9456082B813C815F
:1012D0004D815E81C701B6010E94610E6B017C01E8
:1012E00020E030E040E05FE30E94701087FF10C014
:1012F00020E030E0A9016F81788589859A850E9478
:10130000701018160CF04CC09FEF291A390AC9CF7B
:1013100020E030E0A901C501B4010E947010181648
:10132000CCF529813A812615370514F3A801B301BC
:10133000C1010E945608A1E0B0E0BC87AB8720E065
:1013400030E0A901C501B4010E947010181614F014
:101350001C861B8621E030E03E872D8720E030E0B0
:10136000A901C501B4010E94CD0E87FD02C01E86F1
:101370001D868B859C85AD85BE858A1B9B0B680E63
:10138000791E20E030E040E85FE3C701B6010E942B
:10139000600EA4CF89819A81681679063CF6A8CFA1
:1013A000A1E02A1A31087DCF241435040CF089CF2E
:1013B0002E960FB6F894DEBF0FBECDBFDF91CF9152
:1013C0001F910F91FF90EF90DF90CF90BF90AF9063
:1013D0009F908F907F906F905F904F903F902F9055
:1013E00008952F923F924F925F926F927F928F92C9
:1013F0009F92AF92BF92CF92DF92EF92FF920F93A4
:101400001F93CF93DF936C014B01190185E0489F37
:1014100020011124E12CF12C80EA481A510866249D
:101420006394712CF201EE0DFF1DE453FE4FE49125
:101430002114310409F4E09500E010E0CE2FD0E053
:101440005601AE0CBF1CA301002E02C0440F551F55
:101450000A94E2F74C235D23002E02C05595479570
:101460000A94E2F7B401600F711FC5010E9456088B
:101470000F5F1F4F0830110531F78FEFE81AF80A98
:1014800085E0E816F10471F6DF91CF911F910F917D
:10149000FF90EF90DF90CF90BF90AF909F908F9094
:1014A0007F906F905F904F903F902F900895CF92D4
:1014B000DF92EF92FF920F931F93CF93DF937B0105
:1014C0008A016901D82FC0E0F801EC0FF11D4081BD
:1014D000442349F09601B7018D2F90E00E94F10955
:1014E000DB5FCF5FF1CFDF91CF911F910F91FF9025
:1014F000EF90DF90CF90089525B12F7D30E2839F4C
:10150000C0011124822B85B95F9887E090E070E0DC
:101510008F989B01082E02C0359527950A94E2F713
:1015200020FF02C02E9A01C02E988F9A019780F753
:101530005F9A0895CF93C82F579A249A259A269A8E
:10154000879A2C985F9A2C9A61E280E00E947C0A2C
:101550006C2F606880E00E947C0A64E080E00E945A
:101560007C0A63E180E00E947C0A6CE080E00E94DB
:101570007C0A60E280E00E947C0A6CE080E00E94CD
:101580007C0A60E480E00E947C0A60E880E0CF9101
:101590000C947C0ACF93DF93C8EFD1E060E081E048
:1015A0000E947C0A2197D1F7DF91CF910895CF93C4
:1015B000C82F606480E00E947C0A6C2F606880E025
:1015C000CF910C947C0AA0E1B0E0E9EEFAE00C9433
:1015D00072117C011B016A01FC0117821682838152
:1015E00081FF44C39E012F5F3F4F3901F701938173
:1015F000F10193FD859193FF81911F01882309F4E7
:1016000031C3853239F493FD859193FF81911F0198
:10161000853239F4B70190E00E94F312560165015A
:10162000E5CF10E0512C912CFFE1F915D8F08B3269
:1016300079F038F4803279F08332A1F4F92DF06139
:101640002EC08D3261F0803369F4292D21602DC0C8
:10165000392D3260932E892D8460982E2AC0E92D71
:10166000E86015C097FC2DC020ED280F2A3088F4C3
:1016700096FE06C03AE0139F200D1124122F19C0C8
:101680008AE0589E200D1124522EE92DE0629E2EF4
:1016900010C08E3231F496FCE5C2F92DF0649F2E15
:1016A00008C08C3621F4292D2068922E02C088367D
:1016B00041F4F10193FD859193FF81911F01811107
:1016C000B3CF9BEB980F933020F4992D9061805EFF
:1016D00007C09BE9980F933008F066C1992D9F7E53
:1016E00096FF16E09F73992E853619F49064992E13
:1016F00008C0863621F4392F3068932E02C01111AC
:10170000115097FE07C01C3350F444244394410EFB
:1017100027E00BC0183038F027E017E005C027E0BD
:101720009CE3492E02C0212F412C560184E0A80ED3
:10173000B11CF6016081718182819381042DA30126
:101740000E9405126C01F981FC87F0FF02C0F3FFD3
:1017500006C091FC06C092FE06C000E205C00DE284
:1017600003C00BE201C000E08C858C7019F0011100
:101770005AC29BC297FE10C04C0CFC85F4FF04C0FB
:101780008A81813309F44A94141474F528E02415ED
:1017900078F588E0482E2CC096FC2AC0812F90E076
:1017A0008C159D059CF03CEFC3163FEFD30674F0FB
:1017B000892D8068982E0AC0E2E0F0E0EC0FFD1F52
:1017C000E10FF11D8081803319F411501111F4CF14
:1017D00097FE0EC044244394410E812F90E0C8161A
:1017E000D9062CF41C1904C04424439401C010E011
:1017F00097FE06C01C141D0434F4C601019605C0F2
:1018000085E090E002C081E090E001110196112393
:1018100031F0212F30E02F5F3F4F820F931F252D96
:1018200030E08217930714F4581A01C0512C892D07
:10183000897049F4552039F0B70180E290E00E94A8
:10184000F3125A94F7CF002329F0B701802F90E0CC
:101850000E94F31293FC09C0552039F0B70180E3D0
:1018600090E00E94F3125A94F7CF97FE4CC04601C5
:10187000D7FE02C0812C912CC60188199909F30169
:10188000E80FF91FFE87ED87960124193109388B7F
:101890002F87012F10E01195019511093FEF831655
:1018A000930629F4B7018EE290E00E94F312C81467
:1018B000D9044CF08F8598898815990524F4ED8515
:1018C000FE85818101C080E3F1E08F1A91082D85AA
:1018D0003E852F5F3F4F3E872D87801691062CF067
:1018E000B70190E00E94F312D9CFC814D90441F493
:1018F0009A81963320F4953319F43C8534FF81E3C3
:10190000B70190E04EC08A81813319F09C859F7E9B
:101910009C87B70190E00E94F312111105C094FC5E
:1019200018C085E690E017C0B7018EE290E00E94F3
:10193000F3121E5F82E001E0080FF301E80FF11DD2
:101940008081B70190E00E94F312802F0113F3CF42
:10195000E6CF85E490E0B7010E94F312D7FC06C001
:10196000C114D10441F4EC85E4FF05C0D194C194C5
:10197000D1088DE201C08BE2B70190E00E94F31222
:1019800080E32AE0C216D1042CF08F5FFAE0CF1A70
:10199000D108F7CFB70190E00E94F312B701C6015A
:1019A000C0960E94F31254C1833631F0833779F028
:1019B000833509F056C020C0560132E0A30EB11C99
:1019C000F6018081898301E010E0630112C05601B5
:1019D000F2E0AF0EB11CF601C080D18096FE03C0CC
:1019E000612F70E002C06FEF7FEFC6010E94E81226
:1019F0008C01F92DFF7714C0560122E0A20EB11C14
:101A0000F601C080D18096FE03C0612F70E002C055
:101A10006FEF7FEFC6010E94DD128C01F92DF06897
:101A20009F2EF3FD1AC0852D90E008171907A8F422
:101A3000B70180E290E00E94F3125A94F4CFF601CD
:101A400097FC859197FE81916F01B70190E00E940C
:101A5000F31251105A94015011090115110579F72B
:101A6000F7C0843611F0893661F5560197FE09C03A
:101A700024E0A20EB11CF601608171818281938104
:101A80000AC0F2E0AF0EB11CF60160817181072E31
:101A9000000C880B990BF92DFF769F2E97FF09C03C
:101AA00090958095709561957F4F8F4F9F4FF0680F
:101AB0009F2E2AE030E0A3010E945F13C82EC618B3
:101AC0003FC0092D853721F40F7E2AE030E01DC08C
:101AD000097F8F3691F018F4883559F0C3C08037EC
:101AE00019F0883711F0BEC0006104FF09C004601E
:101AF00007C094FE08C0066006C028E030E005C0BC
:101B000020E130E002C020E132E0560107FF09C0C9
:101B100084E0A80EB11CF6016081718182819381FD
:101B200008C0F2E0AF0EB11CF6016081718180E067
:101B300090E0A3010E945F13C82EC6180F77902E65
:101B400096FE0BC0092D0E7FC11650F494FE0AC0FC
:101B500092FC08C0092D0E7E05C0DC2C092D03C0A7
:101B6000DC2C01C0D12E04FF0DC0FE01EC0DF11DD7
:101B70008081803311F4097E09C002FF06C0D3942E
:101B8000D39404C0802F867809F0D39403FD11C04C
:101B900000FF06C01C2DD51480F4150D1D190DC0B5
:101BA000D51458F4B70180E290E00E94F312D39468
:101BB000F7CFD51410F45D1801C0512C04FF10C0EC
:101BC000B70180E390E00E94F31202FF17C001FD0D
:101BD00003C088E790E002C088E590E0B7010CC040
:101BE000802F867859F001FF02C08BE201C080E2AD
:101BF00007FD8DE2B70190E00E94F312C11638F4A0
:101C0000B70180E390E00E94F3121150F7CFCA941D
:101C1000F301EC0DF11D8081B70190E00E94F312F9
:101C2000C110F5CF15C0F4E0F51560F584E0581A41
:101C300093FE1FC0011127C02C8523FF2AC00AEC88
:101C400010E0392D3071932EF8018491811124C058
:101C5000552009F4E4CCB70180E290E00E94F31231
:101C60005A94F6CFF7018681978126C08FEF9FEFB8
:101C700023C0B70180E290E00E94F3125A94511001
:101C8000F8CFD8CF512CB701802F90E00E94F312EB
:101C9000D3CF0EEC10E0D5CF91108052B70190E079
:101CA0000E94F3120F5F1F4FCFCF23E0251510F4D2
:101CB00083E0BDCF512CC0CF6096E2E10C948E1131
:101CC0005058BB27AA270E94780E0C9422100E941D
:101CD000E90F38F00E94F00F20F039F49F3F19F41B
:101CE00026F40C94E60F0EF4E095E7FB0C94E00F5D
:101CF000E92F0E94471058F3BA1762077307840749
:101D0000950720F079F4A6F50C9469100EF4E0958F
:101D10000B2EBA2FA02D0B01B90190010C01CA01A5
:101D2000A0011124FF27591B99F0593F50F4503E50
:101D300068F11A16F040A22F232F342F4427585F42
:101D4000F3CF469537952795A795F0405395C9F75A
:101D50007EF41F16BA0B620B730B840BBAF0915012
:101D6000A1F0FF0FBB1F661F771F881FC2F70EC0B1
:101D7000BA0F621F731F841F48F487957795679584
:101D8000B795F7959E3F08F0B0CF9395880F08F070
:101D90009927EE0F9795879508950E94BC0F08F438
:101DA00081E008950E94F90FE3950C9433100E948E
:101DB000EB0E0C9422100E94F00F58F00E94E90FD5
:101DC00040F029F45F3F29F00C94E00F51110C947E
:101DD0006A100C94E60F0E94471068F39923B1F340
:101DE000552391F3951B550BBB27AA276217730741
:101DF000840738F09F5F5F4F220F331F441FAA1FD5
:101E0000A9F335D00E2E3AF0E0E832D09150504090
:101E1000E695001CCAF72BD0FE2F29D0660F771F3E
:101E2000881FBB1F261737074807AB07B0E809F024
:101E3000BB0B802DBF01FF2793585F4F3AF09E3FA9
:101E4000510578F00C94E00F0C946A105F3FE4F3B6
:101E5000983ED4F3869577956795B795F7959F5FEC
:101E6000C9F7880F911D9695879597F90895E1E038
:101E7000660F771F881FBB1F621773078407BA0797
:101E800020F0621B730B840BBA0BEE1F88F7E095F2
:101E900008950E94500F6894B1110C946A1008952F
:101EA0000E944F1088F09F5798F0B92F9927B7518B
:101EB000B0F0E1F0660F771F881F991F1AF0BA95EE
:101EC000C9F714C0B13091F00E946910B1E00895D3
:101ED0000C946910672F782F8827B85F39F0B93FC5
:101EE000CCF3869577956795B395D9F73EF49095A1
:101EF0008095709561957F4F8F4F9F4F0895E8941F
:101F000009C097FB3EF490958095709561957F4F41
:101F10008F4F9F4F9923A9F0F92F96E9BB279395EF
:101F2000F695879577956795B795F111F8CFFAF4FF
:101F3000BB0F11F460FF1BC06F5F7F4F8F4F9F4F30
:101F400016C0882311F096E911C0772321F09EE88E
:101F5000872F762F05C0662371F096E8862F70E0F4
:101F600060E02AF09A95660F771F881FDAF7880FCE
:101F70009695879597F90895990F0008550FAA0B24
:101F8000E0E8FEEF16161706E807F907C0F012168C
:101F90001306E407F50798F0621B730B840B950B8F
:101FA00039F40A2661F0232B242B252B21F40895E4
:101FB0000A2609F4A140A6958FEF811D811D089581
:101FC00097F99F6780E870E060E008959FEF80ECEC
:101FD000089500240A94161617061806090608958F
:101FE00000240A94121613061406050608950C948C
:101FF000E60F0E944F10D8F3E894E0E0BB279F570C
:10200000F0F02AED3FE049EC06C0EE0FBB0F661F73
:10201000771F881F28F0B23A62077307840728F0F9
:10202000B25A620B730B840BE3959A9572F7803862
:1020300030F49A95BB0F661F771F881FD2F7904820
:102040000C942B11092E0394000C11F4882352F0E8
:10205000BB0F40F4BF2B11F460FF04C06F5F7F4FD4
:102060008F4F9F4F0895EF93E0FF07C0A2EA2AED3C
:102070003FE049EC5FEB0E94780E0E9422100F9027
:10208000039401FC9058ECEAF0E00C94371157FDF2
:102090009058440F551F59F05F3F71F04795880FD6
:1020A00097FB991F61F09F3F79F08795089512166D
:1020B00013061406551FF2CF4695F1DF08C0161619
:1020C00017061806991FF1CF8695710561050894CA
:1020D0000895E894BB2766277727CB0197F90895E1
:1020E0000E94BC0F08F48FEF08950E9488100C9492
:1020F00022100E94E90F38F00E94F00F20F0952383
:1021000011F00C94E00F0C94E60F11240C946A105B
:102110000E94471070F3959FC1F3950F50E0551F33
:10212000629FF001729FBB27F00DB11D639FAA272C
:10213000F00DB11DAA1F649F6627B00DA11D661F7B
:10214000829F2227B00DA11D621F739FB00DA11D9C
:10215000621F839FA00D611D221F749F3327A00D56
:10216000611D231F849F600D211D822F762F6A2FF2
:1021700011249F5750409AF0F1F088234AF0EE0F57
:10218000FF1FBB1F661F771F881F91505040A9F784
:102190009E3F510580F00C94E00F0C946A105F3F55
:1021A000E4F3983ED4F3869577956795B795F795C0
:1021B000E7959F5FC1F7FE2B880F911D9695879538
:1021C00097F908950E944F10E8F09E37E8F096398D
:1021D000B8F49E3848F4672F782F8827985FF9CF96
:1021E00086957795679593959539D0F3B62FB1700D
:1021F0006B0F711D811D20F48795779567959395D9
:102200000C940E110C9429110C946A109F930E9447
:10221000F90F0F9007FCEE5F0C943310882371F4D4
:10222000772321F09850872B762F07C0662311F46F
:1022300099270DC09051862B70E060E02AF09A95A6
:10224000660F771F881FDAF7880F9695879597F99D
:1022500008959F3F31F0915020F4879577956795C9
:10226000B795880F911D9695879597F908959F9337
:102270008F937F936F93FF93EF939B01AC010E9429
:102280007510EF91FF910E944B112F913F914F914B
:102290005F910C947510DF93CF931F930F93FF9270
:1022A000EF92DF927B018C01689406C0DA2EEF0179
:1022B0000E948810FE01E894A591259135914591E1
:1022C0005591A6F3EF010E94780EFE019701A80137
:1022D000DA9469F7DF90EF90FF900F911F91CF9103
:1022E000DF9108952F923F924F925F926F927F926B
:1022F0008F929F92AF92BF92CF92DF92EF92FF9216
:102300000F931F93CF93DF93CDB7DEB7CA1BDB0BC1
:102310000FB6F894DEBF0FBECDBF09942A88398866
:1023200048885F846E847D848C849B84AA84B9846D
:10233000C884DF80EE80FD800C811B81AA81B98179
:10234000CE0FD11D0FB6F894DEBF0FBECDBFED018D
:1023500008958F929F92AF92BF92CF92DF92EF92A9
:10236000FF92CF93DF93EC01688179818A819B8111
:10237000611571058105910521F464E279ED8BE524
:1023800097E02DE133EF41E050E00E94BD13490199
:102390005A019B01AC01A7EAB1E40E94DC136B0176
:1023A0007C01ACEEB4EFA50194010E94EA13DC01BC
:1023B000CB018C0D9D1DAE1DBF1DB7FF03C0019746
:1023C000A109B04888839983AA83BB839F77DF9153
:1023D000CF91FF90EF90DF90CF90BF90AF909F9004
:1023E0008F9008950E94A911089583E191E00E94C1
:1023F000A9110895A0E0B0E0809313019093140117
:10240000A0931501B09316010895283008F027E035
:102410003327DA01990F311D87FD91600096610520
:10242000710539F432602E5F3D9330E32A95E1F770
:1024300008959F3F30F080387105610509F03C5FD9
:102440003C5F3D93913008F08068911DDF93CF93FE
:102450001F930F93FF92EF92192F987F9695E92F74
:1024600096959695E90FFF27E45DFE4F9927332750
:10247000EE24FF24A701E70105900894079428F4AF
:10248000360FE71EF81E491F511D660F771F881F64
:10249000991F0694A1F70590079428F4E70EF81EFB
:1024A000491F561FC11D770F881F991F661F06946D
:1024B000A1F70590079428F4F80E491F561FC71F6F
:1024C000D11D880F991F661F771F0694A1F70590ED
:1024D000079420F4490F561FC71FD81F990F661F76
:1024E000771F881F0694A9F784911095177041F003
:1024F000D695C79557954795F794E7941A95C1F7E0
:10250000E2EDF0E068941590159135916591959103
:1025100005907FE27395E118F10A430B560BC90B46
:10252000D009C0F7E10CF11E431F561FC91FD01D73
:102530007EF4703311F48A95E6CFE894015030F0C0
:10254000080F0AF40027021708F4202F2395022F02
:102550007A3328F079E37D932A95E9F710C07D93CB
:102560002A9589F606949795679537951795179448
:10257000E118F10A430B560BC90BD00998F02395CB
:102580007E9173957A3308F070E37C932013B8F74B
:102590007E9170617D9330F0839571E37D9370E35C
:1025A0002A95E1F71124EF90FF900F911F91CF91A1
:1025B000DF91992787FD90950895FC010590615062
:1025C00070400110D8F7809590958E0F9F1F089549
:1025D000FC016150704001900110D8F780959095F2
:1025E0008E0F9F1F08950F931F93CF93DF93FB01CF
:1025F000238121FD03C08FEF9FEF2CC022FF16C067
:1026000046815781248135814217530744F4A081C4
:10261000B1819D012F5F3F4F318320838C932681B1
:1026200037812F5F3F4F3783268314C08B01EC0126
:10263000FB010084F185E02D0995892BE1F6D80195
:1026400016968D919C911797019617969C938E9351
:102650001697CE01DF91CF911F910F910895AEE0B3
:10266000B0E0E5E3F3E10C9480110D891E898F89B8
:10267000988D26E02C831A83098397FF02C080E09F
:1026800090E801979E838D83AE01455E5F4F698D13
:102690007A8DCE0101960E94E30A4D815E8157FD3D
:1026A0000AC02F813885421753070CF49A01F801AC
:1026B000E20FF31F10822E96E4E00C949C11FA01B5
:1026C000AA27283051F1203181F1E8946F936E7F71
:1026D0006E5F7F4F8F4F9F4FAF4FB1E03ED0B4E062
:1026E0003CD0670F781F891F9A1FA11D680F791FA3
:1026F0008A1F911DA11D6A0F711D811D911DA11DB4
:1027000020D009F468943F912AE0269F11243019C3
:10271000305D3193DEF6CF010895462F4770405D5E
:102720004193B3E00FD0C9F7F6CF462F4F70405D0D
:102730004A3318F0495D31FD4052419302D0A9F768
:10274000EACFB4E0A6959795879577956795BA9562
:10275000C9F700976105710508959B01AC010A2E28
:1027600006945795479537952795BA95C9F7620FFF
:10277000731F841F951FA01D0895052E97FB1EF43F
:1027800000940E94D41357FD07D00E94EF1307FC5A
:1027900003D04EF40C94D413509540953095219568
:1027A0003F4F4F4F5F4F089590958095709561957D
:1027B0007F4F8F4F9F4F08950E941114A59F900D3A
:1027C000B49F900DA49F800D911D11240895B7FF13
:1027D0000C94DC130E94DC13821B930B0895A1E27E
:1027E0001A2EAA1BBB1BFD010DC0AA1FBB1FEE1F8B
:1027F000FF1FA217B307E407F50720F0A21BB30BD6
:10280000E40BF50B661F771F881F991F1A9469F751
:1028100060957095809590959B01AC01BD01CF01AD
:102820000895A29FB001B39FC001A39F700D811DA9
:102830001124911DB29F700D811D1124911D0895C9
:04284000F894FFCF3A
:1028440001050001000800CDCCCC3E00001C420074
:10285400009C4201000000151F040E0A13131E0EF3
:102864000A2530326400256600256400546F6D200B
:1028740026204A6572727921004A616D657320537E
:10288400636F7474004E39393433363138004C7602
:102894000048500053004849542053573320544FA4
:0E28A4002053544152540050415553454400B6
:00000001FF
