:100000000C94D6010C94F3010C94F3010C94F301BD
:100010000C94F3010C94F3010C94F3010C94F30190
:100020000C94F3010C94F3010C94F3010C94F30180
:100030000C94F3010C94F3010C94F3010C94F30170
:100040000C94F3010C94F3010C94F3010C94F30160
:100050000C94F3010C94F3010C94F3010C942C0A0E
:100060000C94F3010C94F3010C94F3010C94F30140
:100070000C94F3010C94F3010C94F3010C94F30130
:100080000C94F3010C94F3010C94F3010C94F30120
:100090000C94F3010C94F3010C94F3010C94F30110
:1000A0000C94F3010C94F3010C94F30105A84CCDCE
:1000B000B2D44EB93836A9020C50B9918688083CA2
:1000C000A6AAAA2ABE000000803F6E616E00696E7B
:1000D000660000407A10F35A00A0724E1809001012
:1000E000A5D4E80000E87648170000E40B540200AD
:1000F00000CA9A3B000000E1F505000080969800D8
:10010000000040420F000000A08601000000102700
:1001100000000000E8030000000064000000000090
:100120000A00000000000100000000002C76D888C2
:10013000DC674F0823DFC1DFAE59E1B1B796E5E3D5
:10014000E453C63AE651997696E8E6C28426EB89EE
:100150008C9B62ED407C6FFCEFBC9C9F40F2BAA58B
:100160006FA5F490055A2AF75C936B6CF9676DC123
:100170001BFCE0E40D47FEF520E6B500D0ED902E27
:100180000300943577050080841E080000204E0A85
:10019000000000C80C333333330F986E12831141C3
:1001A000EF8D2114893BE65516CFFEE6DB18D1848E
:1001B0004B381BF77C1D901DA4BBE42420328472B5
:1001C0005E228100C9F124ECA1E53D27000000007A
:1001D0000000005F00000007000700147F147F1478
:1001E000242A7F2A122313086462364955225000BC
:1001F00005030000001C2241000041221C001408DD
:100200003E081408083E080800503000000808089E
:100210000808006060000020100804023E514945B3
:100220003E00427F400042615149462141454B31E9
:100230001814127F1027454545393C4A4949300179
:10024000710905033649494936064949291E0036D0
:100250003600000056360000081422410014141421
:10026000141400412214080201510906324979414F
:100270003E7E1111117E7F494949363E414141225E
:100280007F4141221C7F494949417F090909013EBB
:100290004149497A7F0808087F00417F410020409A
:1002A000413F017F081422417F404040407F020CC3
:1002B000027F7F0408107F3E4141413E7F090909CA
:1002C000063E4151215E7F09192946464949493177
:1002D00001017F01013F4040403F1F2040201F3F60
:1002E0004038403F631408146307087008076151E1
:1002F000494543007F41410002040810200041416C
:100300007F0004020102044040404040000102041A
:100310000020545454787F4844443838444444209E
:10032000384444487F3854545418087E0901020C5C
:100330005252523E7F0804047800447D4000204021
:10034000443D007F1028440000417F40007C041899
:1003500004787C0804047838444444387C14141429
:1003600008081414187C7C080404084854545420C9
:10037000043F4440203C4040207C1C2040201C3C4A
:100380004030403C44281028440C5050503C4464B9
:10039000544C44000836410000007F000000413604
:1003A00008001008081008784641467811241FBE3E
:1003B000CFEFDAE0DEBFCDBF11E0A0E0B1E0EAEDC3
:1003C000F8E302C005900D92AC37B107D9F726E0EB
:1003D000ACE7B1E001C01D92A333B207E1F70E9480
:1003E00041100C946B1C0C940000DF92EF92FF9272
:1003F0000F931F93CF93DF93CDB7DEB72A970FB636
:10040000F894DEBF0FBECDBF082F162FD22E1F923D
:100410004F938EE291E09F938F931F928AE08F9388
:10042000CE0101967C019F938F930E947A1B612FCE
:1004300070E02D2DA701802F90E00E947A120FB658
:10044000F894DEBF0FBECDBF2A960FB6F894DEBF7C
:100450000FBECDBFDF91CF911F910F91FF90EF9015
:10046000DF9008959B0177FF02C0295F3F4FE3E0D3
:1004700035952795EA95E1F7A4E5A29FF001A39FA2
:10048000F00D11244E0F5F1FFA01E80FF91F2081B4
:1004900030E0CB0168E070E00E949519A90102C02C
:1004A000559547958A95E2F7CA0181709927089575
:1004B0000E94401A64E570E00E94951997FF03C0FE
:1004C00091958195910908950E94401A60E370E02A
:1004D0000E949519089797FF03C0919581959109FE
:1004E000089608958F929F92AF92BF92CF92DF921B
:1004F000EF92FF920F931F93CF93DF936A0149010D
:1005000000E010E07901E60EF71E5A01A80EB91EB0
:1005100008151905ACF4C0E0D0E0CC15DD0554F4A5
:100520004BE354E0B701C5010E943202892B29F444
:100530002196F3CF0F5F1F4FEBCF81E090E002C019
:1005400080E090E0DF91CF911F910F91FF90EF90AD
:10055000DF90CF90BF90AF909F908F900895FB0158
:100560009C0128503E4FDC014D91CD014193A217D3
:10057000B307C9F70895DF92EF92FF920F931F938D
:10058000CF93DF93CDB7DEB764970FB6F894DEBF95
:100590000FBECDBFD82E162F5F934F933F932F934F
:1005A00083E391E09F938F931F9284E18F93CE0119
:1005B00001967C019F938F930E947A1B612F70E0BC
:1005C000202FA7018D2D90E00E947A120FB6F8948B
:1005D000DEBF0FBECDBF64960FB6F894DEBF0FBE70
:1005E000CDBFDF91CF911F910F91FF90EF90DF90E2
:1005F0000895DF92EF92FF920F931F93CF93DF93B3
:10060000CDB7DEB72A970FB6F894DEBF0FBECDBFC9
:10061000E82EF62ED22E0130110519F40E94F501B4
:100620001DC01F924F9386E391E09F938F931F927B
:100630008AE08F938E010F5F1F4F1F930F930E94CD
:100640007A1B6F2D70E02D2DA8018E2D90E00E9459
:100650007A120FB6F894DEBF0FBECDBF2A960FB642
:10066000F894DEBF0FBECDBFDF91CF911F910F91E8
:10067000FF90EF90DF90089580910F01909110010D
:1006800001979093100180930F0110929C0110929A
:100690009B0188E090E090931401809313010895EA
:1006A00080E090E0ACE9B2E48093190190931A01E4
:1006B000A0931B01B0931C0180E090E0ACE1B2E498
:1006C0008093150190931601A0931701B093180120
:1006D00008958F929F92AF92BF92CF92DF92EF9246
:1006E000FF920E94401ABC01990F880B990B0E943F
:1006F000A4172BED3FE049E450E40E9498189B01B9
:10070000AC010E94841620E03EEF4FEF56E40E94B9
:10071000FA164B015C010E94F516C0900401D090BE
:100720000501E0900601F0900701A70196010E94E3
:1007300098186093990370939A0380939B03909306
:100740009C03C501B4010E9429199B01AC01C7019A
:10075000B6010E94981860939D0170939E0180934A
:100760009F019093A001FF90EF90DF90CF90BF90FA
:10077000AF909F908F900895CF92DF92EF92FF926B
:100780000F931F93CF93DF937C018B016C018FEF4D
:10079000C81AD80A4C3409F440C058F4443409F05B
:1007A0006FC0CC24C394D12CC0E0D0E00C5F1F4FAD
:1007B00027C0423509F449C0453509F061C0CC2451
:1007C000C394D12CC0E0D0E041EA51E0B801C701A8
:1007D0008C0D9D1D0E943202892B11F0C1E0D0E0EA
:1007E0008FEFC81AD80A86E0C816D10469F74AC044
:1007F0008FEFC81AD80A86E0C816D10409F442C09F
:1008000041EA51E0B801C7018C0D9D1D0E943202E2
:10081000892B71F3C1E0D0E0EBCFE12CF12CC0E0EB
:10082000D0E041EA51E0B701600F711FC6010E949C
:100830003202892B11F0C1E0D0E08FEFE81AF80AFC
:1008400085E0E816F10469F71DC0C12CD12CC0E089
:10085000D0E085E0E80EF11C41EA51E0B601600FFE
:10086000711FC7010E943202892B11F0C1E0D0E054
:100870008FEFC81AD80A85E0C816D10469F702C0FC
:10088000C0E0D0E0CE01DF91CF911F910F91FF909A
:10089000EF90DF90CF9008954F925F926F927F928A
:1008A0008F929F92AF92BF92CF92DF92EF92FF9280
:1008B0000F931F93CF93DF9300D000D0CDB7DEB757
:1008C000C0900001D0900101E0900201F09003017E
:1008D00020E030E040E251E4C701B6010E949818E0
:1008E0002B013C0120E030E040EA50E4C701B601B2
:1008F0000E94981869837A838B839C8320E030E080
:10090000A901C701B6010E949818AB01BC01EBEB2D
:10091000F3E080E090E0A0E9B1E480839183A283DA
:10092000B38380E090E0A0E7B1E484839583A6835D
:10093000B78380E090E0A0E5B1E480879187A2874B
:10094000B387812C912C88ECA82E81E4B82E848664
:100950009586A686B786408A518A628A738A89817B
:100960009A81AB81BC81848B958BA68BB78B80E001
:1009700090E0A0EAB0E4808F918FA28FB38F80E0E7
:1009800090E0A0E2B1E4848F958FA68FB78F80A20C
:1009900091A2A2A2B3A200E010E02CE032E404A3F2
:1009A00015A326A337A380A691A6A2A6B3A600E00E
:1009B00010E024E332E404A715A726A737A740AA2E
:1009C00051AA62AA73AA44AB55AB66AB77AB10AE23
:1009D00011AE12AE13AE84AF95AFA6AFB7AF009312
:1009E000FB031093FC032093FD033093FE038093DD
:1009F000FF0390930004A0930104B093020400E06D
:100A000010E020E732E400930304109304042093E1
:100A10000504309306048093070490930804A09380
:100A20000904B0930A0440930B0450930C046093A0
:100A30000D0470930E0420E030E040E751E4C7015C
:100A4000B6010E949818DC01CB01B05880930F04C6
:100A500090931004A0931104B093120480E090E0EE
:100A6000A0E7B1E48093130490931404A0931504B9
:100A7000B0931604109217041092180410921904DF
:100A800010921A0480E090E0A8E6B2E480931B0480
:100A900090931C04A0931D04B0931E0480921F0425
:100AA00090922004A0922104B092220480E090E071
:100AB000A0E9B2E48093230490932404A093250436
:100AC000B093260480E090E0A0EFB1E48093270487
:100AD00090932804A0932904B0932A0489809A80D3
:100AE000AB80BC80B7FAB094B7F8B09480922B0476
:100AF00090922C04A0922D04B0922E0420E030E0BD
:100B000040E651E4C701B6010E94981860932F0493
:100B100070933004809331049093320480E090E02D
:100B2000A0E6B1E48093330490933404A093350499
:100B3000B093360480E090E0A0EAB0E480933704FC
:100B400090933804A0933904B0933A040F900F9017
:100B50000F900F90DF91CF911F910F91FF90EF9029
:100B6000DF90CF90BF90AF909F908F907F906F90CD
:100B70005F904F9008954F925F926F927F928F9205
:100B80009F92AF92BF92CF92DF92EF92FF920F931C
:100B90001F93CF93DF9300D000D000D0CDB7DEB746
:100BA000843509F010C1C0901501D0901601E09075
:100BB0001701F0901801C701B6010E946C174B0194
:100BC0005C014090190150901A0160901B017090D7
:100BD0001C01C301B2010E946C1769837A838B8365
:100BE0009C834CE4B40189819A810E94BC030197E3
:100BF000A1F420E030E040E85FE3C301B2010E94CD
:100C000084166093190170931A0180931B019093CD
:100C10001C011D8221E02E831DC042E5B4018981A3
:100C20009A810E94BC03019799F420E030E040E8EB
:100C30005FE3C301B2010E948316609319017093B0
:100C40001A0180931B0190931C0181E08D8301C0E8
:100C50001D821E824090190150901A0160901B0164
:100C600070901C01C301B2010E946C1769837A83E2
:100C70008B839C8345E5B40189819A810E94BC03E2
:100C800020E030E040E85FE3019779F4C701B60166
:100C90000E948416609315017093160180931701CA
:100CA0009093180180E091E021C0C701B6010E9435
:100CB00084160E946C1744E489819A810E94BC03C7
:100CC000019791F420E030E040E85FE3C701B6010E
:100CD0000E9483166093150170931601809317018B
:100CE0009093180181E001C080E090E02E812111F5
:100CF00007C02D81211104C0911102C08823C1F0C9
:100D000026960FB6F894DEBF0FBECDBFDF91CF9110
:100D10001F910F91FF90EF90DF90CF90BF90AF9019
:100D20009F908F907F906F905F904F900C9469038D
:100D3000C0901501D0901601E0901701F0901801B5
:100D400020E030E040EE50E4C701B6010E94F0160A
:100D50001816FCF420E030E04CE252E4C701B60182
:100D60000E9493181816ACF020E030E040E85FEBEA
:100D7000C301B2010E94F01687FD0BC020E030E0F5
:100D80004EE952E4C301B2010E94931818160CF008
:100D900099C00E94690326960FB6F894DEBF0FBE75
:100DA000CDBFDF91CF911F910F91FF90EF90DF901A
:100DB000CF90BF90AF909F908F907F906F905F90FB
:100DC0004F900C9450038A3409F07CC08091130139
:100DD000909114019A838983E0909B01F0909C018B
:100DE0004CE4BC01C7010E94BC03019751F49FEF82
:100DF000E91AF90AF0929C01E0929B0110E001E0EF
:100E000013C042E569817A81C7010E94BC03019742
:100E100049F421E0E21AF108F0929C01E0929B0172
:100E200011E001C010E000E0E0909B01F0909C0117
:100E300045E569817A81C7010E94BC0369817A8195
:100E40006F5F7F4F019729F4709314016093130132
:100E50000DC044E4C7010E94BC03019739F48981A5
:100E60009A8101979093140180931301011127C077
:100E7000809113019091140108978497C0F02696F1
:100E80000FB6F894DEBF0FBECDBFDF91CF911F919B
:100E90000F91FF90EF90DF90CF90BF90AF909F9019
:100EA0008F907F906F905F904F900C943C039FEFDA
:100EB000E91AF90A20E5E216F10408F703C0111156
:100EC000DECFD6CF26960FB6F894DEBF0FBECDBFCD
:100ED000DF91CF911F910F91FF90EF90DF90CF9016
:100EE000BF90AF909F908F907F906F905F904F904A
:100EF00008954F925F926F927F928F929F92AF92DE
:100F0000BF92CF92DF92EF92FF920F93CF93DF9336
:100F1000CBEBD3E0C888D988EA88FB88A701960183
:100F2000688179818A819B810E9484166883798394
:100F30008A839B83A7019601688579858A859B852D
:100F40000E948416688779878A879B87CC88DD888A
:100F5000EE88FF88A70196016C817D818E819F813B
:100F60000E9484166C837D838E839F83A7019601E4
:100F70006C857D858E859F850E9484166C877D8714
:100F80008E879F878AE40E94BB0584E50E94BB058B
:100F9000C888D988EA88FB8820E030E0A901C70129
:100FA000B6010E9493181816CCF5488059806A80C3
:100FB0007B8020E030E048EA52E4C301B2010E94A5
:100FC000931887FD72C0C884D984EA84FB8420E02A
:100FD00030E048EA52E4C701B6010E94931887FD49
:100FE00064C020E030E048EA52E4688D798D8A8D53
:100FF0009B8D0E9484164B015C019B01AC01C301D7
:10100000B2010E948316688379838A839B83A5013A
:101010009401C701B6010E94831643C020E030E06E
:10102000A901C701B6010E94F01687FF3EC04880A3
:1010300059806A807B8020E030E0A901C301B201C1
:101040000E94F01618168CF188849984AA84BB84B7
:1010500020E030E0A901C501B4010E94F016181685
:1010600024F1C88CD98CEA8CFB8C20E030E048EA73
:1010700052E4C301B2010E948416A70196010E94A6
:101080008416688379838A839B8320E030E048EA72
:1010900052E4C501B4010E948416A70196010E9482
:1010A0008416688779878A879B87CC88DD88EE8855
:1010B000FF8820E030E0A901C701B6010E94F016C8
:1010C00087FF3FC04C805D806E807F8020E030E0F5
:1010D00040E051E4C301B2010E94F01618160CF46E
:1010E00075C08C849D84AE84BF8420E030E040E0F5
:1010F00051E4C501B4010E94F01618160CF466C044
:10110000CC8CDD8CEE8CFF8C20E030E040E252E4B1
:10111000C301B2010E948416A70196010E948416A1
:101120006C837D838E839F8320E030E040E252E435
:10113000C501B4010E948416A70196010E9484167D
:1011400041C020E030E0A901C701B6010E94931818
:101150001816E4F54C805D806E807F8020E030E0E2
:1011600040E452E4C301B2010E94931887FD2EC0EF
:10117000CC84DD84EE84FF8420E030E040E452E45F
:10118000C701B6010E94931887FD20C020E030E01F
:1011900044E252E46C8D7D8D8E8D9F8D0E9484166D
:1011A0004B015C019B01AC01C301B2010E9483169B
:1011B0006C837D838E839F83A5019401C701B60153
:1011C0000E9483166C877D878E879F876C857D85BF
:1011D0008E859F850E946C172B013C01688579855F
:1011E0008A859B850E946C174B015C016C817D8117
:1011F0008E819F810E946C176B017C0168817981CF
:101200008A819B810E946C17DC01CB0101E0920175
:10121000A401B6010E94B210A09684E0CB33D80797
:1012200009F078CEDF91CF910F91FF90EF90DF9092
:10123000CF90BF90AF909F908F907F906F905F9076
:101240004F9008954F925F926F927F928F929F92EC
:10125000AF92BF92CF92DF92EF92FF920F93CF9314
:10126000DF93CBEBD3E06C857D858E859F850E94D7
:101270006C172B013C01688579858A859B850E94C6
:101280006C174B015C016C817D818E819F810E9476
:101290006C176B017C01688179818A819B810E9436
:1012A0006C17DC01CB0101E09201A401B6010E94A0
:1012B000B210A09684E0CB33D807A9F6DF91CF9186
:1012C0000F91FF90EF90DF90CF90BF90AF909F90E5
:1012D0008F907F906F905F904F900895859886983B
:1012E000229A239A569A5198279821985098209894
:1012F0000895789414BC85E085BD81E080936E00EC
:1013000008951092910110929201109293011092FF
:10131000940110928D0110928C010895EDE9F3E093
:101320008BEF9FEF91838083938382831582148256
:10133000369623E0EB3BF207A9F7089580E090E0B2
:10134000ACE9B2E48093190190931A01A0931B01B8
:10135000B0931C0180E090E0ACE1B2E48093150111
:1013600090931601A0931701B09318010E943C03BB
:101370000C9469030E9481090E949E090C948E09B5
:101380008F929F92AF92BF92CF92DF92EF92FF9295
:101390000F931F93CF93DF93A0909B01B0909C017C
:1013A00080901301909014018091990190919A017D
:1013B00060E070E0E401C60FD71F40E050E0850117
:1013C000040F151FEDE9F3E0E080F18020E030E04C
:1013D0006701AFEFCA1ADA0A0E151F0551F4A28190
:1013E000B381A20FB31FAC17BD0719F41582148285
:1013F00001960C151D0551F4A281B381A20FB31FF4
:10140000AC17BD0719F41582148201962F5F3F4F68
:101410002330310509F7369623E0EB3BF207A1F6BE
:101420004F5F5F4F4530510551F66F5F7F4F65301D
:10143000710509F0BFCF90939A0180939901DF91D4
:10144000CF911F910F91FF90EF90DF90CF90BF90C1
:10145000AF909F908F9008951F920F920FB60F92AA
:1014600011248F939F9380918C0190918D0101960F
:1014700090938D0180938C0180918B01880F8093D4
:101480008B0180918701880F80938701809185016E
:10149000880F8093850180918301880F8093830159
:1014A00080918101880F8093810180917F01880F55
:1014B00080937F0180917D01880F80937D018091D1
:1014C0008B01877080938B01809187018770809357
:1014D00087018091850183708093850180918301CC
:1014E0008370809383018091810183708093810157
:1014F00080917F01837080937F0180917D0187704F
:1015000080937D018FB190918B0185FB882780F9B5
:10151000892B80938B018FB19091870186FB88275F
:1015200080F9892B8093870189B1909185018695F7
:101530008170892B8093850183B190918301881FED
:101540008827881F892B8093830183B19091810123
:1015500086958170892B8093810189B190917F015B
:101560008170892B80937F0183B190917D0181707F
:10157000892B80937D0180918B01873021F481E05C
:1015800080938A0106C080918B01811102C0109264
:101590008A0180918701873021F481E08093860160
:1015A00006C080918701811102C01092860180914E
:1015B0008501833021F481E08093840106C080910D
:1015C0008501811102C010928401809183018330D2
:1015D00021F481E08093820106C080918301811112
:1015E00002C01092820180918101833021F481E058
:1015F0008093800106C080918101811102C0109208
:10160000800180917F01833021F481E080937E010D
:1016100006C080917F01811102C010927E018091ED
:101620007D01833021F481E080937C0106C08091AC
:101630007D01811102C010927C019F918F910F90CA
:101640000FBE0F901F90189521E049E351E064E030
:1016500070E08CE090E00E947A1221E046E451E0D4
:1016600064E170E082E090E00E947A1221E047E5B8
:1016700051E060E270E08FE090E00E947A1221E099
:1016800043E651E069E270E086E190E00C947A1262
:10169000AF92BF92CF92DF92EF92FF920F931F9380
:1016A000CF93DF9300D000D01F92CDB7DEB785E097
:1016B000E1E2F1E0DE01119601900D928A95E1F7E9
:1016C0008E010F5F1F4FC12CD12C85E0A82EB12CAD
:1016D000E12CF12CF801808190E095012E193F0951
:1016E00002C0959587952A95E2F780FF0FC060911B
:1016F0001301709114016C0D7D1D80919B019091DF
:101700009C0141E08E0D9F1D0E947910FFEFEF1AA2
:10171000FF0A86E0E816F104E9F6EFEFCE1ADE0ADA
:101720000F5F1F4FF5E0CF16D10491F60F900F9089
:101730000F900F900F90DF91CF911F910F91FF901D
:10174000EF90DF90CF90BF90AF9008952F923F928F
:101750004F925F926F927F928F929F92AF92BF92C1
:10176000CF92DF92EF92FF920F931F93CF93DF936D
:1017700000D000D01F92CDB7DEB785E0E6E2F1E001
:10178000DE01119601900D928A95E1F78E010F5FAF
:101790001F4FC12CD12C85E0282E312CE12CF12CAF
:1017A00046010D2C000CAA08BB08F801808190E0CE
:1017B00091012E193F0902C0959587952A95E2F768
:1017C00080FF2BC0C501B4010E94A4172091150110
:1017D0003091160140911701509118010E94841612
:1017E0000E946C172B013C01B7010F2C000C880BD9
:1017F000990B0E94A4172091190130911A01409170
:101800001B0150911C010E9484160E946C17DC0180
:10181000CB0141E0B2010E947910FFEFEF1AFF0AFD
:1018200086E0E816F10409F6EFEFCE1ADE0A0F5F44
:101830001F4FF5E0CF16D10409F0B0CF0F900F90F5
:101840000F900F900F90DF91CF911F910F91FF900C
:10185000EF90DF90CF90BF90AF909F908F907F9050
:101860006F905F904F903F902F9008950C94690374
:10187000AF92BF92CF92DF92EF92FF920F931F939E
:10188000CF93DF930091130110911401E0909B011D
:10189000F0909C01570184E0A80EB11C60911501E5
:1018A0007091160180911701909118010E946C1798
:1018B0006B01EB0124966091190170911A018091DE
:1018C0001B0190911C010E946C179B016C5F7F4F64
:1018D0000C171D0729F0C80104968C159D0539F4D5
:1018E0006E157F05ACF0A216B30694F00CC0E61698
:1018F000F70619F0A216B30651F4C017D10744F049
:101900008C159D052CF05E9A81E090E003C05E98F6
:1019100080E090E0DF91CF911F910F91FF90EF90C9
:10192000DF90CF90BF90AF9008954F925F926F92EB
:101930007F928F929F92AF92BF92CF92DF92EF925F
:10194000FF920E94380C892B59F00E949E098091C9
:101950000F019091100101979093100180930F0156
:101960002091990330919A0340919B0350919C03DD
:101970006091190170911A0180911B0190911C01D5
:101980000E9484164B015C010E9405192B013C0149
:1019900020919D0130919E0140919F015091A001A5
:1019A00060911501709116018091170190911801B5
:1019B0000E9484166B017C010E9405190E946C171D
:1019C000695071096332710538F4C301B2010E9494
:1019D0006C176F34710570F0FF90EF90DF90CF902F
:1019E000BF90AF909F908F907F906F905F904F903F
:1019F0000C9469038092190190921A01A0921B0124
:101A0000B0921C01C0921501D0921601E09217010C
:101A1000F0921801FF90EF90DF90CF90BF90AF90C1
:101A20009F908F907F906F905F904F900895CF938D
:101A3000DF930E94380C892B61F00E949E098091EF
:101A40000F019091100101979093100180930F0165
:101A50006BC0809184018130A1F4C0911301D091B9
:101A60001401C930D1056CF0219745E5BE01809184
:101A70009B0190919C010E94BC03892B09F053C0EB
:101A800016C080918201813009F5C0911301D09177
:101A90001401CB32D105D4F4219644E4BE018091E7
:101AA0009B0190919C010E94BC03892B29F4D09347
:101AB0001401C093130135C02FEF83E294EF21503E
:101AC00080409040E1F700C000002DC0809180016F
:101AD000813069F4C0919B01D0919C01D7FD07C072
:101AE000219760911301709114014CE411C0809111
:101AF0007E018130C9F4C0919B01D0919C01CE340C
:101B0000D10594F42196609113017091140142E57E
:101B1000CE010E94BC03892B31F4D0939C01C09369
:101B20009B015E9801C05E9ADF91CF9108950F935B
:101B30001F9321E04CE651E060E070E080E090E02F
:101B40000E947A1221E04AE360E070E08AE090E0CF
:101B50000E94141200E010E021E04091110160E0C9
:101B60008EE00E94F90221E04FE651E060E070E073
:101B700085E190E00E947A1221E04AE360E070E0A3
:101B80008FE190E00E94141221E040910F0160E08B
:101B900083E20E94F90221E042E751E060E070E058
:101BA0008AE290E00E947A1221E04AE360E070E06D
:101BB00080E390E00E94141221E04091990160E0DE
:101BC00084E30E94F90220E030E040E752E46091B3
:101BD00091017091920180919301909194010E94E2
:101BE000931887FD0DC0809190018F5F80939001C5
:101BF000109291011092920110929301109294010F
:101C000021E04091900160E08CE30E94F50121E029
:101C10004AE360E070E086E490E00E941412609174
:101C200091017091920180919301909194010E9491
:101C30006C17462F21E060E08AE40E94F50101E084
:101C400027E030E044E550E067E070E080E090E0BD
:101C50000E94B2101F910F9108950F931F93CF937D
:101C6000DF930E945802EC010E9464028C0124E080
:101C700030E043E050E0BC01CE010E947202892BAB
:101C800081F7EDE9F3E080E090E024813581232BBA
:101C900089F426E0289FF001299FF00D1124E356D6
:101CA000FC4F81E090E095838483D183C0831383CC
:101CB000028305C0019636968530910531F7DF9194
:101CC000CF911F910F9108954F925F926F927F92E3
:101CD0008F929F92AF92BF92CF92DF92EF92FF923C
:101CE0000F931F93CF93DF9300D01F92CDB7DEB732
:101CF0002C0180912B0190912C01A0912D018983C1
:101D00009A83AB834E0184E0880E911C8E010F5F95
:101D10001F4F5B01A01AB10A720182E0C82ED12CBC
:101D20003501600E711EF801808190E00C2C02C01C
:101D3000959587950A94E2F780FF05C041E0B301CD
:101D4000C7010E947910F1E0CF1AD1088FEFE81A8D
:101D5000F80AEFEFCE16DE0631F70F5F1F4F0815BA
:101D60001905D1F60F900F900F90DF91CF911F9131
:101D70000F91FF90EF90DF90CF90BF90AF909F902A
:101D80008F907F906F905F904F900895CF93DF93E7
:101D9000CDE9D3E08C819D81019731F46A817B810B
:101DA000888199810E94640E269683E0CB3BD807F8
:101DB00089F7DF91CF91089580918A01811107C041
:101DC00080918801909189018130910549F080913D
:101DD0008A0190E0909389018093880180E090E0EF
:101DE0000895CF92DF92EF92FF920F931F93CF93BC
:101DF000DF930E9422090E94970D60918C017091DF
:101E00008D01C6B5072E000C880B990B0E94A417F4
:101E100020E030E040E853E40E9498186B017C0118
:101E20006C2F70E080E090E00E94A4179B01AC0151
:101E3000C701B6010E94841620E030E040E854E477
:101E40000E94981820E034E244EF5AE40E94FA1607
:101E5000C0919001D0E000E010E00C171D074CF499
:101E600020E030E040E752E40E9483160F5F1F4FEE
:101E7000F4CF2091910130919201409193015091C2
:101E800094010E948316609395017093960180934C
:101E900097019093980121E044E751E064E170E0FC
:101EA0008BE190E00E947A120E94A60B0E94480BE0
:101EB0000E94C60EDF91CF911F910F91FF90EF907E
:101EC000DF90CF900C94C009CF92DF92EF92FF92F7
:101ED0000F931F93CF93DF930E94790761EA71E01C
:101EE0008BE394E00E94AF020E94970D60918C01F9
:101EF00070918D01C6B5072E000C880B990B0E94BE
:101F0000A41720E030E040E853E40E9498186B01E9
:101F10007C016C2F70E080E090E00E94A4179B0190
:101F2000AC01C701B6010E94841620E030E040E811
:101F300054E40E94981820E034E244EF5AE40E94EE
:101F4000FA16209195013091960140919701509198
:101F500098010E948316C0919001D0E000E010E04B
:101F60000C171D074CF420E030E040E752E40E94DB
:101F700083160F5F1F4FF4CF60939101709392010E
:101F800080939301909394010E94950C0E94A60B5C
:101F90000E94480B0E94C60E6091910170919201BF
:101FA00080919301909194010E946C176E5F7F4F16
:101FB000CB01770FAA0BBB0B00910801109109010F
:101FC00020910A0130910B0180179107A207B307F6
:101FD00069F40296A11DB11D809308019093090137
:101FE000A0930A01B0930B010E942D0EDF91CF91B7
:101FF0001F910F91FF90EF90DF90CF900C94C0094C
:1020000080918A01811110C080918801909189018D
:10201000019751F480910E01811104C081E08093F9
:102020000E0102C010920E0180918A0190E09093FF
:1020300089018093880180910E0181110C94F10E29
:102040000C94640FE1E6F0E080E8808381E0808317
:102050008FE30E94BD120E94ED120E9471100E9437
:1020600079090E946E090E944C040E94240B0C9472
:102070005E100E9471100E9400100E94170D0C94B7
:102080005E100E9422100E94DC0E892BE1F38091E9
:102090008C0190918D010E94451A0E9469030E9453
:1020A000BA098FE19EE40197F1F700C000000E9499
:1020B00039108FEC97E00197F1F7F7CFCF93DF93CB
:1020C00060E080E00E94FA12CBE3D4E0699181E005
:1020D0000E949F1286E0C333D807C1F7DF91CF91EA
:1020E0000895EBE3F4E0119286E0E333F807D9F7C3
:1020F000089584359105A8F56033710590F59B012D
:1021000073E0359527957A95E1F76770452BA1F037
:1021100044E5429FF001439FF00D11248E0F9F1F55
:10212000FC01E55CFB4F81E090E001C0880F6A95FF
:10213000EAF79081892B14C044E5429FF001439F48
:10214000F00D11248E0F9F1FFC01E55CFB4F81E019
:1021500090E001C0880F6A95EAF780959081892305
:10216000808308952F923F924F925F926F927F9259
:102170008F929F92AF92BF92CF92DF92EF92FF9297
:102180000F931F93CF93DF93CDB7DEB72E970FB684
:10219000F894DEBF0FBECDBF1C013B012A013A837C
:1021A00029838417950771F57C836B8329813A8194
:1021B000621673069CF48B819C81281739070CF4F6
:1021C0001AC1A8016B817C81C1010E9479102B8109
:1021D0003C812F5F3F4F3C832B83E8CFAB81BC8199
:1021E00029813A81A217B3070CF405C1A8016B81BC
:1021F0007C81C1010E9479108B819C8101979C8315
:102200008B83D4CF89819A816817790751F53A82F7
:102210002982241435049CF4A981BA814A165B06EC
:102220000CF4E9C0A801B30189819A810E94791058
:1022300029813A812F5F3F4F3A832983EACF298151
:102240003A81241535050CF4D6C0A801B301898163
:102250009A810E947910A981BA811197BA83A983C2
:10226000D8CF4215530554F4872D69807A8069834D
:102270008A83922D832D1A01492E582EB20162199C
:102280007309072E000C880B990B0E94A4176F830B
:10229000788789879A8769817A8166197709072EF5
:1022A000000C880B990B0E94A4174B015C012F8135
:1022B000388549855A850E94FA166B837C838D8305
:1022C0009E8320E030E0A9010E94931887FF09C097
:1022D0008B819C81AD81BE81B0588B839C83AD8303
:1022E000BE83C12CD12C760120E030E0A9016F81A2
:1022F000788589859A850E94931818160CF077C006
:10230000421453040CF477C0A801B301C1010E9428
:1023100079102B813C814D815E81C701B6010E94FD
:1023200084166B017C0120E030E040E05FE30E9416
:10233000931887FF10C020E030E0A9016F817885F5
:1023400089859A850E94931818160CF04CC09FEF4F
:10235000291A390AC9CF20E030E0A901C501B4012A
:102360000E9493181816CCF529813A812615370555
:1023700014F3A801B301C1010E947910A1E0B0E0FB
:10238000BC87AB8720E030E0A901C501B4010E9401
:102390009318181614F01C861B8621E030E03E8747
:1023A0002D8720E030E0A901C501B4010E94F0169C
:1023B00087FD02C01E861D868B859C85AD85BE85EA
:1023C0008A1B9B0B680E791E20E030E040E85FE33B
:1023D000C701B6010E948316A4CF89819A8168162D
:1023E00079063CF6A8CFA1E02A1A31087DCF241443
:1023F00035040CF089CF2E960FB6F894DEBF0FBED1
:10240000CDBFDF91CF911F910F91FF90EF90DF90A3
:10241000CF90BF90AF909F908F907F906F905F9084
:102420004F903F902F9008952F923F924F925F923E
:102430006F927F928F929F92AF92BF92CF92DF92D4
:10244000EF92FF920F931F93CF93DF936C014B0199
:10245000190185E0489F20011124E12CF12C80EA2C
:10246000481A510866246394712CF201EE0DFF1D89
:10247000E453FE4FE4912114310409F4E09500E0A7
:1024800010E0CE2FD0E05601AE0CBF1CA301002EF1
:1024900002C0440F551F0A94E2F74C235D23002E1F
:1024A00002C0559547950A94E2F7B401600F711F79
:1024B000C5010E9479100F5F1F4F0830110531F7D9
:1024C0008FEFE81AF80A85E0E816F10471F6DF915B
:1024D000CF911F910F91FF90EF90DF90CF90BF9021
:1024E000AF909F908F907F906F905F904F903F90B4
:1024F0002F900895CF92DF92EF92FF920F931F9348
:10250000CF93DF937B018A016901D82FC0E0F801E6
:10251000EC0FF11D4081442349F09601B7018D2F46
:1025200090E00E941412DB5FCF5FF1CFDF91CF917B
:102530001F910F91FF90EF90DF90CF90089525B1FC
:102540002F7D30E2839FC0011124822B85B95F98D3
:1025500087E090E070E08F989B01082E02C03595CF
:1025600027950A94E2F720FF02C02E9A01C02E9808
:102570008F9A019780F75F9A0895CF93C82F579A43
:10258000249A259A269A879A2C985F9A2C9A61E227
:1025900080E00E949F126C2F606880E00E949F1272
:1025A00064E080E00E949F1263E180E00E949F123D
:1025B0006CE080E00E949F1260E280E00E949F1227
:1025C0006CE080E00E949F1260E480E00E949F1215
:1025D00060E880E0CF910C949F12CF93DF93C8EF17
:1025E000D1E060E081E00E949F122197D1F7DF9156
:1025F000CF910895CF93C82F606480E00E949F120E
:102600006C2F606880E0CF910C949F12A0E1B0E045
:10261000ECE0F3E10C94A9197C011B016A01FC01B7
:1026200017821682838181FF44C39E012F5F3F4F33
:102630003901F7019381F10193FD859193FF819118
:102640001F01882309F431C3853239F493FD859144
:1026500093FF81911F01853239F4B70190E00E9408
:102660003E1B56016501E5CF10E0512C912CFFE196
:10267000F915D8F08B3279F038F4803279F0833262
:10268000A1F4F92DF0612EC08D3261F0803369F430
:10269000292D21602DC0392D3260932E892D846023
:1026A000982E2AC0E92DE86015C097FC2DC020EDBA
:1026B000280F2A3088F496FE06C03AE0139F200DBA
:1026C0001124122F19C08AE0589E200D1124522E79
:1026D000E92DE0629E2E10C08E3231F496FCE5C2E8
:1026E000F92DF0649F2E08C08C3621F4292D206826
:1026F000922E02C0883641F4F10193FD859193FF3B
:1027000081911F018111B3CF9BEB980F933020F47F
:10271000992D9061805E07C09BE9980F933008F077
:1027200066C1992D9F7E96FF16E09F73992E853680
:1027300019F49064992E08C0863621F4392F306838
:10274000932E02C01111115097FE07C01C3350F494
:1027500044244394410E27E00BC0183038F027E0A2
:1027600017E005C027E09CE3492E02C0212F412C31
:10277000560184E0A80EB11CF6016081718182814E
:102780009381042DA3010E94501A6C01F981FC87EA
:10279000F0FF02C0F3FF06C091FC06C092FE06C027
:1027A00000E205C00DE203C00BE201C000E08C8531
:1027B0008C7019F001115AC29BC297FE10C04C0CCC
:1027C000FC85F4FF04C08A81813309F44A9414140F
:1027D00074F528E0241578F588E0482E2CC096FC86
:1027E0002AC0812F90E08C159D059CF03CEFC3160C
:1027F0003FEFD30674F0892D8068982E0AC0E2E07E
:10280000F0E0EC0FFD1FE10FF11D8081803319F422
:1028100011501111F4CF97FE0EC044244394410E81
:10282000812F90E0C816D9062CF41C1904C044244A
:10283000439401C010E097FE06C01C141D0434F43C
:10284000C601019605C085E090E002C081E090E0FD
:1028500001110196112331F0212F30E02F5F3F4FFE
:10286000820F931F252D30E08217930714F4581A16
:1028700001C0512C892D897049F4552039F0B701D8
:1028800080E290E00E943E1B5A94F7CF002329F08B
:10289000B701802F90E00E943E1B93FC09C0552099
:1028A00039F0B70180E390E00E943E1B5A94F7CFC5
:1028B00097FE4CC04601D7FE02C0812C912CC60168
:1028C00088199909F301E80FF91FFE87ED87960132
:1028D00024193109388B2F87012F10E011950195AC
:1028E00011093FEF8316930629F4B7018EE290E0B9
:1028F0000E943E1BC814D9044CF08F859889881516
:10290000990524F4ED85FE85818101C080E3F1E025
:102910008F1A91082D853E852F5F3F4F3E872D876B
:10292000801691062CF0B70190E00E943E1BD9CF93
:10293000C814D90441F49A81963320F4953319F4DC
:102940003C8534FF81E3B70190E04EC08A8181333A
:1029500019F09C859F7E9C87B70190E00E943E1BEA
:10296000111105C094FC18C085E690E017C0B701AE
:102970008EE290E00E943E1B1E5F82E001E0080FA5
:10298000F301E80FF11D8081B70190E00E943E1B2A
:10299000802F0113F3CFE6CF85E490E0B7010E94CA
:1029A0003E1BD7FC06C0C114D10441F4EC85E4FF02
:1029B00005C0D194C194D1088DE201C08BE2B7016A
:1029C00090E00E943E1B80E32AE0C216D1042CF066
:1029D0008F5FFAE0CF1AD108F7CFB70190E00E94DD
:1029E0003E1BB701C601C0960E943E1B54C18336F0
:1029F00031F0833779F0833509F056C020C0560195
:102A000032E0A30EB11CF6018081898301E010E061
:102A1000630112C05601F2E0AF0EB11CF601C08096
:102A2000D18096FE03C0612F70E002C06FEF7FEF90
:102A3000C6010E94331B8C01F92DFF7714C056018B
:102A400022E0A20EB11CF601C080D18096FE03C028
:102A5000612F70E002C06FEF7FEFC6010E94281B5C
:102A60008C01F92DF0689F2EF3FD1AC0852D90E0A2
:102A700008171907A8F4B70180E290E00E943E1BF6
:102A80005A94F4CFF60197FC859197FE81916F01DE
:102A9000B70190E00E943E1B51105A940150110959
:102AA0000115110579F7F7C0843611F0893661F503
:102AB000560197FE09C024E0A20EB11CF601608108
:102AC0007181828193810AC0F2E0AF0EB11CF601E0
:102AD00060817181072E000C880B990BF92DFF7610
:102AE0009F2E97FF09C090958095709561957F4FB7
:102AF0008F4F9F4FF0689F2E2AE030E0A3010E9485
:102B0000AA1BC82EC6183FC0092D853721F40F7E99
:102B10002AE030E01DC0097F8F3691F018F4883527
:102B200059F0C3C0803719F0883711F0BEC000617A
:102B300004FF09C0046007C094FE08C0066006C018
:102B400028E030E005C020E130E002C020E132E0C2
:102B5000560107FF09C084E0A80EB11CF601608190
:102B600071818281938108C0F2E0AF0EB11CF60141
:102B70006081718180E090E0A3010E94AA1BC82EB1
:102B8000C6180F77902E96FE0BC0092D0E7FC1162A
:102B900050F494FE0AC092FC08C0092D0E7E05C0B8
:102BA000DC2C092D03C0DC2C01C0D12E04FF0DC08C
:102BB000FE01EC0DF11D8081803311F4097E09C006
:102BC00002FF06C0D394D39404C0802F867809F006
:102BD000D39403FD11C000FF06C01C2DD51480F452
:102BE000150D1D190DC0D51458F4B70180E290E001
:102BF0000E943E1BD394F7CFD51410F45D1801C08A
:102C0000512C04FF10C0B70180E390E00E943E1BEE
:102C100002FF17C001FD03C088E790E002C088E50D
:102C200090E0B7010CC0802F867859F001FF02C0F8
:102C30008BE201C080E207FD8DE2B70190E00E94C7
:102C40003E1BC11638F4B70180E390E00E943E1BA2
:102C50001150F7CFCA94F301EC0DF11D8081B7013B
:102C600090E00E943E1BC110F5CF15C0F4E0F515B1
:102C700060F584E0581A93FE1FC0011127C02C850F
:102C800023FF2AC00AEC10E0392D3071932EF80191
:102C90008491811124C0552009F4E4CCB70180E26D
:102CA00090E00E943E1B5A94F6CFF70186819781EF
:102CB00026C08FEF9FEF23C0B70180E290E00E9413
:102CC0003E1B5A945110F8CFD8CF512CB701802F0A
:102CD00090E00E943E1BD3CF0EEC10E0D5CF9110B8
:102CE0008052B70190E00E943E1B0F5F1F4FCFCF75
:102CF00023E0251510F483E0BDCF512CC0CF6096A2
:102D0000E2E10C94C5195058BB27AA270E949B16D4
:102D10000C9445180E940C1838F00E94131820F0EB
:102D200039F49F3F19F426F40C9409180EF4E09539
:102D3000E7FB0C940318E92F0E946A1858F3BA179E
:102D4000620773078407950720F079F4A6F50C94C1
:102D50008C180EF4E0950B2EBA2FA02D0B01B901A3
:102D600090010C01CA01A0011124FF27591B99F001
:102D7000593F50F4503E68F11A16F040A22F232F0D
:102D8000342F4427585FF3CF469537952795A7955D
:102D9000F0405395C9F77EF41F16BA0B620B730B04
:102DA000840BBAF09150A1F0FF0FBB1F661F771F75
:102DB000881FC2F70EC0BA0F621F731F841F48F42A
:102DC000879577956795B795F7959E3F08F0B0CFB3
:102DD0009395880F08F09927EE0F9795879508959A
:102DE0000E94DF1708F481E008950E941C18E39503
:102DF0000C9456180E940E170C9445180E94131834
:102E000058F00E940C1840F029F45F3F29F00C9410
:102E1000031851110C948D180C9409180E946A180B
:102E200068F39923B1F3552391F3951B550BBB27F9
:102E3000AA2762177307840738F09F5F5F4F220F3E
:102E4000331F441FAA1FA9F335D00E2E3AF0E0E835
:102E500032D091505040E695001CCAF72BD0FE2F7F
:102E600029D0660F771F881FBB1F26173707480713
:102E7000AB07B0E809F0BB0B802DBF01FF279358CB
:102E80005F4F3AF09E3F510578F00C9403180C9474
:102E90008D185F3FE4F3983ED4F386957795679558
:102EA000B795F7959F5FC9F7880F911D9695879500
:102EB00097F90895E1E0660F771F881FBB1F62171F
:102EC00073078407BA0720F0621B730B840BBA0BDD
:102ED000EE1F88F7E09508950E9473176894B1116A
:102EE0000C948D1808950E94721888F09F5798F0DE
:102EF000B92F9927B751B0F0E1F0660F771F881FFF
:102F0000991F1AF0BA95C9F714C0B13091F00E9418
:102F10008C18B1E008950C948C18672F782F8827AF
:102F2000B85F39F0B93FCCF3869577956795B3953F
:102F3000D9F73EF490958095709561957F4F8F4FAE
:102F40009F4F0895E89409C097FB3EF490958095B3
:102F5000709561957F4F8F4F9F4F9923A9F0F92F5F
:102F600096E9BB279395F695879577956795B795DD
:102F7000F111F8CFFAF4BB0F11F460FF1BC06F5FC3
:102F80007F4F8F4F9F4F16C0882311F096E911C0D5
:102F9000772321F09EE8872F762F05C0662371F0F6
:102FA00096E8862F70E060E02AF09A95660F771F0A
:102FB000881FDAF7880F9695879597F90895990FE6
:102FC0000008550FAA0BE0E8FEEF16161706E807F3
:102FD000F907C0F012161306E407F50798F0621B14
:102FE000730B840B950B39F40A2661F0232B242BE9
:102FF000252B21F408950A2609F4A140A6958FEF08
:10300000811D811D089597F99F6780E870E060E059
:1030100008959FEF80EC089500240A941616170671
:1030200018060906089500240A94121613061406B9
:10303000050608950C9409180E947218D8F3E894B4
:10304000E0E0BB279F57F0F02AED3FE049EC06C0D7
:10305000EE0FBB0F661F771F881F28F0B23A62077A
:103060007307840728F0B25A620B730B840BE39545
:103070009A9572F7803830F49A95BB0F661F771FC8
:10308000881FD2F790480C944E19092E0394000C17
:1030900011F4882352F0BB0F40F4BF2B11F460FFF2
:1030A00004C06F5F7F4F8F4F9F4F0895EF93E0FFF6
:1030B00007C0A2EA2AED3FE049EC5FEB0E949B16B5
:1030C0000E9445180F90039401FC9058ECEAF0E040
:1030D0000C945A1957FD9058440F551F59F05F3FF3
:1030E00071F04795880F97FB991F61F09F3F79F02A
:1030F00087950895121613061406551FF2CF4695AC
:10310000F1DF08C0161617061806991FF1CF86952D
:103110007105610508940895E894BB276627772711
:10312000CB0197F908950E94DF1708F48FEF0895F7
:103130000E94AB180C9445180E940C1838F00E949D
:10314000131820F0952311F00C9403180C9409180F
:1031500011240C948D180E946A1870F3959FC1F386
:10316000950F50E0551F629FF001729FBB27F00D35
:10317000B11D639FAA27F00DB11DAA1F649F66278A
:10318000B00DA11D661F829F2227B00DA11D621FD9
:10319000739FB00DA11D621F839FA00D611D221F93
:1031A000749F3327A00D611D231F849F600D211D77
:1031B000822F762F6A2F11249F5750409AF0F1F0FA
:1031C00088234AF0EE0FFF1FBB1F661F771F881F63
:1031D00091505040A9F79E3F510580F00C94031880
:1031E0000C948D185F3FE4F3983ED4F38695779561
:1031F0006795B795F795E7959F5FC1F7FE2B880F09
:10320000911D9695879597F908950E947218E8F098
:103210009E37E8F09639B8F49E3848F4672F782F37
:103220008827985FF9CF8695779567959395953917
:10323000D0F3B62FB1706B0F711D811D20F48795EF
:103240007795679593950C9431190C944C190C94BF
:103250008D189F930E941C180F9007FCEE5F0C9432
:103260005618882371F4772321F09850872B762FF6
:1032700007C0662311F499270DC09051862B70E08A
:1032800060E02AF09A95660F771F881FDAF7880F9B
:103290009695879597F908959F3F31F0915020F4C6
:1032A000879577956795B795880F911D9695879522
:1032B00097F908959F938F937F936F93FF93EF9365
:1032C0009B01AC010E949818EF91FF910E946E192A
:1032D0002F913F914F915F910C949818DF93CF936A
:1032E0001F930F93FF92EF92DF927B018C01689402
:1032F00006C0DA2EEF010E94AB18FE01E894A591FA
:103300002591359145915591A6F3EF010E949B16A9
:10331000FE019701A801DA9469F7DF90EF90FF9022
:103320000F911F91CF91DF91089597FB072E16F40F
:10333000009407D077FD09D00E94E01907FC05D062
:103340003EF4909581959F4F0895709561957F4FBC
:1033500008952F923F924F925F926F927F928F9239
:103360009F92AF92BF92CF92DF92EF92FF920F9314
:103370001F93CF93DF93CDB7DEB7CA1BDB0B0FB61E
:10338000F894DEBF0FBECDBF09942A8839884888DB
:103390005F846E847D848C849B84AA84B984C88471
:1033A000DF80EE80FD800C811B81AA81B981CE0F68
:1033B000D11D0FB6F894DEBF0FBECDBFED0108954D
:1033C000AA1BBB1B51E107C0AA1FBB1FA617B7074B
:1033D00010F0A61BB70B881F991F5A95A9F7809567
:1033E0009095BC01CD0108958F929F92AF92BF92AC
:1033F000CF92DF92EF92FF92CF93DF93EC0168813F
:1034000079818A819B81611571058105910521F47E
:1034100064E279ED8BE597E02DE133EF41E050E098
:103420000E94081C49015A019B01AC01A7EAB1E4C2
:103430000E94271C6B017C01ACEEB4EFA501940146
:103440000E94351CDC01CB018C0D9D1DAE1DBF1DE6
:10345000B7FF03C00197A109B04888839983AA8365
:10346000BB839F77DF91CF91FF90EF90DF90CF905C
:10347000BF90AF909F908F9008950E94F419089587
:103480008DE191E00E94F4190895A0E0B0E08093EE
:103490001D0190931E01A0931F01B0932001089578
:1034A000283008F027E03327DA01990F311D87FD16
:1034B000916000966105710539F432602E5F3D938D
:1034C00030E32A95E1F708959F3F30F08038710589
:1034D000610509F03C5F3C5F3D93913008F08068E6
:1034E000911DDF93CF931F930F93FF92EF92192FAC
:1034F000987F9695E92F96959695E90FFF27E45DBD
:10350000FE4F99273327EE24FF24A701E7010590FA
:103510000894079428F4360FE71EF81E491F511D22
:10352000660F771F881F991F0694A1F705900794CF
:1035300028F4E70EF81E491F561FC11D770F881F7C
:10354000991F661F0694A1F70590079428F4F80EBA
:10355000491F561FC71FD11D880F991F661F771F50
:103560000694A1F70590079420F4490F561FC71F32
:10357000D81F990F661F771F881F0694A9F784919B
:103580001095177041F0D695C79557954795F794C4
:10359000E7941A95C1F7E2EDF0E068941590159163
:1035A00035916591959105907FE27395E118F10A47
:1035B000430B560BC90BD009C0F7E10CF11E431F9A
:1035C000561FC91FD01D7EF4703311F48A95E6CFC3
:1035D000E894015030F0080F0AF40027021708F4AD
:1035E000202F2395022F7A3328F079E37D932A95B3
:1035F000E9F710C07D932A9589F60694979567950B
:10360000379517951794E118F10A430B560BC90B20
:10361000D00998F023957E9173957A3308F070E382
:103620007C932013B8F77E9170617D9330F0839581
:1036300071E37D9370E32A95E1F71124EF90FF90F9
:103640000F911F91CF91DF91992787FD9095089554
:10365000FC010590615070400110D8F7809590955D
:103660008E0F9F1F0895FC01615070400190011062
:10367000D8F7809590958E0F9F1F08950F931F93F5
:10368000CF93DF93FB01238121FD03C08FEF9FEFD9
:103690002CC022FF16C046815781248135814217F4
:1036A000530744F4A081B1819D012F5F3F4F3183C7
:1036B00020838C93268137812F5F3F4F378326836A
:1036C00014C08B01EC01FB010084F185E02D09950C
:1036D000892BE1F6D80116968D919C91179701964A
:1036E00017969C938E931697CE01DF91CF911F91E1
:1036F0000F910895AEE0B0E0E0E8FBE10C94B7195B
:103700000D891E898F89988D26E02C831A83098361
:1037100097FF02C080E090E801979E838D83AE0101
:10372000455E5F4F698D7A8DCE0101960E9406132A
:103730004D815E8157FD0AC02F813885421753079E
:103740000CF49A01F801E20FF31F10822E96E4E0C8
:103750000C94D319FA01AA27283051F1203181F1B4
:10376000E8946F936E7F6E5F7F4F8F4F9F4FAF4F89
:10377000B1E03ED0B4E03CD0670F781F891F9A1F9C
:10378000A11D680F791F8A1F911DA11D6A0F711D50
:10379000811D911DA11D20D009F468943F912AE05C
:1037A000269F11243019305D3193DEF6CF01089544
:1037B000462F4770405D4193B3E00FD0C9F7F6CF75
:1037C000462F4F70405D4A3318F0495D31FD40523D
:1037D000419302D0A9F7EACFB4E0A69597958795D3
:1037E00077956795BA95C9F70097610571050895B2
:1037F0009B01AC010A2E069457954795379527955E
:10380000BA95C9F7620F731F841F951FA01D0895F5
:10381000052E97FB1EF400940E941F1C57FD07D035
:103820000E943A1C07FC03D04EF40C941F1C5095C8
:103830004095309521953F4F4F4F5F4F089590959C
:103840008095709561957F4F8F4F9F4F08950E948F
:103850005C1CA59F900DB49F900DA49F800D911DA1
:1038600011240895B7FF0C94271C0E94271C821B6B
:10387000930B0895A1E21A2EAA1BBB1BFD010DC0DC
:10388000AA1FBB1FEE1FFF1FA217B307E407F50710
:1038900020F0A21BB30BE40BF50B661F771F881FEC
:1038A000991F1A9469F760957095809590959B0182
:1038B000AC01BD01CF010895A29FB001B39FC0012B
:1038C000A39F700D811D1124911DB29F700D811D4C
:0A38D0001124911D0895F894FFCF14
:1038DA000AD7233CCDCCCC3E0400000005000105EC
:1038EA00000100080000001C4200009C4201000088
:1038FA0000151F040E0A13131E0E0A0302032530B5
:10390A00326400256600256400546F6D2026204A23
:10391A006572727921004849542053573320544F15
:10392A00205354415254004A616D65732053636FAA
:10393A007474004E39393433363138004C760048C5
:0C394A005000530050415553454400000C
:00000001FF
